:100000000C948B000C94B3000C94B3000C94B300CC
:100010000C94B3000C94B3000C94B3000C94B30094
:100020000C94B3000C94B3000C94B3000C94B30084
:100030000C94B3000C94B3000C94B3000C94B30074
:100040000C9477220C94B3000C9486240C94B8245E
:100050000C94B3000C94B3000C94B3000C94B30054
:100060000C94B3000C94B300084AD73B3BCE016E0E
:1000700084BCBFFDC12F3D6C74319ABD56833DDAFF
:100080003D00C77F11BED9E4BB4C3E916BAAAABE0E
:10009000000000803F05A84CCDB2D44EB93836A937
:1000A000020C50B9918688083CA6AAAA2ABE000074
:1000B00000803F0000000008000201000003040768
:1000C0000000000000000000010204081020408031
:1000D0000102040810200102040810200404040492
:1000E00004040404020202020202030303030303E2
:1000F0000000000023002600290000000000250069
:1001000028002B0000000000240027002A00220AFB
:100110006020E824762211241FBECFEFD8E0DEBF96
:10012000CDBF11E0A0E0B1E0EEEDF7E502C0059033
:100130000D92AC38B107D9F725E0ACE8B1E001C0C9
:100140001D92A738B207E1F710E0CAE8D0E004C07A
:100150002197FE010E94C62BC738D107C9F70E941C
:1001600016250C94AF270C9400008F929F92AF92AB
:10017000BF92CF92DF92EF92FF92DB01ED91FC9163
:10018000119780809180A280B380CF0108968D93D3
:100190009C93C480D580E680F78081E094E00E9443
:1001A000AF0D84E893E00E94AF0D8092C704909257
:1001B000C804A092C904B092CA0484EC94E00E94DE
:1001C000A00AC092B204D092B304E092B404F092B8
:1001D000B5048FEA94E0FF90EF90DF90CF90BF904E
:1001E000AF909F908F900C94A00ACF92DF92EF92E5
:1001F000FF92CF93DF93EA018BE894E00E94250CF5
:10020000C0908D04D0908E04E0908F04F090900404
:1002100087E694E00E94250C8091690490916A041D
:10022000A0916B04B0916C04E881F981C082D18205
:10023000E282F38284839583A683B7833896F98319
:10024000E883DF91CF91FF90EF90DF90CF900895FA
:100250008F929F92AF92BF92CF92DF92EF92FF92D6
:10026000DB01ED91FC91119780809180A280B38099
:10027000CF0108968D939C93C480D580E680F7804B
:1002800084E893E00E94AF0D81E094E00E94940D19
:10029000E1E0F4E0838A948AA58AB68AC78AD08E80
:1002A000E18EF28EFF90EF90DF90CF90BF90AF90F5
:1002B0009F908F900895CF93DF93CDB7DEB72897A7
:1002C0000FB6F894DEBF0FBECDBF80E792E00E946C
:1002D0008014E0E4F4E083859485A585B685898360
:1002E0009A83AB83BC8387859089A189B2898D83EA
:1002F0009E83AF83B887BE016F5F7F4F80E792E038
:100300000E945D1484E893E00E94AF0D28960FB61A
:10031000F894DEBF0FBECDBFDF91CF9108954F920D
:100320005F926F927F928F929F92AF92BF92CF9285
:10033000DF92EF92FF92CF93DF93DB01ED91FC917F
:100340001197CF0101968D939C938081882329F08A
:10035000813049F46FEF7FEF02C061E070E080E729
:1003600092E00E945714E0917403F0917503EF013D
:1003700083E0CC0FDD1F8A95E1F7CC59DD4F93E088
:10038000EE0FFF1F9A95E1F7E459FD4F80809180B1
:10039000A280B380C480D580E680F780288139812F
:1003A0004A815B81C501B4010E94B2272B013C0147
:1003B0002C813D814E815F81C701B6010E94B22729
:1003C000A30192010E94322880929B0390929C0389
:1003D000A0929D03B0929E03C0929F03D092A0036F
:1003E000E092A103F092A2036093A3037093A4038D
:1003F0008093A5039093A60381E094E00E94940D5E
:1004000060E772E084E893E00E94D31384E893E00D
:10041000DF91CF91FF90EF90DF90CF90BF90AF90A2
:100420009F908F907F906F905F904F900C94940D61
:100430000F931F93CF93DF93CDB7DEB728970FB6F7
:10044000F894DEBF0FBECDBFDB01ED91FC9111979B
:100450000081118122813381CF0108968D939C9375
:1004600084819581A681B78109831A832B833C837C
:100470008D839E83AF83B887BE016F5F7F4F80E718
:1004800092E00E945D1428960FB6F894DEBF0FBE6E
:10049000CDBFDF91CF911F910F910895CF92DF9241
:1004A000EF92FF920F931F93CF93DF93CDB7DEB7F9
:1004B0002C970FB6F894DEBF0FBECDBF8B0187E639
:1004C00092E00E945E1D8CE0EBE4F4E0DE01119608
:1004D00001900D928A95E1F7D801ED91FC91119769
:1004E000CF0104968D939C93C080D180E280F380ED
:1004F00081E094E00E94940DC986DA86EB86FC8642
:100500008CE0FE013196ABE9B3E001900D928A9543
:10051000E1F767E672E084E893E00E94D31384E891
:1005200093E02C960FB6F894DEBF0FBECDBFDF91DF
:10053000CF911F910F91FF90EF90DF90CF900C948F
:10054000940DCF93DF93EA0184E893E00E94DC13DB
:10055000E881F981808388819981019699838883D4
:10056000DF91CF910895CF92DF92EF92FF920F9398
:100570001F93DB01ED91FC911197C080D180E28047
:10058000F3800481158126813781CF010C968D93EC
:100590009C9380859185A285B385E0E4F4E0C386D1
:1005A000D486E586F6860787108B218B328B838B6A
:1005B000948BA58BB68B1F910F91FF90EF90DF90DE
:1005C000CF9008950F931F93CF93DF93A0E4B4E0EF
:1005D0001B960D911D912D913C911E97EA01E8818A
:1005E000F98100831183228333831F960D911D911E
:1005F0002D913C915297048315832683378353961C
:100600008D919D910D90BC91A02D80879187A2879F
:10061000B3873C96F983E883DF91CF911F910F91C7
:1006200008950F931F93CF93DF93E0E4F4E00789DD
:10063000108D218D328D838D948DA58DB68DEA011F
:10064000E881F98100831183228333838483958336
:10065000A683B7833896F983E883DF91CF911F9102
:100660000F910895CF92DF92EF92FF92DB01ED910F
:10067000FC911197CF01019611969C938E938081E6
:10068000813A09F4EEC108F07BC0813509F476C1E6
:10069000C0F5813209F42EC1D0F4813109F4FBC0D8
:1006A000803209F416C1803109F0DBC2CF01059612
:1006B0008D939C9381819281A381B4818093CB049B
:1006C0009093CC04A093CD04B093CE04F4C08134B5
:1006D00009F429C1803509F440C1803409F0C1C250
:1006E000CF0105968D939C9381819281A381B481E2
:1006F0008093950490939604A0939704B0939804E4
:1007000022C1823809F471C110F5803809F44BC157
:1007100008F05AC1803609F0A4C2CF0105968D9326
:100720009C9381819281A381B48180935F04909393
:100730006004A0936104B093620460EC70E080E414
:1007400094E0FF90EF90DF90CF900C94C60E843829
:1007500009F46DC108F45AC1803A09F082C2CF0190
:1007600005968D939C9381819281A381B48180931E
:10077000ED039093EE03A093EF03B093F003A3C1B6
:10078000843B09F4DCC108F044C0803B09F4A0C1FB
:10079000C8F4833A09F487C108F474C1843A09F0B3
:1007A00060C2CF0105968D939C9381819281A38134
:1007B000B4818093FD039093FE03A093FF03B09355
:1007C000000481C19F012B5F3F4F418152816381B2
:1007D0007481823B09F48DC108F0A6C1C090D90391
:1007E000D090DA03E090DB03F090DC032D933C9390
:1007F000C092D103D092D203E092D303F092D403FB
:100800004093D5035093D6036093D7037093D803D6
:10081000A6C1833D09F4CFC1C8F4813D09F4A9C143
:1008200008F0B8C1803D09F01CC2CF0105968D9338
:100830009C9381819281A381B4818093AF03909333
:10084000B003A093B103B093B203E7C1853D09F4AF
:10085000D4C108F4C1C1803E09F4E9C1803F09F068
:1008600000C2CF0105968D939C9381819281A381D3
:10087000B48180936C0290936D02A0936E02B0934A
:100880006F0260E872E087E692E0FF90EF90DF9001
:10089000CF900C94801DCF0105968D939C93818100
:1008A0009281A381B4818093CF049093D004A093CC
:1008B000D104B093D20484EC94E00E94A00A60E4D6
:1008C00070E084EC94E0FF90EF90DF90CF900C9478
:1008D000580BCF0105968D939C9381819281A381C2
:1008E000B4818093B6049093B704A093B804B093F6
:1008F000B90410C0CF0105968D939C93818192819C
:10090000A381B4818093BA049093BB04A093BC04E8
:10091000B093BD048FEA94E00E94A00A60E670E004
:100920008FEA94E0D0CFCF0105968D939C9381817F
:100930009281A381B4818093990490939A04A093A7
:100940009B04B0939C0460E870E08BE894E0FF9017
:10095000EF90DF90CF900C94F00CCF0105968D9323
:100960009C9381819281A381B4818093710490933F
:100970007204A0937304B093740410C0CF01059661
:100980008D939C9381819281A381B481809375041E
:1009900090937604A0937704B093780460EA70E0B3
:1009A00087E694E0D4CFCF0105968D939C93818107
:1009B0009281A381B48180931C0490931D04A09321
:1009C0001E04B0931F0443C0CF0105968D939C93E2
:1009D00081819281A381B48180933004909331040A
:1009E000A0933204B093330432C0CF0105968D93A7
:1009F0009C9381819281A381B481809334049093EC
:100A00003504A0933604B093370421C0CF01059676
:100A10008D939C9381819281A381B48180933804CA
:100A200090933904A0933A04B0933B0410C0CF01D3
:100A300005968D939C9381819281A381B48180934B
:100A40003C0490933D04A0933E04B0933F0460E0C7
:100A500071E081E094E0FF90EF90DF90CF900C94F4
:100A60003A13CF0105968D939C9381819281A38146
:100A7000B4818093F1039093F203A093F303B093B6
:100A8000F40321C0CF0105968D939C9381819281BF
:100A9000A381B4818093F5039093F603A093F703A9
:100AA000B093F80310C0CF0105968D939C9381817C
:100AB0009281A381B4818093F9039093FA03A09368
:100AC000FB03B093FC0360E471E085EE93E04BC060
:100AD000CF0105968D939C9381819281A381B481EE
:100AE0008093D1039093D203A093D303B093D40304
:100AF00036C02D933C938091D9039091DA03A09155
:100B0000DB03B091DC038093D1039093D203A093D5
:100B1000D303B093D4034093D9035093DA03609383
:100B2000DB037093DC031BC02D933C934093DD03E8
:100B30005093DE036093DF037093E00310C0CF0196
:100B400005968D939C9381819281A381B48180933A
:100B5000E1039093E203A093E303B093E40360E81E
:100B600071E089EC93E0FF90EF90DF90CF900C94D0
:100B70006710CF0105968D939C9381819281A3810B
:100B8000B4818093B3039093B403A093B503B0935F
:100B9000B60343C0CF0105968D939C9381819281CA
:100BA000A381B4818093B7039093B803A093B90352
:100BB000B093BA0332C0CF0105968D939C93818187
:100BC0009281A381B4818093BB039093BC03A093D3
:100BD000BD03B093BE0321C0CF0105968D939C93B6
:100BE00081819281A381B4818093BF039093C003DC
:100BF000A093C103B093C20310C0CF0105968D939B
:100C00009C9381819281A381B4818093C30390934B
:100C1000C403A093C503B093C60360E072E084E808
:100C200093E0FF90EF90DF90CF900C941F14CF01D2
:100C300005968D939C9381819281A381B481809349
:100C4000800390938103A0938203B093830360E4B5
:100C500072E080E792E0FF90EF90DF90CF900C94ED
:100C6000FA1AFF90EF90DF90CF900895CF93DF9323
:100C7000FA01EB01A881B981CD010196998388839E
:100C80008C91813A09F40FC108F052C0813509F402
:100C9000CEC040F5813209F4AFC090F4813109F43F
:100CA00099C0803209F49FC0803109F07AC1409127
:100CB000CB045091CC046091CD047091CE0469C1F5
:100CC000813409F4A2C0803509F4A8C0803409F049
:100CD00068C1409195045091960460919704709179
:100CE000980457C1823809F4C3C088F4803809F4E5
:100CF000ADC008F0B4C0803609F053C140915F0424
:100D000050916004609161047091620442C1843822
:100D100009F4C0C008F4B5C0803A09F042C140915E
:100D2000ED035091EE036091EF037091F00331C138
:100D3000843B09F4F0C028F5803B09F4CFC088F467
:100D4000833A09F4C2C008F4B7C0843A09F029C153
:100D50004091FD035091FE036091FF0370910004E8
:100D600018C120819181823B09F4C1C008F0C8C03C
:100D70004091D5035091D6036091D7037091D80369
:100D8000C7C0833D09F4E2C088F4813D09F4CCC0BA
:100D900008F0D3C0803D09F004C14091AF035091E9
:100DA000B0036091B1037091B203F3C0853D09F4C3
:100DB000DFC008F4D4C0803E09F4E3C0803F09F0EE
:100DC000F0C040916C0250916D0260916E02709182
:100DD0006F02DFC04091CF045091D0046091D104E4
:100DE0007091D204D6C04091B6045091B70460917E
:100DF000B8047091B904CDC04091BA045091BB04BD
:100E00006091BC047091BD04C4C04091990450919C
:100E10009A0460919B0470919C0411C040917104EC
:100E2000509172046091730470917404B2C0409147
:100E30007504509176046091770470917804A081D4
:100E4000B1814D935D936D937D93A9C040911C0436
:100E500050911D0460911E0470911F049AC040912E
:100E6000300450913104609132047091330491C088
:100E700040913404509135046091360470913704E8
:100E800088C0409138045091390460913A047091BF
:100E90003B047FC040913C0450913D0460913E046E
:100EA00070913F0476C04091F1035091F20360913C
:100EB000F3037091F4036DC04091F5035091F60374
:100EC0006091F7037091F80364C04091F903509169
:100ED000FA036091FB037091FC035BC04091D10366
:100EE0005091D2036091D3037091D40352C04091CA
:100EF000D9035091DA036091DB037091DC0308C0E1
:100F00004091DD035091DE036091DF037091E003B7
:100F1000A22FB92F40C04091E1035091E2036091AC
:100F2000E3037091E40335C04091B3035091B403DF
:100F30006091B5037091B6032CC04091B7035091F6
:100F4000B8036091B9037091BA0323C04091BB0309
:100F50005091BC036091BD037091BE031AC04091D3
:100F6000BF035091C0036091C1037091C20311C0CF
:100F70004091C3035091C4036091C5037091C603AF
:100F800008C0409180035091810360918203709169
:100F90008303A081B1814D935D936D937D93B18364
:100FA000A083DF91CF910895DA01ED91FC91119723
:100FB00081E08193ED93FC930895CF93DF9300D06C
:100FC000CDB7DEB71A8219826983DC01ED91FC91FD
:100FD0000280F381E02D42E050E0BE016F5F7F4F61
:100FE00009950F900F90DF91CF910895AF92BF9226
:100FF000CF92DF92EF92FF920F931F93CF93DF93E5
:1010000000D000D0CDB7DEB749835A836B837C8391
:10101000FC01A489B589109719F04689411103C0D4
:1010200080E090E03BC059016C01ED91FC9111977B
:101030000190F081E02D61E4CD0109957C01D6019C
:1010400054968D919C915597DC01ED91FC9164E053
:10105000600F0190F081E02D0995E80EF91EF60170
:1010600084899589DC01ED91FC910280F381E02D6A
:1010700044E050E0BE016F5F7F4F0995E80EF91E16
:10108000F60184899589DC01ED91FC910280F38160
:10109000E02DA801B50109958E0D9F1D0F900F90B1
:1010A0000F900F90DF91CF911F910F91FF90EF90D4
:1010B000DF90CF90BF90AF9008950F931F939B0147
:1010C0008A010F5F1F4FFC01468157816085718542
:1010D000848195810E94F6071F910F9108956032D7
:1010E00038F4FC01E60FF11DE60FF11D508F478B20
:1010F00008958F929F92AF92BF92CF92DF92EF921C
:10110000FF920F931F93CF93DF9300D000D0CDB702
:10111000DEB76C0127E9C20ED11CDA82C982FB015D
:101120002081AB014B5F5F4F5C834B83818092805A
:10113000A380B480FC01E20FF11DE20FF11D0788CE
:10114000F08DE02D3097B1F07C01AE014F5F5F4F25
:10115000BE016D5F7F4F099509811A81C016D106C6
:1011600058F40C191D099601B501A401C7010E948C
:10117000F60702C080E001C081E00F900F900F9051
:101180000F90DF91CF911F910F91FF90EF90DF9023
:10119000CF90BF90AF909F908F9008952F923F92E5
:1011A0004F925F926F927F928F929F92AF92BF9277
:1011B000CF92DF92EF92FF920F931F93CF93DF9323
:1011C0002C01DC0154968D919C915597DC01ED9199
:1011D000FC910480F581E02D09956C01612C712C46
:1011E000212CE201C952DF4F7201B9EDEB0EF11C67
:1011F000820106521F4F332433945201E7E5AE0EAD
:10120000B11C88248394912C6C147D040CF046C08E
:10121000D20154968D919C915597DC01ED91FC91F2
:101220000680F781E02D0995982F2881398121309A
:10123000310551F022303105A9F0232B59F58235C3
:1012400049F59982888226C0F7018083D8011C92D3
:10125000813418F080E090E002C082E090E0998351
:10126000888318C0F801208181E0820F8083F20119
:10127000E20FF11DE95AFF4F9083D7019C91891726
:1012800048F0F201368AB501C2010E947908282A85
:1012900019821882FFEF6F1A7F0AB6CF822DDF9175
:1012A000CF911F910F91FF90EF90DF90CF90BF9063
:1012B000AF909F908F907F906F905F904F903F90F6
:1012C0002F9008950F931F93CF93DF938B01C0E06E
:1012D000D0E0CE010E94CC2BF80181938F018823AE
:1012E00049F08F3F29F02196C115F4E0DF0789F717
:1012F00080E001C081E0DF91CF911F910F910895AF
:101300000F931F93CF93DF93CDB7DEB7A0970FB6A0
:10131000F894DEBF0FBECDBF8A01BE016F5F7F4F65
:101320008CE891E00E946209FE013196AF012191A3
:10133000D8018D919C91DC012C93D8018D919C91C9
:10134000119701968D939C93DA018C918111EECFC8
:10135000A0960FB6F894DEBF0FBECDBFDF91CF9140
:101360001F910F910895EF92FF920F931F93CF93C8
:10137000DF938B01EB017E01CE01801B910B699104
:101380000E94D42BF70180818111F5CFDF91CF919D
:101390001F910F91FF90EF900895CF93DF93EC0191
:1013A0007D8B6C8B1E8A9D838C838FEF9FEFDC017E
:1013B0008E839F83A887B987DF87CE878EEF9FEFC5
:1013C000AFEFBFEF888B998BAA8BBB8B6AE071E084
:1013D000CE010E94B30984ED97E0988F8F8B80E84F
:1013E00099E09A8F898F8AEF99E09C8F8B8FDF919C
:1013F000CF910895CF93DF93CDB7DEB7A0970FB607
:10140000F894DEBF0FBECDBF9B01FE013196BF0138
:10141000D9014D915C911197CA0101968D939C93CE
:10142000DA018C9181938111F3CF8CE891E00E94D5
:10143000B309A0960FB6F894DEBF0FBECDBFDF9103
:10144000CF910895ECE8F1E0138212828AE191E0F5
:101450009183808315861486938782870895AF923F
:10146000BF92CF92DF92EF92FF920F931F93CF9391
:10147000DF931F92CDB7DEB75C017B018B016C015E
:1014800084E0C80ED11CF80161918F01C501698308
:101490000E94CC2B6981681719F0C5010E94D42BDA
:1014A000FFEFAF1ABF0AAC14BD0469F7C7010F9074
:1014B000DF91CF911F910F91FF90EF90DF90CF9030
:1014C000BF90AF900895CF92DF92EF92FF920F936B
:1014D0001F93CF93DF93EB017B0124E0E20EF11C1D
:1014E0008B016C01C61AD70AC601800F911F0E949A
:1014F000CC2BF80181938F01EE15FF05A9F7CE01E2
:10150000DF91CF911F910F91FF90EF90DF90CF90DF
:101510000895CF93DF93EC01862F6F87788B5A8BDA
:10152000498B3C8B2B8B61E00E94B42361E089895D
:101530000E94B42361E08B89DF91CF910C94B42396
:10154000CF92DF92EF92FF920F931F93CF93DF938F
:10155000EC01CB80DC80ED80FE8020E030E0A90152
:10156000C701B6010E949128882309F451C02BEDD0
:101570003FE049EC50E46F81788589859A850E9427
:10158000CA2A9B01AC01C701B6010E949B282B858A
:101590003C854D855E850E94CA2A20E030E04FE7F9
:1015A00053E40E94CA2A0E940D298B0177FF04C0D0
:1015B00000271127061B170B61E08F850E94F0237F
:1015C000B8010F3F110519F014F06FEF70E0898931
:1015D0000E942C232B853C854D855E856B817C810B
:1015E0008D819E810E94CA2A2F81388549855A851E
:1015F0000E94CA2A11E020E030E0A9010E94BD2A21
:1016000018160CF010E081E0612F68278B8902C06A
:1016100060E08F85DF91CF911F910F91FF90EF9048
:10162000DF90CF900C94F023CF92DF92EF92FF9255
:10163000CF93DF93EC012BED3FE049EC50E46F8159
:10164000788589859A850E94CA2A2B853C854D8597
:101650005E850E949B286B017C0120E030E0A9019F
:101660000E94BD2A181624F0F7FAF094F7F8F094C7
:10167000C701B601DF91CF91FF90EF90DF90CF903F
:1016800008950F931F93CF93DF93EC018B01BC015F
:10169000695F7F4FC8010E94630ABE01655F7F4F8B
:1016A000C8010496DF91CF911F910F910C94630AAA
:1016B0000F931F93CF93DF93EC018B01BC01695F04
:1016C0007F4FC8010E942F0ABE01655F7F4FC8018E
:1016D0000496DF91CF911F910F910C942F0ACF9315
:1016E000DF93EC01862F688379835B834A8361E013
:1016F0000E94B42360E08A81DF91CF910C94B423DF
:10170000CF93DF93EC0160E088810E94F0238AE0B0
:1017100090E00E94E62261E08881DF91CF910C94F5
:10172000F0230F931F93CF93DF93EC01E881F981AE
:101730000480F581E02D09950A811B812C813D8172
:101740000E831F8328873987DF91CF911F910F91D7
:10175000089508950C948424EF92FF920F931F93A1
:10176000CF93DF931F92CDB7DEB77C01FC010081E0
:101770001181C80169830E94CC2B6981681719F017
:10178000C8010E94D42BC7010F90DF91CF911F9108
:101790000F91FF90EF900895CF92DF92EF92FF921A
:1017A0000F931F93CF93DF93EC01862F5D8B4C8BB0
:1017B0006A8B7B8B3F8B2E8B198F088FFB8EEA8E6B
:1017C000DD8ECC8E61E00E94B42361E08E890E94A0
:1017D000B42361E0888D0E94B42361E08A8D0E9469
:1017E000B42361E08C8DDF91CF911F910F91FF9019
:1017F000EF90DF90CF900C94B423CF93DF93EC0164
:10180000862F6E8F7F8F59A348A33BA32AA360E046
:101810000E94B42361E088A10E94B42361E08AA100
:10182000DF91CF910C94B423CF93DF93EC011E8210
:101830001F821886198660E08C8D0E94F02361E07B
:101840008C8DDF91CF910C94F0230F931F93CF9346
:10185000DF93EC016C898A890E94F02360E08A8D15
:101860000E94F0231A821B821C821D820FEF1FEF41
:10187000602F609561708E890E94F023B801759584
:1018800067956170888D0E94F0238A819B81AC816D
:10189000BD81BA2FA92F982F88278A839B83AC8379
:1018A000BD8361E08AA10E94F02361E088A10E94CB
:1018B000F02341E06AA18E8D0E9449244A815B8118
:1018C0006C817D81480F511D611D711D4A835B83B1
:1018D0006C837D8360E088A10E94F0230150110990
:1018E0000B3F8FEF180721F661E08A8DDF91CF91D2
:1018F0001F910F910C94F023CF92DF92EF92FF9201
:10190000CF93DF93EC010E94250C8A819B81AC81EF
:10191000BD81CE80DF80E884F984BC01CD016C19E3
:101920007D098E099F090E9445296B017C016E8506
:101930007F85888999890E9445299B01AC01C7014F
:10194000B6010E949B286B017C012BED3FE049EC26
:1019500050E46A857B858C859D850E94CA2A9B01FF
:10196000AC01C701B6010E94CA2ADF91CF91FF9056
:10197000EF90DF90CF900895CF92DF92EF92FF9299
:101980000F931F93CF93DF938B017C012EE0E20E28
:10199000F11CEC012A966B01CC1ADD0AC6018C0FF2
:1019A0009D1F0E94CC2B8993CE15DF05B9F77801D6
:1019B00084E0E80EF11C085F1F4FC7010E94CC2B8A
:1019C00089932FEFE21AF20AE016F106B1F7DF91E0
:1019D000CF911F910F91FF90EF90DF90CF900895DE
:1019E0008F929F92AF92BF92CF92DF92EF92FF922F
:1019F0000F931F93CF93DF9300D0CDB7DEB76C0169
:101A00007B015C018EE0A80EB11C8601065F1F4FB2
:101A10004B01801A910AC401800F911FF801619156
:101A20008F019A838983CE0101960E94AC0B0A151F
:101A30001B0589F7F4E0EF0EF11C82E1C80ED11C02
:101A4000F80161918F01FA82E982CE0101960E942C
:101A5000AC0BFFEFEF1AFF0A0C151D0589F70F906D
:101A60000F90DF91CF911F910F91FF90EF90DF903A
:101A7000CF90BF90AF909F908F900895CF92DF92BC
:101A8000EF92FF921F93CF93DF93FC0112811123FA
:101A9000D9F0EC010E94C122CF80D884E984FA8475
:101AA0006C197D098E099F090E94432920E034E2C8
:101AB00044E759E40E949B282B813C814D815E8143
:101AC0000E94BD2A181614F010E025C00E94C12201
:101AD0006B017C018F819885A985BA85A701960144
:101AE000281B390B4A0B5B0BCA01B9010E94432921
:101AF00020E034E244E759E40E949B28AB01BC019A
:101B0000CF82D886E986FA86E881F9810480F5815A
:101B1000E02DCE010995812FDF91CF911F91FF908C
:101B2000EF90DF90CF900895CF93DF93FC01228157
:101B3000211112C0EC0181E082830E94C1226F83D7
:101B4000788789879A87E881F9810680F781E02D77
:101B5000CE01DF91CF910994DF91CF910895DC01FF
:101B600012962C911297222349F012961C921297EA
:101B7000ED91FC910084F185E02D0994089508957C
:101B8000089508954F925F926F927F928F929F92E5
:101B9000AF92BF92CF92DF92EF92FF920F931F937B
:101BA000CF93DF93CDB7DEB728970FB6F894DEBF9B
:101BB0000FBECDBF8C014D835E836F837887DC01C0
:101BC00093968D919C919497DC01ED91FC91068008
:101BD000F781E02D09952B013C01F80185A196A123
:101BE000DC01ED91FC910680F781E02D09956B01F8
:101BF0007C019B01AC01C301B2010E94B32720E02C
:101C000030E040E05FE30E94CA2A4B015C01A3017F
:101C10009201C701B6010E94B227F801278D30A1B9
:101C200041A152A10E949B286B017C01D8015396CF
:101C30008D919D910D90BC91A02D89839A83AB834A
:101C4000BC8320E030E040E05FE3C701B6010E94C2
:101C5000CA2A9B01AC0169817A818B819C810E9497
:101C6000B3272B013C010E9496289B01AC01C501C2
:101C7000B4010E94CA2A9B01AC01F80163857485F6
:101C8000858596850E94B327D8011B966D937D9319
:101C90008D939C931E97C301B2010E94372B9B0129
:101CA000AC01C501B4010E94CA2A9B01AC01F80134
:101CB00067857089818992890E94B327D8011F9610
:101CC0006D937D938D939C935297A70196016981A3
:101CD0007A818B819C810E94B327F801638B748B7E
:101CE000858B968B2D813E814F815885C501B4012E
:101CF0000E949B28D80157966D937D938D939C935A
:101D00005A972D813E814F815885C701B6010E94A7
:101D10009B28F801638F748F858F968F28960FB656
:101D2000F894DEBF0FBECDBFDF91CF911F910F9111
:101D3000FF90EF90DF90CF90BF90AF909F908F90EB
:101D40007F906F905F904F9008950C948424EF9251
:101D5000FF920F931F93CF93DF937C0123E2E20E58
:101D6000F11CEC016F968B010C1B1D0BC8018C0F35
:101D70009D1F0E94CC2B8993CE15DF05B9F7DF910B
:101D8000CF911F910F91FF90EF900895CF92DF9226
:101D9000EF92FF920F931F93CF93DF931F92CDB7D4
:101DA000DEB76B018C01015E1F4F7B0184E0E80E02
:101DB000F11CF80161918F01C60169830E94CC2B4F
:101DC0006981681719F0C6010E94D42BFFEFCF1A62
:101DD000DF0ACE14DF0469F70F90DF91CF911F91D6
:101DE0000F91FF90EF90DF90CF900895AF92BF9248
:101DF000CF92DF92EF92FF920F931F93CF93DF93D7
:101E00001F92CDB7DEB75C017B018B016C0184E0D2
:101E1000C80ED11CF80161918F01C50169830E9430
:101E2000CC2B6981681719F0C5010E94D42BFFEFF4
:101E3000AF1ABF0AAC14BD0469F7C7010F90DF9158
:101E4000CF911F910F91FF90EF90DF90CF90BF90B7
:101E5000AF900895CF92DF92EF92FF920F931F936E
:101E6000CF93DF93EB017B0124E0E20EF11C8B01A9
:101E70006C01C61AD70AC601800F911F0E94CC2B95
:101E8000F80181938F01EE15FF05A9F7CE01DF91CF
:101E9000CF911F910F91FF90EF90DF90CF90089519
:101EA0002F923F924F925F926F927F928F929F926A
:101EB000AF92BF92CF92DF92EF92FF920F931F9358
:101EC000CF93DF93CDB7DEB728970FB6F894DEBF78
:101ED0000FBECDBF1C01CB01BA01C982DA82EB82F1
:101EE000FC82A90198010E94B2274B015C01A70165
:101EF00096010E94CA2AD1012D913D914D915C918C
:101F00000E94B3272B013C01F1016083718382831E
:101F10009383C484D584E684F784A7019601608DF9
:101F2000718D828D938D0E949B286D837E838F831C
:101F30009887A7019601D10154966D917D918D915D
:101F40009C9157970E949B289B01AC01ED80FE80DD
:101F50000F811885C301B2010E94F91D6B017C013C
:101F6000F10160837183828393832481358146816B
:101F70005781C501B4010E94B22729813A814B8162
:101F80005C810E949B282B013C01D10114968D920B
:101F90009D92AD92BC92179758968D919D910D9000
:101FA000BC91A02D89839A83AB83BC83D1015496C5
:101FB0008D919D910D90BC91A02D8D839E83AF83BB
:101FC000B887F1012085318542855385C501B4016B
:101FD0000E94CA2A4B015C01D1011C962D913D91B2
:101FE0004D915C911F97C701B6010E94CA2A9B01BF
:101FF000AC01C501B4010E94B3276B017C01F10162
:102000002089318942895389C301B2010E94CA2AB9
:102010009B01AC01C701B6010E94B227E980FA809A
:102020000B811C812D813E814F8158850E94F91DB5
:1020300028960FB6F894DEBF0FBECDBFDF91CF91CB
:102040001F910F91FF90EF90DF90CF90BF90AF90D6
:102050009F908F907F906F905F904F903F902F90C8
:102060000895FC011082118212821382148215825B
:102070001682178208950F931F93CF93DF93EC017D
:102080008B01BC01685F7F4FC8010E942A0FBE010F
:10209000645F7F4FC80104960E942A0FBE01605FF3
:1020A0007F4FC80108960E942A0FBE016C5E7F4FC9
:1020B000C8010C960E942A0FBE01685E7F4FC801BE
:1020C0004096DF91CF911F910F910C942A0F0F939F
:1020D0001F93CF93DF93EC018B01BC01685F7F4FAF
:1020E000C8010E94F60EBE01645F7F4FC8010496CE
:1020F0000E94F60EBE01605F7F4FC80108960E94E5
:10210000F60EBE016C5E7F4FC8010C960E94F60E63
:10211000BE01685E7F4FC8014096DF91CF911F914D
:102120000F910C94F60E4F925F926F927F928F9266
:102130009F92AF92BF92CF92DF92EF92FF920F9356
:102140001F93CF93DF93EC012A013B010B851C8584
:102150002D853E854B895C896D897E89730162017D
:102160008BA19CA10E94500F4B015C010F85188927
:1021700029893A894F89588D698D7A8D8DA19EA1C3
:102180000E94500F6B017C010F8D18A1D8016D903A
:102190007C902B8D3C8D4D8D5E8D0E94CA2A20E057
:1021A00030E040E05FE30E94CA2A9B01AC01C50118
:1021B000B4010E94B227AB01BC01D3011496ED918A
:1021C000FC911597C801099509A11AA1F801608031
:1021D00071802B8D3C8D4D8D5E8DC701B6010E94A7
:1021E000CA2A20E030E040E05FE30E94CA2A9B0157
:1021F000AC01C501B4010E94B327AB01BC01D301FE
:102200001496ED91FC911597C801DF91CF911F9124
:102210000F91FF90EF90DF90CF90BF90AF909F9085
:102220008F907F906F905F904F900994CF93DF9342
:10223000EC018BA19CA10E9431108DA19EA1DF9188
:10224000CF910C9431100895CF93DF93EC010E944D
:1022500016111FA218A619A61AA61BA61CA61DA613
:102260001EA6DF91CF9108950C948424AF92BF9263
:10227000CF92DF92EF92FF920F931F93CF93DF9352
:102280001F92CDB7DEB75C017B018B016C0184E04E
:10229000C80ED11CF80161918F01C50169830E94AC
:1022A000CC2B6981681719F0C5010E94D42BFFEF70
:1022B000AF1ABF0AAC14BD0469F7C7010F90DF91D4
:1022C000CF911F910F91FF90EF90DF90CF90BF9033
:1022D000AF900895CF92DF92EF92FF920F931F93EA
:1022E000CF93DF93EB017B0124E0E20EF11C8B0125
:1022F0006C01C61AD70AC601800F911F0E94CC2B11
:10230000F80181938F01EE15FF05A9F7CE01DF914A
:10231000CF911F910F91FF90EF90DF90CF90089594
:102320002F923F924F925F926F927F928F929F92E5
:10233000AF92BF92CF92DF92EF92FF920F931F93D3
:10234000CF93DF9300D000D0CDB7DEB749835A8357
:102350006B837C83722E632E9601A701B801872DB3
:10236000962D0E94B2271B012C019601A7016981BD
:102370007A818B819C810E94B2279B01AC01C201B2
:10238000B1010E94CA2A20E030E0A9010E94BD2AC2
:1023900018161CF46801E72CF62C9801472D562DD1
:1023A00069817A818B819C810E94B2271B012C015B
:1023B0009B01AC01B801872D962D0E94CA2A20E00E
:1023C00030E0A9010E94BD2A87FD07C0C201B1010A
:1023D0000E942C1EA501940108C0C201B1010E94F7
:1023E0002C1E298D3A8D4B8D5C8D0E94CA2A2D8D15
:1023F0003E8D4F8D58A10E94CA2A9B01AC01B601A7
:10240000C7010E94B3277B018C019B01AC0169814C
:102410007A818B819C810E94B2279B01AC01C20111
:10242000B1010E94CA2A20E030E0A9010E9491284F
:1024300087FF04C0E980FA800B811C81B701C801C5
:102440000F900F900F900F90DF91CF911F910F91F0
:10245000FF90EF90DF90CF90BF90AF909F908F90C4
:102460007F906F905F904F903F902F9008952F92A4
:102470003F924F925F926F927F928F929F92AF9214
:10248000BF92CF92DF92EF92FF920F931F93CF9361
:10249000DF93CDB7DEB728970FB6F894DEBF0FBE37
:1024A000CDBF98878F8349835A833B01DC015396C4
:1024B0002D903D904D905C90569757968D919D91A3
:1024C0000D90BC91A02D8B839C83AD83BE83EF8147
:1024D000F88587A490A8A1A8B2A8C7A0D0A4E1A419
:1024E000F2A403851485258536857F926F93FA8142
:1024F000FF9389818F93AF81B885D6968C91D697BB
:102500008F93D5968C91D5978F93D4968C91D497A1
:102510008F93D3968C918F93B201A1018F8198856F
:102520000E949011EF81F88567A370A781A792A7F9
:1025300087A890ACA1ACB2ACC3A4D4A4E5A4F6A483
:1025400007851089218932894789508D618D728D67
:102550007F926F92FA81FF9389818F93AF81B885C3
:10256000DE968C91DE978F93DD968C91DD978F931D
:10257000DC968C91DC978F93DB968C918F938F8177
:1025800098850E949011EF81F88563A774A785A7AD
:1025900096A707A110A521A532A5038B148B258B27
:1025A000368B678B708F818F928F39812A81432F71
:1025B000522F662D772DCF010E949310AF81B885E1
:1025C00053962D923D924D925C9256978B819C81B1
:1025D000AD81BE81EF81F885878B908FA18FB28FFF
:1025E0000FB6F894DEBF0FBECDBF28960FB6F89495
:1025F000DEBF0FBECDBFDF91CF911F910F91FF9036
:10260000EF90DF90CF90BF90AF909F908F907F9092
:102610006F905F904F903F902F9008950F931F936E
:10262000CF93DF93EC018B01BC01655E7F4FC80146
:102630000E946A11BE01615D7F4FC80104960E942D
:102640006A11BE016D5C7F4FC80108960E946A1135
:10265000BE01695C7F4FC8010C960E946A11BE01E1
:10266000655C7F4FC8014096DF91CF911F910F911C
:102670000C946A110F931F93CF93DF93EC018B019E
:10268000BC01655E7F4FC8010E943611BE01615DCD
:102690007F4FC80104960E943611BE016D5C7F4FCA
:1026A000C80108960E943611BE01695C7F4FC801BF
:1026B0000C960E943611BE01655C7F4FC8014096A2
:1026C000DF91CF911F910F910C943611FC01ED5BBE
:1026D000FF4F80819181009739F0DC01ED91FC91F1
:1026E0000190F081E02D09940895089508950C94C7
:1026F0008424AF92BF92CF92DF92EF92FF920F931A
:102700001F93CF93DF931F92CDB7DEB75C017B01A0
:102710008B016C0184E0C80ED11CF80161918F011E
:10272000C50169830E94CC2B6981681719F0C50126
:102730000E94D42BFFEFAF1ABF0AAC14BD0469F797
:10274000C7010F90DF91CF911F910F91FF90EF90F4
:10275000DF90CF90BF90AF900895CF92DF92EF922D
:10276000FF920F931F93CF93DF93EB017B0124E044
:10277000E20EF11C8B016C01C61AD70AC601800F4C
:10278000911F0E94CC2BF80181938F01EE15FF055C
:10279000A9F7CE01DF91CF911F910F91FF90EF909C
:1027A000DF90CF900895FC01ED5BFF4F7183608354
:1027B000FB01938382830895FC01ED5BFF4F8081D1
:1027C0009181009739F0DC01ED91FC910280F38159
:1027D000E02D099480E008950F931F93CF93DF932A
:1027E000EC018B01BC01655D7F4FC8010E94AD13F8
:1027F000BE01615D7F4FC80104960E94AD13BE010A
:102800006D5C7F4FC80108960E94AD13BE01695CE4
:102810007F4FC8010C960E94AD13BE01655C7F4FCF
:10282000C80140960E94AD13BE01615C7F4FC80194
:102830004496DF91CF911F910F910C94AD130F939C
:102840001F93CF93DF93EC018B01BC01655D7F4F3C
:10285000C8010E947913BE01615D7F4FC8010496D3
:102860000E947913BE016D5C7F4FC80108960E94DB
:102870007913BE01695C7F4FC8010C960E947913E1
:10288000BE01655C7F4FC80140960E947913BE016E
:10289000615C7F4FC8014496DF91CF911F910F91EA
:1028A0000C947913FC01E15FFE4F80810895FC01D7
:1028B000EA5FFE4F718360830895CF93DF93DC015D
:1028C000EC01CC5FDE4F2881398120323105A4F440
:1028D000C90101969983888383E0220F331F8A956B
:1028E000E1F7A20FB31F149688E0FB0101900D924F
:1028F0008A95E1F781E001C080E0DF91CF910895F2
:10290000FC01EC5FFE4F11821082329621E030E034
:102910003183208332961182108232961082118286
:1029200012821382349610823196108208952F926B
:102930003F924F925F926F927F928F929F92AF924F
:10294000BF92CF92DF92EF92FF920F931F93CF939C
:10295000DF93CDB7DEB7A2970FB6F894DEBF0FBEF8
:10296000CDBF9AA389A34F8B588F698F7A8F0B8F16
:102970001C8F2D8F3E8FFC01E85FFE4F208131813F
:102980003E832D83349780819181DC011197BC8730
:10299000AB87890183E0000F111F8A95E1F7E9A158
:1029A000FAA10E0F1F1F1901E05FFE4FF8A3EF8F72
:1029B0002B853C85221633060CF036C1D8011496BF
:1029C000CD90DD90ED90FC901797A70196016F894F
:1029D000788D898D9A8D0E94B2276D877E878F872B
:1029E000988BF80180849184A284B384A50194011A
:1029F0006B8D7C8D8D8D9E8D0E94B227698B7A8B1D
:102A00008B8B9C8B91012F5F3F4F3E8B2D8BA701B2
:102A10009601D8011C966D917D918D919C911F9787
:102A20000E94B2276B017C01A5019401F801608925
:102A30007189828993890E94B2272B013C01A701E9
:102A40009601C701B6010E94CA2A4B015C01A3018D
:102A50009201C301B2010E94CA2A9B01AC01C501C7
:102A6000B4010E94B3270E94452B69837A838B832C
:102A70009C8329893A894B895C89C701B6010E94E8
:102A8000CA2A4B015C012D853E854F855889C301BB
:102A9000B2010E94CA2A9B01AC01C501B4010E9487
:102AA000B2274B015C0120E030E0A9010E94BD2A61
:102AB000181624F0B7FAB094B7F8B09429813A8187
:102AC0004B815C81C501B4010E949B284B015C01D4
:102AD000AF8DB8A18D919D910D90BC91A02D8F834C
:102AE0009887A987BA87A5019401BC01CD010E94EE
:102AF000912887FD94C02D853E854F855889C70153
:102B0000B6010E94CA2A6B017C0129893A894B8946
:102B10005C89C301B2010E94CA2A9B01AC01C701B2
:102B2000B6010E94B3276B017C0129813A814B8158
:102B30005C81CA01B9010E94CA2A9B01AC01C7018C
:102B4000B6010E949B286B017C012F813885498545
:102B50005A85CA01B9010E94CA2A2B013C01A5016C
:102B60009401C501B4010E94CA2A9B01AC01C301B2
:102B7000B2010E94B2270E94452B29813A814B81E4
:102B80005C810E949B289B01AC01C701B6010E9499
:102B9000B3276B017C0120E030E0A9010E9491285D
:102BA00087FD3DC020E030E040E85FE3C701B601AB
:102BB0000E94BD2A181654F009A11AA1065F1E4FE3
:102BC000ED81FE81E215F3054CF41DC02D893E898F
:102BD0008B859C852817390714F1EECFD8012D91EC
:102BE0003D914D915C91C701B6010E94BD2A181616
:102BF00054F020E030E040E85FE3C701B6010E94F6
:102C0000BD2A18169CF4E9A1FAA1E85FFE4F3182B3
:102C10002082F801C082D182E282F38207C0085F7D
:102C20001F4F2D883E88C4CE80E001C081E0A2966F
:102C30000FB6F894DEBF0FBECDBFDF91CF911F91CD
:102C40000F91FF90EF90DF90CF90BF90AF909F904B
:102C50008F907F906F905F904F903F902F9008954E
:102C60002F923F924F925F926F927F928F929F929C
:102C7000AF92BF92CF92DF92EF92FF920F931F938A
:102C8000CF93DF93CDB7DEB7A2970FB6F894DEBF30
:102C90000FBECDBF4F8B588F698F7A8F0B8F1C8FD4
:102CA0002D8F3E8F9C01285F3E4F3E872D87F90177
:102CB0000190F081E02DFAA3E9A3FC01EC5FFE4F47
:102CC00020813181A901415051095A8B498B29A09A
:102CD0003AA023E0220C331C2A95E1F7280E391E76
:102CE00000E010E050E85F87EFE7E88B2D853E8538
:102CF00038A32F8FAC01465F5E4F5E8B4D8B49A191
:102D00005AA189899A89481759070CF029C1F101FC
:102D100084809580A680B780A50194016F89788D05
:102D2000898D9A8D0E94B22769837A838B839C83D5
:102D3000F101C084D184E284F384A70196016B8DF4
:102D40007C8D8D8D9E8D0E94B2276D837E838F83B7
:102D5000988729A13AA12F5F3F4F3C8B2B8BA50170
:102D60009401F10164857585868597850E94B22757
:102D70002B013C01A7019601F101608971898289CB
:102D800093890E94B2274B015C01A3019201C30108
:102D9000B2010E94CA2A6B017C01A5019401C50100
:102DA000B4010E94CA2A9B01AC01C701B6010E946E
:102DB000B3270E94452B69877A878B879C87298157
:102DC0003A814B815C81C301B2010E94CA2A6B0126
:102DD0007C012D813E814F815885C501B4010E943F
:102DE000CA2A9B01AC01C701B6010E94B3276B013F
:102DF0007C0129853A854B855C85CA01B9010E9411
:102E0000CA2A9B01AC01C701B6010E949B286B0135
:102E10007C0120E030E040E85FE30E94BD2A181604
:102E200044F42B893C8949895A89241735070CF4C5
:102E30008FC020E030E0A901C701B6010E949128AF
:102E4000181604F129813A814B815C81CA01B901CC
:102E50000E94CA2A6B017C012D813E814F815885D9
:102E6000CA01B9010E94CA2A9B01AC01C701B6017F
:102E70000E94B3270E94452B4B015C01C12CD12C31
:102E800076012FC02D813E814F815885C301B2014B
:102E90000E94CA2A2B013C0129813A814B815C8125
:102EA000C501B4010E94CA2A9B01AC01C301B20151
:102EB0000E94B2274B015C0120E030E0A9010E9492
:102EC000BD2A181624F0B7FAB094B7F8B094298543
:102ED0003A854B855C85C501B4010E949B284B0156
:102EE0005C0198014F855889B401C5010E94912861
:102EF00087FF2EC0EF8DF8A18081918129A13AA191
:102F000082179307B4F0ED89FE89208131814281D7
:102F10005381C701B6010E94BD2A181654F020E063
:102F200030E040E85FE3C701B6010E94BD2A1816F1
:102F300064F429A13AA1ED85FE8531832083ED89D2
:102F4000FE89C082D182E282F3828401AF86B88A90
:102F5000F8E02F0E311C2B893C893AA329A3CFCE50
:102F6000A2960FB6F894DEBF0FBECDBFDF91CF9112
:102F70001F910F91FF90EF90DF90CF90BF90AF9097
:102F80009F908F907F906F905F904F903F902F9089
:102F900008952F923F924F925F926F927F928F92FD
:102FA0009F92AF92BF92CF92DF92EF92FF920F93D8
:102FB0001F93CF93DF9300D000D000D0CDB7DEB702
:102FC000FC01E85FFE4F2080318034972081318101
:102FD000A901415051095A8349838101910143E07C
:102FE000220F331F4A95E1F7F901E80FF91FFE831D
:102FF000ED83C12CD12C76019C01265F3E4F3C8392
:103000002B8349815A81041715070CF05BC0ED81B1
:10301000FE81248135814681578164857585868549
:1030200097850E94B2272B013C01ED81FE8120850E
:1030300031854285538560897189828993890E948F
:10304000B2274B015C01A3019201C301B2010E94AE
:10305000CA2A2B013C01A5019401C501B4010E94BB
:10306000CA2A9B01AC01C301B2010E94B3270E948E
:10307000452B4B015C010215130599F4EB81FC8192
:10308000208131814281538160E070E080E89FE3DC
:103090000E94B227A50194010E94CA2A9B01AC019B
:1030A00002C09B01AC01C701B6010E94B3276B01AE
:1030B0007C010F5F1F4F2D813E81285F3F4F3E8374
:1030C0002D839FCFC701B60126960FB6F894DEBFB9
:1030D0000FBECDBFDF91CF911F910F91FF90EF9069
:1030E000DF90CF90BF90AF909F908F907F906F9028
:1030F0005F904F903F902F9008952F923F924F9264
:103100005F926F927F928F929F92AF92BF92CF9277
:10311000DF92EF92FF920F931F93CF93DF93CDB780
:10312000DEB76A970FB6F894DEBF0FBECDBF1C01A5
:10313000DC0112962D913C911397F901C384D4843C
:10314000E584F68487859089A189B2898D839E83E1
:10315000AF83B88783899489A589B689898B9A8B2F
:10316000AB8BBC8B83A594A5A5A5B6A58D879E87A3
:10317000AF87B88B83A994A9A5A9B6A989839A8397
:10318000AB83BC8387A990ADA1ADB2AD89879A8787
:10319000AB87BC870D811E812F813885B701A601C1
:1031A000C1010E949714811109C00D811E812F81D8
:1031B0003885B701A601C1010E943016F101E85F10
:1031C000FE4F808191819A8F898F32968080918085
:1031D000A280B380A501940160E070E080E89FE3E5
:1031E0000E94B2272B013C01098D1A8D93E0000F3C
:1031F000111F9A95E1F7020D131DD80114962D9118
:103200003D914D915C911797C301B2010E94CA2A6A
:103210006D8B7E8B8F8B988F898D9A8D019623E095
:10322000880F991F2A95E1F7820D931DFC012481D7
:10323000358146815781C501B4010E94CA2A9B018C
:10324000AC016D897E898F89988D0E94B327A70173
:1032500096010E94B2276B017C01D80118962D912E
:103260003D914D915C911B97C301B2010E94CA2A06
:103270002B013C01F8012089318942895389C5011C
:10328000B4010E94CA2A9B01AC01C301B2010E9491
:10329000B3272D813E814F8158850E94B2274B0173
:1032A0005C01A7019601C701B6010E94CA2A2B0141
:1032B0003C01A5019401C501B4010E94CA2A9B01E9
:1032C000AC01C301B2010E94B3270E94452B6D835C
:1032D0007E838F839887A7019601C501B4010E9460
:1032E0003228F101EA5FFE4F0081118129893A8974
:1032F0004B895C890E94B2276B017C0161E070E020
:10330000601B710B072E000C880B990B0E9445293E
:103310002BED3FE049EC5FE30E94CA2A9B01AC0120
:10332000C701B6010E94B3274B015C012D813E818C
:103330004F81588569857A858B859C850E94CA2A2C
:103340002B013C01C501B4010E94372B9B01AC014C
:103350000E94B3276B017C0120E030E0A9010E94AC
:10336000BD2AA701960118160CF0505869817A8180
:103370008B819C810E94CA2A9B01AC01C301B201CE
:103380000E94BD2A20E030E0A90187FD1DC0C701D1
:10339000B6010E94BD2A181624F0F7FAF094F7F847
:1033A000F094A701960169817A818B819C810E94AA
:1033B000CA2A2D813E814F8158850E949B286987AA
:1033C0007A878B879C8714C0C701B6010E94BD2AEB
:1033D000181624F0F7FAF094F7F8F094A701960184
:1033E000C301B2010E949B2869837A838B839C83EB
:1033F000C1010E94C9179B01AC0149805A806B80B2
:103400007C8077FA709477F870946D817E818F81DB
:1034100098850E94B3276B017C01B801110F880BBE
:10342000990B0E9445299B01AC01C701B6010E947E
:10343000CA2A9B01AC016D857E858F8598890E9483
:10344000CA2AE980FA800B811C81A30192010E94A3
:10345000F91D69837A838B839C831BEDE12E1FE02A
:10346000F12E09E410E42BED3FE049E450ECC501F6
:10347000B4010E94C41D9B01AC0149845A846B8431
:103480007C8477FA709477F870946D857E858F854B
:1034900098890E94CA2AE984FA840B851C85A301B5
:1034A00092010E94F91D2B013C01C501B4010E944B
:1034B000962820E030E0A9010E94BD2A1816BCF42D
:1034C000A5019401C501B4010E94B3270E9496286A
:1034D00020E030E040E85FE30E94B32720E030E0E6
:1034E00040E05FE30E94CA2A9B01AC0103C020E0D8
:1034F00030E0A90169817A818B819C810E94CA2A6E
:103500004B015C01C1010E94C9179B01AC016D8197
:103510007E818F8198850E94B3276B017C0120E01A
:1035200030E0A9010E94BD2A181624F0F7FAF094A1
:10353000F7F8F094D10112960D90BC91A02DBA83AA
:10354000A9838101015F1E4FDB962D913D914D9125
:103550005C91DE97C701B6010E949128881F8827D9
:10356000881FF8018083A981BA8193968D929D92DC
:10357000AD92BC929697FD0147A250A661A672A695
:103580006A960FB6F894DEBF0FBECDBFDF91CF9124
:103590001F910F91FF90EF90DF90CF90BF90AF9071
:1035A0009F908F907F906F905F904F903F902F9063
:1035B0000895EF92FF920F931F93CF93DF937C01B7
:1035C0002CEEE21A2EEFF20AEC01C05FDE4F8B0107
:1035D0000C1B1D0BC8018C0F9D1F0E94CC2B8993C7
:1035E000CE15DF05B9F7DF91CF911F910F91FF90B5
:1035F000EF900895CF92DF92EF92FF920F931F9377
:10360000CF93DF931F92CDB7DEB76B018C01005FC4
:103610001E4F7B0184E0E80EF11CF80161918F01DF
:10362000C60169830E94CC2B6981681719F0C60115
:103630000E94D42BFFEFCF1ADF0ACE14DF0469F704
:103640000F90DF91CF911F910F91FF90EF90DF903E
:10365000CF900895FC01848108952F923F924F925C
:103660005F926F927F928F929F92AF92BF92CF9212
:10367000DF92EF92FF920F931F93CF93DF93CDB71B
:10368000DEB76C970FB6F894DEBF0FBECDBF1C013E
:10369000DC0112960D911C911397D8019B968D9188
:1036A0009D910D90BC91A02D8D8B9E8BAF8BB88F73
:1036B000D8019F968D919D910D90BC91A02D898FE1
:1036C0009A8FAB8FBC8FD801D3968D919D910D9021
:1036D000BC91A02D8D879E87AF87B88BD801D796D8
:1036E0008D919D910D90BC91A02D898B9A8BAB8B68
:1036F000BC8BF80123853485458556856789708D97
:10370000818D928D0E94B22769877A878B879C87EB
:10371000D8011F962D913D914D915C9152975B96EA
:103720006D917D918D919C915E970E94B2276D83E2
:103730007E838F839887F80183889488A588B688CC
:10374000C501B4010E94962869837A838B839C8388
:10375000C501B4010E94372B6B017C0129853A8594
:103760004B855C8569817A818B819C810E94CA2A04
:103770002B013C012D813E814F815885C701B60147
:103780000E94CA2A9B01AC01C301B2010E94B32767
:103790002B013C01C701B601905829853A854B851C
:1037A0005C850E94CA2A6B017C012D813E814F817C
:1037B000588569817A818B819C810E94CA2A9B01EC
:1037C000AC01C701B6010E94B3276B017C01A501C2
:1037D0009401D8015F966D917D918D919C91929706
:1037E0000E94B22769837A838B839C83A301920111
:1037F000C301B2010E94CA2A4B015C01A7019601D4
:10380000C701B6010E94CA2A9B01AC01C501B401DF
:103810000E94B3270E94452B69877A878B879C87F4
:10382000A3019201C701B6010E9432286B017C01FD
:10383000F10165817681878190859B01AC010E94B1
:10384000B3276D837E838F83988729813A814B814B
:103850005C81C701B6010E94B2276B017C010E9406
:10386000372B4B015C0120E030E0A9010E94BD2A0A
:10387000A501940118160CF050586D817E818F813E
:1038800098850E94CA2A9B01AC01F1E0FD836985FD
:103890007A858B859C850E94912887FD0AC01D82B0
:1038A00020E030E0A901C501B4010E9491288111F6
:1038B00016C01BEDE12E1FE0F12E09E410E42BED04
:1038C0003FE049E450EC69817A818B819C810E94C0
:1038D000C41D4B015C018D81811152C046C0A701FE
:1038E0009601C701B6010E94B3276D837E838F8343
:1038F00098871BEDE12E1FE0F12E09E410E42BED7B
:103900003FE049E450EC0E94C41D9B01AC01698575
:103910007A858B859C850E94CA2A6B017C01A50152
:103920009401C501B4010E94B3279B01AC01C701FA
:10393000B6010E949B282B013C012D813E814F81C5
:10394000588569817A818B819C810E94B3271BED08
:10395000E12E1FE0F12E09E410E42BED3FE049E4F5
:1039600050EC0E94C41D4B015C01C501B4010E94D2
:10397000962820E030E0A9010E94912887FD0AC026
:1039800020E030E0A901C301B2010E94BD2A18164F
:1039900044F003C0412C512C3201C301B2019058B4
:1039A00002C0C301B201D10112960D911C9113976F
:1039B000F80123AD34AD45AD56AD0E94912887FF87
:1039C0001BC020E030E0A901C501B4010E94BD2A5E
:1039D000181624F0C501B401905802C0C501B40105
:1039E000F801FF9620813181428153810E94912804
:1039F000881F8827881F01C080E0D10114968C930E
:103A00008D859E85AF85B889B05889839A83AB83AD
:103A1000BC83A30192016D897E898F89988D0E9454
:103A2000CA2AED84FE840F85188929813A814B8149
:103A30005C810E94F91D2B013C0189899A89AB891F
:103A4000BC89B05889839A83AB83BC83A501940158
:103A5000698D7A8D8B8D9C8D0E94CA2AE988FA889F
:103A60000B891C8929813A814B815C810E94F91D57
:103A7000D1011296ED91FC91139743A254A265A235
:103A800076A267A370A781A792A76C960FB6F89449
:103A9000DEBF0FBECDBFDF91CF911F910F91FF9081
:103AA000EF90DF90CF90BF90AF909F908F907F90DE
:103AB0006F905F904F903F902F900895FC0114827B
:103AC0000895EF92FF920F931F93CF93DF937C01A2
:103AD00029E0E20EF11CEC0125968B010C1B1D0B5D
:103AE000C8018C0F9D1F0E94CC2B8993CE15DF053A
:103AF000B9F7DF91CF911F910F91FF90EF9008954B
:103B0000CF92DF92EF92FF920F931F93CF93DF93A9
:103B10001F92CDB7DEB76B018C010B5F1F4F7B018E
:103B200084E0E80EF11CF80161918F01C601698300
:103B30000E94CC2B6981681719F0C6010E94D42B12
:103B4000FFEFCF1ADF0ACE14DF0469F70F90DF9181
:103B5000CF911F910F91FF90EF90DF90CF9008953C
:103B6000CF92DF92EF92FF9269017A010E948B2936
:103B7000A70196010E94B327A7019601FF90EF903D
:103B8000DF90CF900C948B294F925F926F927F922F
:103B90008F929F92AF92BF92CF92DF92EF92FF925D
:103BA0000F931F932B013C0149015A01C801B70132
:103BB0000E94B2276B017C01A5019401C301B201EF
:103BC0000E94B227A70196010E94B01DA501940191
:103BD0000E94B3271F910F91FF90EF90DF90CF903D
:103BE000BF90AF909F908F907F906F905F904F901D
:103BF00008958F929F92AF92BF92CF92DF92EF92F1
:103C0000FF920F931F93CF93DF936B01D82FC92F90
:103C100049015A010E94912887FD0DC09701A80112
:103C2000B6018D2F9C2F0E94BD2A181634F0760104
:103C30000D2F1C2F02C074018501B701C801DF914F
:103C4000CF911F910F91FF90EF90DF90CF90BF9099
:103C5000AF909F908F900895CF92DF92EF92FF9256
:103C60006B017C0120E030E0A9010E94912887FDD2
:103C70000DC020E030E0A901C701B6010E94BD2AB5
:103C800018164CF060E070E0CB0109C060E070E015
:103C900080E89FEB04C060E070E080E89FE3FF9065
:103CA000EF90DF90CF9008950895FC0143835483F3
:103CB000658376830C94A00A0C9484248F929F923F
:103CC000AF92BF92CF92DF92EF92FF920F931F932A
:103CD000CF93DF9326E040E052EC61E070E086EEA7
:103CE00094E00E94EB2566EE74E08CE891E00E947F
:103CF000CD0945EB50E064E08CE891E00E946F084C
:103D000045EF50E06DE08CE891E00E946F0848E2DA
:103D100051E066E08CE891E00E946F084BE551E0CD
:103D200060E18CE891E00E946F0848E152E061E1B7
:103D30008CE891E00E946F084FE851E067E08CE862
:103D400091E00E946F084EE452E069E08CE891E057
:103D50000E946F0841EA52E068E08CE891E00E941E
:103D60006F0843EB52E06AE08CE891E00E946F0834
:103D700042EE52E06BE08CE891E00E946F0841E176
:103D800053E06CE08CE891E00E946F0842E353E05E
:103D90006EE08CE891E00E946F0846E356E06FE029
:103DA0008CE891E00E946F0845E150E06CE070E023
:103DB00089ED94E00E946F0B89ED94E00E94800BE6
:103DC00025E030E043E050E066E070E084EC94E011
:103DD0000E94890A2AE030E04BE050E069E070E0A0
:103DE0008FEA94E00E94890A60E470E084EC94E039
:103DF0000E94410B60E670E08FEA94E00E94410B64
:103E000081E1C82ED12C93E1E92EF12C08E010E0DD
:103E100027E030E041E050E06EE070E08BE894E0B5
:103E20000E94CC0B20E1C22ED12C27E030E040E0F4
:103E300050E06EE070E087E694E00E94CC0B22E058
:103E400030E044E050E06DE070E08BE894E00E94E8
:103E5000FD0B22E030E044E050E06DE070E087E6EA
:103E600094E00E94FD0B60E870E08BE894E00E9413
:103E7000BC0C60EA70E087E694E00E94BC0C8BE822
:103E800094E00E94140C87E694E00E94140C60EC0D
:103E900070E080E494E00E94A70EE0E4F4E08BE898
:103EA00094E094A383A387E694E096A385A38AE095
:103EB00097EDA3EABBE383839483A583B683CF0105
:103EC0000E94940D60E071E081E094E00E940E1386
:103ED000E1E0F4E084EC94E090A3878F8FEA94E033
:103EE00092A381A305EE13E014A303A3C9ECD3E0CE
:103EF000D6A3C5A3CF010E94AF0D84EC94E00E942D
:103F0000140B6B017C018FEA94E00E94140B9B015F
:103F1000AC01C701B6010E94B32720E030E040E0C9
:103F20005FE30E94CA2A4B015C0184EC94E00E948A
:103F3000140B6B017C018FEA94E00E94140B9B012F
:103F4000AC01C701B6010E94B32720E030E04AEF80
:103F500052E40E949B286B017C0160E471E0C8017F
:103F60000E943B1060E871E0CE010E943B10D50139
:103F7000C401B058F801848B958BA68BB78B808ECB
:103F8000918EA28EB38ED701C601B0588C8B9D8BBB
:103F9000AE8BBF8BC88ED98EEA8EFB8E60E072E04E
:103FA00084E893E00E94EC138DEC9CECACE4BDE360
:103FB0008093870390938803A0938903B0938A0327
:103FC00084E893E00E94AF0D60E472E080E792E045
:103FD0000E94D91A60E872E087E692E00E94611DB3
:103FE000E1EBF0E08081887F81608083DF91CF9179
:103FF0001F910F91FF90EF90DF90CF90BF90AF9007
:104000009F908F9008958CE891E00E94CE0880E404
:1040100094E00E943E0D882349F18CE0EBE4F4E04B
:10402000AFE8B3E001900D928A95E1F780915B04CF
:1040300090915C04A0915D04B0915E04409157049E
:10404000509158046091590470915A0440930C04A3
:1040500050930D0460930E0470930F04809310042A
:1040600090931104A0931204B093130484E893E096
:104070000E943E0D882301F18091AB039091AC0327
:10408000A091AD03B091AE034091A7035091A80356
:104090006091A9037091AA034093140450931504EE
:1040A0006093160470931704809318049093190476
:1040B000A0931A04B0931B0481E094E00C943E0D8D
:1040C000CF92DF92EF92FF92CF93DF9326E731E01A
:1040D0003093C5042093C4041092C6041092C70400
:1040E0001092C8041092C9041092CA0483E899EF90
:1040F000A2E2BEE38093CB049093CC04A093CD04C2
:10410000B093CE04C12CD12C40E8E42E4FE3F42E22
:10411000C092CF04D092D004E092D104F092D204A5
:104120003093B0042093AF041092B1041092B20403
:104130001092B3041092B4041092B5048093B604A4
:104140009093B704A093B804B093B904C092BA0492
:10415000D092BB04E092BC04F092BD0422E231E0B4
:1041600030938C0420938B0410928D0410928E0453
:1041700010928F0410929004109291041092920465
:104180001092930410929404809395049093960453
:10419000A0939704B093980448EE53E060E070E079
:1041A0004093990450939A0460939B0470939C04E9
:1041B00030936804209367041092690410926A0493
:1041C00010926B0410926C0410926D0410926E04A5
:1041D00010926F0410927004809371049093720493
:1041E000A0937304B09374044093750450937604C1
:1041F0006093770470937804C8E6D1E0D0934104CB
:10420000C09340040E94C122609347047093480405
:104210008093490490934A048EE291E09093410484
:104220008093400410924B0410924C0410924D0461
:1042300010924E0410924F041092500410925104A8
:104240001092520410925304109254041092550488
:1042500010925604D0930204C09301040E94C1221C
:10426000609308047093090480930A0490930B04EC
:104270001092140410921504109216041092170450
:10428000109218041092190410921A0410921B0430
:10429000C0921C04D0921D04E0921E04F0921F04F0
:1042A0008CE391E09093020480930104109228041F
:1042B0001092290410922A0410922B0410922C04BC
:1042C00010922D0410922E0410922F0480E090E0A2
:1042D000A0E8BFE78093300490933104A0933204A8
:1042E000B09333048093340490933504A093360440
:1042F000B09337048093380490933904A0933A0420
:10430000B0933B0480933C0490933D04A0933E04FF
:10431000B0933F04C092ED03D092EE03E092EF031E
:10432000F092F0031092F1031092F2031092F30353
:104330001092F4031092F5031092F6031092F70313
:104340001092F80340E050E060E87FEF4093F903FB
:104350005093FA036093FB037093FC038093FD0377
:104360009093FE03A093FF03B0930004C092D10387
:10437000D092D203E092D303F092D4031092D503EB
:104380001092D6031092D7031092D8031092D9033B
:104390001092DA031092DB031092DC034093DD03EA
:1043A0005093DE036093DF037093E0038093E10397
:1043B0009093E203A093E303B093E403D0938503C7
:1043C000C09384030E94C12260938B0370938C037B
:1043D00080938D0390938E038AE491E090938503FC
:1043E0008093840310928F03109290031092910394
:1043F00010929203109293031092940310929503DB
:1044000010929603109297031092980310929903BA
:1044100010929A0310929B0310929C0310929D039A
:1044200010929E0310929F031092A0031092A1037A
:104430001092A2031092A3031092A4031092A5035A
:104440001092A603C092AF03D092B003E092B103E2
:10445000F092B203C092B303D092B403E092B503DA
:10446000F092B60380E090E0AAE7B4E48093B7034B
:104470009093B803A093B903B093BA038BED9FE078
:10448000A9ECB0E48093BB039093BC03A093BD035D
:10449000B093BE0388E591E090937102809370021F
:1044A000E0E7F2E0148215821682178210861186E8
:1044B00012861386389683E0E037F80799F7109252
:1044C00075031092740381E090E0909377038093DA
:1044D000760380E691E09093680280936702DF9113
:1044E000CF91FF90EF90DF90CF90089508951F92A5
:1044F0000F920FB60F9211242F933F938F939F9398
:10450000AF93BF938091DE049091DF04A091E0040B
:10451000B091E1043091DD0423E0230F2D3720F426
:104520000196A11DB11D05C026E8230F0296A11D0D
:10453000B11D2093DD048093DE049093DF04A093EB
:10454000E004B093E1048091E2049091E304A0912F
:10455000E404B091E5040196A11DB11D8093E2042D
:104560009093E304A093E404B093E504BF91AF916A
:104570009F918F913F912F910F900FBE0F901F90A1
:1045800018953FB7F8948091E2049091E304A091CC
:10459000E404B091E50426B5A89B05C02F3F19F0AF
:1045A0000196A11DB11D3FBFBA2FA92F982F8827B3
:1045B000820F911DA11DB11DBC01CD0142E0660F0E
:1045C000771F881F991F4A95D1F70895823091056A
:1045D00038F0880F991F880F991F05970197F1F7F9
:1045E0000895789484B5826084BD84B5816084BD6B
:1045F00085B5826085BD85B5816085BDEEE6F0E05C
:10460000808181608083E1E8F0E0108280818260B7
:104610008083808181608083E0E8F0E08081816038
:104620008083E1EBF0E0808184608083E0EBF0E068
:10463000808181608083EAE7F0E08081846080830C
:1046400080818260808380818160808380818068B6
:1046500080831092C10008951F93CF93DF93182F8A
:10466000EB0161E00E94B423209711F460E004C0E4
:10467000CF3FD10539F461E0812FDF91CF911F91B8
:104680000C94F023E12FF0E0EC54FF4FE491E33081
:10469000F9F048F4E130B9F0E230A1F584B5806278
:1046A00084BDC8BD34C0E730E9F0E83019F1E4302A
:1046B00049F580918000806280938000D0938B00C8
:1046C000C0938A0024C084B5806884BDC7BD1FC064
:1046D00080918000806880938000D0938900C0938F
:1046E000880015C08091B00080688093B000C093AE
:1046F000B3000DC08091B00080628093B000C09381
:10470000B40005C0C038D1050CF0B5CFAFCFDF91F4
:10471000CF911F910895833081F028F4813099F072
:104720008230A1F008958730A9F08830B9F0843044
:10473000D1F4809180008F7D03C0809180008F77BD
:1047400080938000089584B58F7702C084B58F7DF3
:1047500084BD08958091B0008F7703C08091B00030
:104760008F7D8093B0000895CF93DF9390E0FC019C
:10477000E853FF4F2491FC01E452FF4F84918823BA
:1047800061F190E0880F991FFC01EC5FFE4FC5912D
:10479000D491FC01E650FF4FA591B491611109C07D
:1047A0009FB7F8948881209582238883EC912E23EB
:1047B0000BC0623061F49FB7F8943881822F8095E6
:1047C00083238883EC912E2B2C939FBF06C08FB739
:1047D000F894E8812E2B28838FBFDF91CF91089525
:1047E0001F93CF93DF93282F30E0F901EC54FF4F54
:1047F0008491F901E853FF4FD491F901E452FF4F3E
:10480000C491CC23C9F0162F81110E948B23EC2F69
:10481000F0E0EE0FFF1FE650FF4FA591B4918FB768
:10482000F894111105C09C91ED2FE095E92302C089
:10483000EC91ED2BEC938FBFDF91CF911F910895F9
:10484000CF93DF93282F30E0F901EC54FF4F849190
:10485000F901E853FF4FD491F901E452FF4FC4919D
:10486000CC2391F081110E948B23EC2FF0E0EE0F0E
:10487000FF1FE051FF4FA591B491EC91ED2381E032
:1048800090E021F480E002C080E090E0DF91CF91E1
:104890000895CF92DF92EF92FF920F931F93CF93E1
:1048A000DF93F82ED62FE42E07E010E0C0E087E07B
:1048B000C82ED12C61E08D2F0E94F0238F2DE110A6
:1048C0000AC00E9420249601201B310B01C0880FD2
:1048D0002A95EAF707C00E942024002E01C0880F05
:1048E0000A94EAF7C82B60E08D2F0E94F023015054
:1048F000110900F78C2FDF91CF911F910F91FF903D
:10490000EF90DF90CF9008950C9412271F920F9292
:104910000FB60F9211242F938F939F93EF93FF93D2
:10492000E091F604F091F7048081E091FC04F091AD
:10493000FD0482FD12C090818091FF048F5F8F7310
:1049400020910005821751F0E091FF04F0E0EA5158
:10495000FB4F958F8093FF0401C08081FF91EF9101
:104960009F918F912F910F900FBE0F901F901895D0
:104970001F920F920FB60F9211242F933F934F93D4
:104980005F936F937F938F939F93AF93BF93EF93B7
:10499000FF9386EE94E00E946125FF91EF91BF9115
:1049A000AF919F918F917F916F915F914F913F91C7
:1049B0002F910F900FBE0F901F90189586EE94E0E8
:1049C0000E94252521E0892B09F420E0822F0895FB
:1049D000E6EEF4E01382128288EE93E0A0E0B0E00D
:1049E00084839583A683B78380E891E09183808355
:1049F00085EC90E09587848784EC90E097878687A4
:104A000080EC90E0918B808B81EC90E0938B828B9B
:104A100082EC90E0958B848B86EC90E0978B868B74
:104A2000118E128E138E148E089508950E94F12215
:104A30000E9415250E945E1EC3E5D5E20E94032058
:104A40002097E1F30E945325F9CFFC01918D228D2F
:104A5000892F90E0805C9F4F821B91098F7399276B
:104A60000895FC01918D828D981731F0828DE80FA9
:104A7000F11D858D90E008958FEF9FEF0895FC0163
:104A8000918D828D981761F0828DDF01A80FB11D85
:104A90005D968C91928D9F5F9F73928F90E00895A9
:104AA0008FEF9FEF08958EED94E2892B49F080E01F
:104AB00090E0892B29F00E94DE2481110C940000E3
:104AC0000895FC01848DDF01A80FB11DA35ABF4FCB
:104AD0002C91848D90E001968F739927848FA689FD
:104AE000B7892C93A089B1898C9180648C93938D24
:104AF000848D981306C00288F389E02D80818F7D14
:104B000080830895CF93DF93EC01888D8823C9F0CB
:104B1000EA89FB89808185FD05C0A889B9898C91C6
:104B200086FD0FC00FB607FCF5CF808185FFF2CF61
:104B3000A889B9898C9185FFEDCFCE010E946125AE
:104B4000E7CFDF91CF910895EF92FF920F931F93DC
:104B5000CF93DF93EC0181E0888F9B8D8C8D981330
:104B600005C0E889F989808185FD24C0F62E0B8D6A
:104B700010E00F5F1F4F0F731127E02E8C8DE8128E
:104B80000CC00FB607FCFACFE889F989808185FF50
:104B9000F5CFCE010E946125F1CF8B8DFE01E80F8C
:104BA000F11DE35AFF4FF0820B8FEA89FB89808168
:104BB000806207C0EE89FF896083E889F989808176
:104BC0008064808381E090E0DF91CF911F910F910D
:104BD000FF90EF900895CF92DF92EF92FF921F9394
:104BE000CF93DF93EC016A017B01122FE889F989E9
:104BF00082E080834115514E61057105B1F060E09E
:104C000079E08DE390E0A70196010E94A42BDA01E0
:104C1000C9010197A109B109B695A79597958795FF
:104C2000AC01411580E15807A8F0E889F9891082A4
:104C300060E874E88EE190E0A70196010E94A42B41
:104C4000BA01A90141505109610971097695679529
:104C500057954795EC85FD855083EE85FF8540830C
:104C6000188EEC89FD891083EA89FB898081806137
:104C70008083EA89FB89808188608083EA89FB8957
:104C8000808180688083EA89FB8980818F7D808331
:104C9000DF91CF911F91FF90EF90DF90CF9008951B
:104CA0000E94AA27CF92DF92EF92FF920F931F9359
:104CB000CF93DF936C017A018B01C0E0D0E0CE1579
:104CC000DF0589F0D8016D918D01D601ED91FC9140
:104CD0000190F081E02DC6010995892B11F47E0128
:104CE00002C02196ECCFC701DF91CF911F910F91A8
:104CF000FF90EF90DF90CF900895CF93DF938230B5
:104D0000910510F482E090E0E0918505F091860530
:104D100020E030E0C0E0D0E0309711F140815181D7
:104D200048175907C0F04817590761F482819381E9
:104D3000209719F09B838A832BC0909386058093DC
:104D4000850526C02115310519F04217530718F4BF
:104D50009A01BE01DF01EF010280F381E02DDCCF7B
:104D60002115310509F1281B390B2430310590F448
:104D700012968D919C9113976115710521F0FB019D
:104D80009383828304C09093860580938505FD01FB
:104D9000329644C0FD01E20FF31F8193919322509C
:104DA00031092D933C933AC02091830530918405BD
:104DB000232B41F4209102013091030130938405AB
:104DC00020938305209100013091010121153105C7
:104DD00041F42DB73EB74091040150910501241BC9
:104DE000350BE0918305F0918405E217F307A0F4F9
:104DF0002E1B3F0B2817390778F0AC014E5F5F4F31
:104E00002417350748F04E0F5F1F509384054093D9
:104E100083058193919302C0E0E0F0E0CF01DF9140
:104E2000CF9108950F931F93CF93DF93009709F4C9
:104E30008CC0FC013297138212820091850510917B
:104E400086050115110581F420813181820F931FA0
:104E500020918305309184052817390779F5F0935F
:104E60008405E093830571C0D80140E050E0AE179F
:104E7000BF0750F412962D913C911397AD01211567
:104E8000310509F1D901F3CF9D01DA013383228382
:104E900060817181860F971F8217930769F4EC0177
:104EA00028813981260F371F2E5F3F4F31832083A2
:104EB0008A819B8193838283452B29F4F093860515
:104EC000E093850542C01396FC93EE931297ED0193
:104ED000499159919E01240F351FE217F30771F490
:104EE00080819181840F951F029611969C938E93D9
:104EF0008281938113969C938E931297E0E0F0E069
:104F0000D80112968D919C911397009719F0F80192
:104F10008C01F6CF8D919C9198012E5F3F4F820FAF
:104F2000931F20918305309184052817390769F470
:104F3000309729F4109286051092850502C01382DD
:104F400012821093840500938305DF91CF911F9106
:104F50000F91089581E090E0F8940C94E22BF8947E
:104F60000C94E22B5058BB27AA270E94CA270C9406
:104F70006F2A0E94362A38F00E943D2A20F039F428
:104F80009F3F19F426F40C940C2A0EF4E095E7FBED
:104F90000C94F829E92F0E94942A58F3BA17620753
:104FA00073078407950720F079F4A6F50C94B62AC8
:104FB0000EF4E0950B2EBA2FA02D0B01B901900134
:104FC0000C01CA01A0011124FF27591B99F0593F78
:104FD00050F4503E68F11A16F040A22F232F342FC0
:104FE0004427585FF3CF469537952795A795F0400E
:104FF0005395C9F77EF41F16BA0B620B730B840B23
:10500000BAF09150A1F0FF0FBB1F661F771F881FDA
:10501000C2F70EC0BA0F621F731F841F48F4879532
:1050200077956795B795F7959E3F08F0B0CF939524
:10503000880F08F09927EE0F9795879508950E949D
:10504000362A60F080E891E009F49EEF0E943D2A44
:1050500028F040E851E071F45EEF0CC00C940C2A8B
:105060000C94B62AE92FE0780E94942A40F3092E86
:10507000052AB1F3261737074807590738F00E2ECF
:1050800007F8E02569F0E025E0640AC0EF6307F85F
:10509000009407FADB01B9019D01DC01CA01AD01F1
:1050A000EF930E94B2280E946F2A0E9462285F91AB
:1050B000552339F02BED3FE049E450FD49EC0C94C9
:1050C000B3270895DF93DD27B92FBF7740E85FE36B
:1050D0001616170648075B0718F4D92F0E94C22A34
:1050E0009F938F937F936F930E94852BE8E6F0E068
:1050F0000E940F2A0E946F2A2F913F914F915F913A
:105100000E94DD2ADD2351F09058A2EA2AED3FE00B
:1051100049EC5FE3D0785D270E94CA27DF910C94A9
:105120006F2A0E94D42908F481E008950E94462A3B
:10513000E3950C94802A0E94AF280C946F2A0E9459
:105140003D2A58F00E94362A40F029F45F3F29F0AA
:105150000C94F82951110C94B72A0C940C2A0E9433
:10516000942A68F39923B1F3552391F3951B550BBA
:10517000BB27AA2762177307840738F09F5F5F4F2A
:10518000220F331F441FAA1FA9F335D00E2E3AF069
:10519000E0E832D091505040E695001CCAF72BD081
:1051A000FE2F29D0660F771F881FBB1F26173707D2
:1051B0004807AB07B0E809F0BB0B802DBF01FF2704
:1051C00093585F4F3AF09E3F510578F00C94F829C0
:1051D0000C94B72A5F3FE4F3983ED4F38695779515
:1051E0006795B795F7959F5FC9F7880F911D9695BD
:1051F000879597F90895E1E0660F771F881FBB1F19
:10520000621773078407BA0720F0621B730B840BC5
:10521000BA0BEE1F88F7E09508950E941429689450
:10522000B1110C94B72A08950E949C2A88F09F57C8
:1052300098F0B92F9927B751B0F0E1F0660F771FBA
:10524000881F991F1AF0BA95C9F714C0B13091F0B0
:105250000E94B62AB1E008950C94B62A672F782FE1
:105260008827B85F39F0B93FCCF386957795679575
:10527000B395D9F73EF490958095709561957F4FE1
:105280008F4F9F4F0895E89409C097FB3EF4909587
:105290008095709561957F4F8F4F9F4F9923A9F00F
:1052A000F92F96E9BB279395F6958795779567959E
:1052B000B795F111F8CFFAF4BB0F11F460FF1BC0E2
:1052C0006F5F7F4F8F4F9F4F16C0882311F096E975
:1052D00011C0772321F09EE8872F762F05C0662323
:1052E00071F096E8862F70E060E02AF09A95660FDC
:1052F000771F881FDAF7880F9695879597F9089595
:105300000E94362A20F019F00E943D2A50F40C9495
:105310000C2A0C94B72AE92F0E94942A88F355236B
:10532000B1F3E7FB6217730784079507A8F189F3C8
:10533000E92FFF2788232AF03197660F771F881FF0
:10534000DAF7952F5527442332F091505040220F21
:10535000331F441FD2F7BB27E91BF50B621B730BEE
:10536000840BB109B1F222F4620F731F841FB11DC7
:1053700031972AF0660F771F881FBB1FEFCF915020
:10538000504062F041F0882332F0660F771F881F8B
:1053900091505040C1F793950C94FE2986957795CE
:1053A00067959F5FD9F7F7CF990F0008550FAA0BA4
:1053B000E0E8FEEF16161706E807F907C0F0121628
:1053C0001306E407F50798F0621B730B840B950B2B
:1053D00039F40A2661F0232B242B252B21F4089580
:1053E0000A2609F4A140A6958FEF811D811D08951D
:1053F00097F99F6780E870E060E008959F3F31F083
:10540000915020F4879577956795B795880F911DF2
:105410009695879597F908959FEF80EC0895DF930F
:10542000CF931F930F93FF92EF92DF927B018C013A
:10543000689406C0DA2EEF010E94DD2AFE01E8948E
:10544000A5912591359145915591A6F3EF010E94C3
:10545000CA27FE019701A801DA9469F7DF90EF905F
:10546000FF900F911F91CF91DF91089500240A942E
:105470001616170618060906089500240A9412162F
:1054800013061406050608950C940C2A0E949C2A03
:10549000D8F3E894E0E0BB279F57F0F02AED3FE017
:1054A00049EC06C0EE0FBB0F661F771F881F28F060
:1054B000B23A62077307840728F0B25A620B730B83
:1054C000840BE3959A9572F7803830F49A95BB0F68
:1054D000661F771F881FD2F790480C94002A092E68
:1054E0000394000C11F4882352F0BB0F40F4BF2B3F
:1054F00011F460FF04C06F5F7F4F8F4F9F4F08957F
:10550000EF93E0FF07C0A2EA2AED3FE049EC5FEB32
:105510000E94CA270E946F2A0F90039401FC9058A2
:10552000E5E9F0E00C94902B57FD9058440F551F7F
:1055300059F05F3F71F04795880F97FB991F61F015
:105540009F3F79F087950895121613061406551F8C
:10555000F2CF4695F1DF08C0161617061806991FF8
:10556000F1CF86957105610508940895E894BB27ED
:1055700066277727CB0197F908950E94D42908F46C
:105580008FEF08959B01AC0160E070E080E89FE33D
:105590000C949B280E94DD2A0C946F2A0E94362AC4
:1055A00038F00E943D2A20F0952311F00C94F82940
:1055B0000C940C2A11240C94B72A0E94942A70F39C
:1055C000959FC1F3950F50E0551F629FF001729FA8
:1055D000BB27F00DB11D639FAA27F00DB11DAA1FB7
:1055E000649F6627B00DA11D661F829F2227B00D04
:1055F000A11D621F739FB00DA11D621F839FA00D8F
:10560000611D221F749F3327A00D611D231F849FDE
:10561000600D211D822F762F6A2F11249F57504035
:105620009AF0F1F088234AF0EE0FFF1FBB1F661FB0
:10563000771F881F91505040A9F79E3F510580F079
:105640000C94F8290C94B72A5F3FE4F3983ED4F306
:10565000869577956795B795F795E7959F5FC1F71D
:10566000FE2B880F911D9695879597F908959F9326
:105670000E94462A0F9007FCEE5F0C94802A19F4D2
:1056800016F40C940C2A0C94FE290E949C2AB8F360
:105690009923C9F3B6F39F57550B87FF0E94892BB7
:1056A0000024A0E640EA900180585695979528F48A
:1056B000805C660F771F881F20F026173707480782
:1056C00030F4621B730B840B202931294A2BA695D9
:1056D00017940794202531254A2758F7660F771F1E
:1056E000881F20F026173707480730F4620B730B2A
:1056F000840B200D311D411DA09581F7B901842F28
:105700009158880F9695879508959B01AC010C944C
:10571000CA2A91505040660F771F881FD2F708950C
:105720009F938F937F936F93FF93EF939B01AC01B4
:105730000E94CA2AEF91FF910E940F2A2F913F9158
:105740004F915F910C94CA2AA1E21A2EAA1BBB1B8F
:10575000FD010DC0AA1FBB1FEE1FFF1FA217B3073D
:10576000E407F50720F0A21BB30BE40BF50B661F53
:10577000771F881F991F1A9469F760957095809517
:1057800090959B01AC01BD01CF010895EE0FFF1F65
:105790000590F491E02D0994F999FECF92BD81BD59
:1057A000F89A992780B50895262FF999FECF1FBA48
:1057B00092BD81BD20BD0FB6F894FA9AF99A0FBE3A
:1057C0000196089510E0CAE8D0E004C0FE010E94EE
:0E57D000C62B2196CB38D107C9F7F894FFCF2E
:1057DE0000008705800001000000776865656C6534
:1057EE0064626173650000000000DD075D08000063
:1057FE000000A90BAA0B7C0C910B00000000C10D40
:10580E00A50EC20DBF0DC00D0000000023113411F6
:10581E0037122411C00D00000000761377136613A3
:10582E007513C00D000000007D185214000000001A
:10583E002D1B2A1B00000000000000005026BF0D8B
:10584E00C00D00000000541E5C1E551E000000001E
:0C585E00A425522625253F253125822552
:00000001FF
