:100000000C9465000C948D000C948D000C948D0064
:100010000C948D000C948D000C948D000C948D002C
:100020000C948D000C948D000C948D000C94AD0BF1
:100030000C948D000C948D000C948D000C948D000C
:100040000C94CC070C948D000C94A0090C94D2094C
:100050000C948D000C948D000C948D000C948D00EC
:100060000C948D000C948D0000000008000201002B
:100070000003040700000000000000000102040863
:100080001020408001020408102001020408102002
:10009000040404040404040402020202020203032E
:1000A00003030303000000002300260029000000D2
:1000B0000000250028002B0000000000240027007D
:1000C0002A0007046D07020ACB0711241FBECFEFD9
:1000D000D8E0DEBFCDBF11E0A0E0B1E0E4E0F5E2A2
:1000E00002C005900D92A836B107D9F723E0A8E623
:1000F000B1E001C01D92A434B207E1F710E0C4E6FC
:10010000D0E004C02197FE010E944A12C136D107F7
:10011000C9F70E94300A0C94A10F0C940000CF93F1
:10012000DF93DB01ED91FC911197CF0102968D9346
:100130009C93C081D181D7FD16C089E492E00E94D2
:10014000340E811106C061E170E08EE392E00E94FE
:10015000EA0581E080935602BE0189E492E0DF91D6
:10016000CF910C94550D8EE392E0DF91CF910C94DA
:10017000F505CF93DF93DB01ED91FC911197CF0152
:1001800002968D939C93C081D181D7FD13C089E4E1
:1001900092E00E94340E811106C061E170E08EE3AE
:1001A00092E00E94EA05BE018EE392E0DF91CF91DA
:1001B0000C94C305DF91CF910895DB01ED91FC9183
:1001C0001197CF0104968D939C9380819181A28198
:1001D000B38180934E0290934F02A0935002B0934C
:1001E000510208950F931F93CF93DF9300D000D057
:1001F000CDB7DEB7DB01ED91FC9111970081118144
:10020000CF0106968D939C93228133814481558141
:1002100017FD25C082E392E029833A834B835C83F8
:100220000E94340E29813A814B815C8181110AC080
:1002300063E170E087E292E00E9453065C814B81AB
:100240003A812981B80187E292E00F900F900F90D8
:100250000F90DF91CF911F910F910C94280687E2A8
:1002600092E00F900F900F900F90DF91CF911F9120
:100270000F910C945606CF93DF93EA0185E292E04A
:100280000E941B0490E0E881F98181939193F983A6
:10029000E883DF91CF910895CF93DF93EA0183E262
:1002A00092E00E941B0490E0E881F9818193919390
:1002B000F983E883DF91CF910895CF92DF92EF9297
:1002C000FF92CF93DF93EA01DB01ED91FC9111974F
:1002D000CF0104968D939C93C080D180E280F380FF
:1002E00089E492E00E94340E882331F089E492E0A0
:1002F0000E94CF0D0697D4F4C0925E02D0925F02A6
:10030000E0926002F09261028BE592E00E943C0470
:1003100020E030E0A901C701B6010E947011181653
:1003200094F48EE392E00E94F5050DC080E0E88130
:10033000F9818193F983E883DF91CF91FF90EF906A
:10034000DF90CF90089581E0F2CFCF93DF9380913B
:100350005E0290915F02A0916002B0916102EA0199
:10036000E881F98181939193A193B193F983E88313
:10037000DF91CF910895DA01ED91FC91119781E021
:100380008193ED93FC930895CF93DF9300D0CDB785
:10039000DEB71A8219826983DC01ED91FC9102803B
:1003A000F381E02D42E050E0BE016F5F7F4F099581
:1003B0000F900F90DF91CF910895AF92BF92CF929F
:1003C000DF92EF92FF920F931F93CF93DF9300D0B2
:1003D00000D0CDB7DEB749835A836B837C83FC01A1
:1003E000A489B589109719F04689411103C080E0AE
:1003F00090E03BC059016C01ED91FC911197019087
:10040000F081E02D61E4CD0109957C01D60154967F
:100410008D919C915597DC01ED91FC9164E0600F0A
:100420000190F081E02D0995E80EF91EF60184890E
:100430009589DC01ED91FC910280F381E02D44E08F
:1004400050E0BE016F5F7F4F0995E80EF91EF6017F
:1004500084899589DC01ED91FC910280F381E02D86
:10046000A801B50109958E0D9F1D0F900F900F905B
:100470000F90DF91CF911F910F91FF90EF90DF9040
:10048000CF90BF90AF9008950F931F939B018A0167
:100490000F5F1F4FFC014681578160857185848104
:1004A00095810E94DD011F910F910895603138F40C
:1004B000FC01E60FF11DE60FF11D508F478B0895EB
:1004C0008F929F92AF92BF92CF92DF92EF92FF9264
:1004D0000F931F93CF93DF9300D000D0CDB7DEB73B
:1004E0006C0127E7C20ED11CDA82C982FB01208190
:1004F000AB014B5F5F4F5C834B8381809280A38015
:10050000B480FC01E20FF11DE20FF11D0788F08DB0
:10051000E02D3097B1F07C01AE014F5F5F4FBE011F
:100520006D5F7F4F099509811A81C016D10658F475
:100530000C191D099601B501A401C7010E94DD0136
:1005400002C080E001C081E00F900F900F900F90EB
:10055000DF91CF911F910F91FF90EF90DF90CF909F
:10056000BF90AF909F908F9008952F923F924F929F
:100570005F926F927F928F929F92AF92BF92CF9233
:10058000DF92EF92FF920F931F93CF93DF932C0193
:10059000DC0154968D919C915597DC01ED91FC9175
:1005A0000480F581E02D09956C01612C712C212CC2
:1005B000E201C954DF4F7201B9EBEB0EF11C82016D
:1005C00006541F4F332433945201E7E3AE0EB11C9F
:1005D00088248394912C6C147D040CF044C0D201C7
:1005E00054968D919C915597DC01ED91FC9106807C
:1005F000F781E02D0995982F288139812130310527
:1006000051F022303105A9F0232B49F5823539F517
:100610009982888224C0F7018083D8011C9281349A
:1006200018F080E090E002C082E090E09983888337
:1006300016C0F801208181E0820F8083F201E20F71
:10064000F11D97ABD7019C91891748F0F201368ACA
:10065000B501C2010E946002282A19821882FFEFA8
:100660006F1A7F0AB8CF822DDF91CF911F910F9122
:10067000FF90EF90DF90CF90BF90AF909F908F90C2
:100680007F906F905F904F903F902F9008950F93C1
:100690001F93CF93DF938B01C0E0D0E0CE010E9487
:1006A0005F12F80181938F01882349F08F3F29F071
:1006B0002196C115F4E0DF0789F780E001C081E0F1
:1006C000DF91CF911F910F9108950F931F93CF93B7
:1006D000DF93CDB7DEB7A0970FB6F894DEBF0FBE9D
:1006E000CDBF8A01BE016F5F7F4F88E691E00E9417
:1006F0004703FE013196AF012191D8018D919C9164
:10070000DC012C93D8018D919C91119701968D93CA
:100710009C93DA018C918111EECFA0960FB6F894DC
:10072000DEBF0FBECDBFDF91CF911F910F91089516
:10073000EF92FF920F931F93CF93DF938B01EB0107
:100740007E01CE01801B910B69910E946712F70117
:1007500080818111F5CFDF91CF911F910F91FF9093
:10076000EF900895CF93DF93EC017D8B6C8B1E8A05
:100770009D838C838FEF9FEFDC018E839F83A887FF
:10078000B987DF87CE878EEF9FEFAFEFBFEF888B04
:10079000998BAA8BBB8B6AE071E0CE010E94980313
:1007A0008BEB91E0988F8F8B85E693E09A8F898F02
:1007B0008FED93E09C8F8B8FDF91CF910895CF9336
:1007C000DF93CDB7DEB7A0970FB6F894DEBF0FBEAC
:1007D000CDBF9B01FE013196BF01D9014D915C91C6
:1007E0001197CA0101968D939C93DA018C918193A4
:1007F0008111F3CF88E691E00E949803A0960FB68E
:10080000F894DEBF0FBECDBFDF91CF910895E8E62B
:10081000F1E0138212828FE191E09183808315864B
:100820001486938782870895FC01862F60837183E5
:1008300062E00C940909FC0180810E94750921E0A5
:10084000892B09F020E0822F0895CF93DF93EC01EC
:10085000862F6F87788B5A8B498B3C8B2B8B61E073
:100860000E94090961E089890E94090961E08B8978
:10087000DF91CF910C940909CF92DF92EF92FF9212
:100880000F931F93CF93DF93EC01CB80DC80ED803F
:10089000FE8020E030E0A901C701B6010E941110DE
:1008A000882309F451C02BED3FE049EC50E46F81FF
:1008B000788589859A850E9475119B01AC01C701D5
:1008C000B6010E9416102B853C854D855E850E94E1
:1008D000751120E030E04FE753E40E9475110E944B
:1008E00088108B0177FF04C000271127061B170B08
:1008F00061E08F850E944509B8010F3F110519F08D
:1009000014F06FEF70E089890E9481082B853C8587
:100910004D855E856B817C818D819E810E947511E4
:100920002F81388549855A850E94751111E020E094
:1009300030E0A9010E94701118160CF010E081E05F
:10094000612F68278B8902C060E08F85DF91CF918E
:100950001F910F91FF90EF90DF90CF900C9445097D
:10096000CF93DF93EC01862F688379835B834A837F
:1009700061E00E94090960E08A81DF91CF910C94C7
:100980000909CF93DF93EC0160E088810E9445095B
:100990008AE090E00E943B0861E08881DF91CF917E
:1009A0000C944509CF92DF92EF92FF921F93CF9361
:1009B000DF93FC0112811123D9F0EC010E9416088B
:1009C000CF80D884E984FA846C197D098E099F0947
:1009D0000E94BE1020E034E244E759E40E94161061
:1009E0002B813C814D815E810E947011181614F09C
:1009F00010E025C00E9416086B017C018F8198854C
:100A0000A985BA85A7019601281B390B4A0B5B0BF8
:100A1000CA01B9010E94BE1020E034E244E759E463
:100A20000E941610AB01BC01CF82D886E986FA86F7
:100A3000E881F9810480F581E02DCE010995812FAF
:100A4000DF91CF911F91FF90EF90DF90CF900895AD
:100A5000CF93DF93FC012281211112C0EC0181E0D0
:100A600082830E9416086F83788789879A87E88136
:100A7000F9810680F781E02DCE01DF91CF910994B5
:100A8000DF91CF9108950895089508950C949E09DB
:100A9000CF92DF92EF92FF920F931F93CF93DF934A
:100AA000FC01208D211166C0EC010E9416088E0108
:100AB000055F1F4FC98CDA8CEB8CFC8C6C197D099F
:100AC0008E099F090E94BE1020E034E244E759E4F9
:100AD0000E941610288939894A895B890E947511FC
:100AE0006B017C018E899F89BC01990F880B990B42
:100AF0000E94C0109B01AC01C701B6010E94751194
:100B00006B017C018C899D89BC01990F880B990B25
:100B10000E94C0109B01AC01C701B6010E94A50F45
:100B20000E948810C8010E94550D8E899F890196E8
:100B300041F4C8010E94CF0D6E857F856817790743
:100B400064F48E899F890197A9F4C8010E94CF0D92
:100B50006E857F85861797076CF081E0888FC801C6
:100B6000DF91CF911F910F91FF90EF90DF90CF9089
:100B70000C94550DDF91CF911F910F91FF90EF9045
:100B8000DF90CF9008950F931F93CF93DF93EC01E5
:100B90008B017F876E870E941608698F7A8F8B8FF3
:100BA0009C8FCE010B960E94CF0D9D8B8C8B188E47
:100BB000801791071CF481E090E005C00817190721
:100BC00024F48FEF9FEF9F8B8E8BDF91CF911F913E
:100BD0000F910895CF93DF93EC010B960E940C0DBB
:100BE00081E0888FDF91CF9108950B960C94120DC0
:100BF00008950F931F93CF93DF93FC012289222343
:100C000001F1EC010E9416080B891C892D893E898F
:100C1000601B710B820B930B0E94BE1020E034E22C
:100C200044E759E40E9416102E853F85488959896A
:100C30000E94701187FD05C0CE010B960E94120D17
:100C40001A8ADF91CF911F910F9108950C949E09FC
:100C50000F931F93CF93DF9300D000D0CDB7DEB7B3
:100C60008C010B9629833A834B835C830E94550D3C
:100C700081E0F801828B29813A814B815C81268752
:100C80003787408B518B0E941608F801638B748B59
:100C9000858B968B0F900F900F900F90DF91CF91D7
:100CA0001F910F9108950B960C940C0D0B960C94BC
:100CB000120D0895FC0143835483658376830C945D
:100CC0003C040C949E0926E040E052EC61E070E0A8
:100CD0008DE792E00E94050B6DE772E088E691E0F7
:100CE0000E94B20342EF50E064E088E691E00E9487
:100CF00056024FE850E065E088E691E00E94560217
:100D00004BE351E068E088E691E00E9456024CE433
:100D100051E069E088E691E00E9456024DE551E01D
:100D20006CE088E691E00E94560249EB50E066E0F4
:100D300088E691E00E9456024DED50E067E088E6BB
:100D400091E00E94560245EA51E06BE088E691E0AE
:100D50000E94560261E083E10E94090963E170E0AC
:100D600087E292E00E94530687E292E00E94280503
:100D70008DEC9CECACECBDE380932A0290932B02AB
:100D8000A0932C02B0932D0262E070E085E292E025
:100D90000E94140464E070E083E292E00E94140474
:100DA00061E081E10E94090961E170E08EE392E077
:100DB0000E94EA058EE392E00E9428058AE097ED02
:100DC000A3E2BCE38093410290934202A0934302CA
:100DD000B093440245E150E06CE070E080E792E0BF
:100DE0000E94B00480E792E00E94C10425E030E058
:100DF00043E050E066E070E08BE592E00E9425045D
:100E000087E291E8A8EBBDE38093660290936702C6
:100E1000A0936802B09369028BE592E00E943C04C3
:100E2000E1EBF0E08081887F816080838EE392E057
:100E30000E94F50587E292E00C94560688E691E060
:100E40000E94B5028EE392E00E94D20487E292E013
:100E50000E94D20485E292E00E941B04882381F064
:100E600020E030E040EC5FEB60915E0270915F0249
:100E700080916002909161020E94111087FD18C05C
:100E800083E292E00E941B04882389F020E030E096
:100E900040EC5FE360915E0270915F0280916002BE
:100EA000909161020E94701118163CF00895089507
:100EB00080E090E0A0ECBFEB04C080E090E0A0EC0C
:100EC000BFE380935E0290935F02A0936002B093B1
:100ED00061028BE592E00C943C040F931F93CF9337
:100EE000DF93EBE5F2E081E591E09183808312826C
:100EF000138214821582168283E899EFA2E2BEE380
:100F000087839087A187B28780E090E0A0E8BFE365
:100F100083879487A587B687CEE3D2E003E411E008
:100F2000198308830E9416086F83788789879A87B8
:100F300087E291E09983888389E492E00E946E0CB5
:100F40000E941608698F7A8F8B8F9C8F80E090E0CB
:100F5000A4EBB3E4888B998BAA8BBB8BC7E2D2E05E
:100F6000198308830E9416086F83788789879A8778
:100F700085E391E09983888382E392E00E946E0C7E
:100F80000E9416086B8B7C8B8D8B9E8BDF91CF9193
:100F90001F910F91089508951F920F920FB60F920F
:100FA00011242F933F938F939F93AF93BF9380917F
:100FB000750290917602A0917702B09178023091FB
:100FC000740223E0230F2D3720F40196A11DB11DDB
:100FD00005C026E8230F0296A11DB11D20937402BF
:100FE0008093750290937602A0937702B093780273
:100FF0008091790290917A02A0917B02B0917C025B
:101000000196A11DB11D8093790290937A02A0935D
:101010007B02B0937C02BF91AF919F918F913F91E2
:101020002F910F900FBE0F901F9018953FB7F89417
:101030008091790290917A02A0917B02B0917C021A
:1010400026B5A89B05C02F3F19F00196A11DB11D23
:101050003FBFBA2FA92F982F8827820F911DA11D5E
:10106000B11DBC01CD0142E0660F771F881F991F9B
:101070004A95D1F708958230910538F0880F991F6D
:10108000880F991F05970197F1F70895789484B513
:10109000826084BD84B5816084BD85B5826085BD74
:1010A00085B5816085BDEEE6F0E08081816080835A
:1010B000E1E8F0E01082808182608083808181603D
:1010C0008083E0E8F0E0808181608083E1EBF0E004
:1010D000808184608083E0EBF0E0808181608083A8
:1010E000EAE7F0E080818460808380818260808391
:1010F0008081816080838081806880831092C100BC
:1011000008951F93CF93DF93182FEB0161E00E94A6
:101110000909209711F460E004C0CF3FD10539F4EC
:1011200061E0812FDF91CF911F910C944509E12F50
:10113000F0E0E859FF4FE491E330F9F048F4E13092
:10114000B9F0E230A1F584B5806284BDC8BD34C079
:10115000E730E9F0E83019F1E43049F5809180009A
:10116000806280938000D0938B00C0938A0024C05B
:1011700084B5806884BDC7BD1FC080918000806831
:1011800080938000D0938900C093880015C080911F
:10119000B00080688093B000C093B3000DC0809110
:1011A000B00080628093B000C093B40005C0C03826
:1011B000D1050CF0B5CFAFCFDF91CF911F9108953E
:1011C000833081F028F4813099F08230A1F00895C5
:1011D0008730A9F08830B9F08430D1F48091800054
:1011E0008F7D03C0809180008F7780938000089569
:1011F00084B58F7702C084B58F7D84BD08958091BA
:10120000B0008F7703C08091B0008F7D8093B000D5
:101210000895CF93DF9390E0FC01E458FF4F2491B1
:10122000FC01E057FF4F8491882361F190E0880F23
:10123000991FFC01E854FF4FC591D491FC01E25580
:10124000FF4FA591B491611109C09FB7F8948881AF
:10125000209582238883EC912E230BC0623061F4A9
:101260009FB7F8943881822F809583238883EC91EF
:101270002E2B2C939FBF06C08FB7F894E8812E2B9E
:1012800028838FBFDF91CF9108951F93CF93DF9372
:10129000282F30E0F901E859FF4F8491F901E45813
:1012A000FF4FD491F901E057FF4FC491CC23C9F00F
:1012B000162F81110E94E008EC2FF0E0EE0FFF1FC7
:1012C000E255FF4FA591B4918FB7F894111105C065
:1012D0009C91ED2FE095E92302C0EC91ED2BEC936E
:1012E0008FBFDF91CF911F910895CF93DF93282F68
:1012F00030E0F901E859FF4F8491F901E458FF4FBC
:10130000D491F901E057FF4FC491CC2391F08111A2
:101310000E94E008EC2FF0E0EE0FFF1FEC55FF4FAE
:10132000A591B491EC91ED2381E090E021F480E06F
:1013300002C080E090E0DF91CF9108950C94040FFB
:101340001F920F920FB60F9211242F938F939F939A
:10135000EF93FF93E0918D02F0918E028081E091F6
:101360009302F091940282FD12C0908180919602C6
:101370008F5F8F7320919702821751F0E091960250
:10138000F0E0E358FD4F958F8093960201C0808175
:10139000FF91EF919F918F912F910F900FBE0F9022
:1013A0001F9018951F920F920FB60F9211242F9332
:1013B0003F934F935F936F937F938F939F93AF93DD
:1013C000BF93EF93FF938DE792E00E947B0AFF911A
:1013D000EF91BF91AF919F918F917F916F915F91AD
:1013E0004F913F912F910F900FBE0F901F90189526
:1013F0008DE792E00E943F0A21E0892B09F420E06A
:10140000822F0895EDE7F2E01382128288EE93E0D6
:10141000A0E0B0E084839583A683B7838BE591E059
:101420009183808385EC90E09587848784EC90E0BD
:101430009787868780EC90E0918B808B81EC90E0A1
:10144000938B828B82EC90E0958B848B86EC90E082
:10145000978B868B118E128E138E148E089508959D
:101460000E9446080E942F0A0E946306CDE6DAE039
:101470000E941E072097E1F30E946D0AF9CFFC013C
:10148000918D228D892F90E0805C9F4F821B910966
:101490008F7399270895FC01918D828D981731F0F3
:1014A000828DE80FF11D858D90E008958FEF9FEFFD
:1014B0000895FC01918D828D981761F0828DDF0176
:1014C000A80FB11D5D968C91928D9F5F9F73928F37
:1014D00090E008958FEF9FEF089588EF99E0892BB2
:1014E00049F080E090E0892B29F00E94F8098111F1
:1014F0000C9400000895FC01848DDF01A80FB11D3C
:10150000A35ABF4F2C91848D90E001968F73992739
:10151000848FA689B7892C93A089B1898C91806426
:101520008C93938D848D981306C00288F389E02DE7
:1015300080818F7D80830895CF93DF93EC01888D28
:101540008823C9F0EA89FB89808185FD05C0A889C7
:10155000B9898C9186FD0FC00FB607FCF5CF80814D
:1015600085FFF2CFA889B9898C9185FFEDCFCE0197
:101570000E947B0AE7CFDF91CF910895EF92FF920F
:101580000F931F93CF93DF93EC0181E0888F9B8DA6
:101590008C8D981305C0E889F989808185FD24C068
:1015A000F62E0B8D10E00F5F1F4F0F731127E02EEB
:1015B0008C8DE8120CC00FB607FCFACFE889F989C8
:1015C000808185FFF5CFCE010E947B0AF1CF8B8D04
:1015D000FE01E80FF11DE35AFF4FF0820B8FEA89FD
:1015E000FB898081806207C0EE89FF896083E8897A
:1015F000F98980818064808381E090E0DF91CF91E0
:101600001F910F91FF90EF900895CF92DF92EF928C
:10161000FF921F93CF93DF93EC016A017B01122F9E
:10162000E889F98982E080834115514E6105710591
:10163000B1F060E079E08DE390E0A70196010E94AF
:10164000FE11DA01C9010197A109B109B695A79563
:1016500097958795AC01411580E15807A8F0E88976
:10166000F989108260E874E88EE190E0A7019601A4
:101670000E94FE11BA01A901415051096109710985
:101680007695679557954795EC85FD855083EE8552
:10169000FF854083188EEC89FD891083EA89FB89D8
:1016A000808180618083EA89FB8980818860808372
:1016B000EA89FB89808180688083EA89FB8980814F
:1016C0008F7D8083DF91CF911F91FF90EF90DF900E
:1016D000CF9008954F925F926F927F92AF92BF9298
:1016E000CF92DF92EF92FF920F931F93CF93DF93EE
:1016F000CDB7DEB729013A019B01AC0124193509A8
:101700004609570989899A89AB89BC89BC01CD01F1
:101710006A197B098C099D090E94E211A8019701B1
:1017200024193509460957090E942012CA01B90136
:101730006A0D7B1D8C1D9D1DDF91CF911F910F9117
:10174000FF90EF90DF90CF90BF90AF907F906F9021
:101750005F904F9008950E949C0F1F920F920FB6BA
:101760000F9211242F933F934F935F936F937F9327
:101770008F939F93AF93BF93EF93FF9380911B033E
:1017800087FF05C010928500109284001BC0209135
:101790001B03022E000C330B80911A0390E02817D4
:1017A000390784F480911B03082E000C990BFC016F
:1017B000EE0FFF1F8E0F9F1FFC01E45EFC4F808128
:1017C00086FD15C080911B038F5F80931B032091C2
:1017D0001B03022E000C330B80911A0390E0281794
:1017E0003907C4F480911B038C3064F113C08091DD
:1017F0001B03082E000C990BFC01EE0FFF1F8E0F30
:101800009F1FFC01E45EFC4F808160E08F730E94AB
:101810004509D8CF8091840090918500049680344A
:101820009C4918F480E49CE905C080918400909163
:101830008500049690938900809388008FEF8093B1
:101840001B033BC0209184003091850080911B03D5
:10185000082E000C990BFC01EE0FFF1F8E0F9F1F2F
:10186000FC01E45EFC4F81819281820F931F909373
:1018700089008093880080911B03082E000C990B2F
:10188000FC01EE0FFF1F8E0F9F1FFC01E45EFC4F5B
:10189000808186FF12C080911B03082E000C990BDB
:1018A000FC01EE0FFF1F8E0F9F1FFC01E45EFC4F3B
:1018B000808161E08F730E944509FF91EF91BF9194
:1018C000AF919F918F917F916F915F914F913F91D8
:1018D0002F910F900FBE0F901F901895FC019091C3
:1018E0001A039C30A0F481E0890F80931A0390833F
:1018F000892F90E0FC01EE0FFF1F8E0F9F1FFC0150
:10190000E45EFC4F88EB9BE09283818308958FEF28
:1019100080830895DF92EF92FF920F931F93CF93EE
:10192000DF93EC01D62E7A01890188818C3008F092
:101930006AC061E08D2D0E9409098881E82FF0E0DE
:101940009F01220F331FE20FF31FE45EFC4F9D2D1A
:101950009F732081207CD22ED92AD08260E272E04F
:10196000AB014E195F0957FF02C04D5F5F4F5595A0
:10197000479555954795498340E659E09A01201BC4
:10198000310B37FF02C02D5F3F4F359527953595B9
:1019900027952A836CE00E94F2119CE0899FB00198
:1019A000112440E050E09A01260F371FF901EE0F95
:1019B000FF1F2E0F3F1FF901E45EFC4F908196FD43
:1019C00016C04F5F5F4F4C30510569F781110FC052
:1019D0001092800082E08093810010928500109226
:1019E0008400B19A80916F00826080936F00E881DB
:1019F000F0E0CF01880F991FE80FF91FE45EFC4F5C
:101A00008081806480838881DF91CF911F910F91C5
:101A1000FF90EF90DF90089520E639E040E252E039
:101A20000C948A0CDC01EC91F0E0CF01880F991F37
:101A3000E80FF91FE45EFC4F80818F7B808308955F
:101A4000FC0190819C3080F5818128E830E0281BE2
:101A5000310987FD3395220F331F220F331F621781
:101A600073077CF0828128E532E0281B310987FD6D
:101A70003395220F331F220F331F621773070CF4A5
:101A80009B0122503109220F331F4FB7F894892F41
:101A900090E0FC01EE0FFF1F8E0F9F1FFC01E45E24
:101AA000FC4F328321834FBF0895AF92BF92CF92F4
:101AB000DF92EF92FF920F931F93CF93DF93EC018E
:101AC000603282E078070CF03FC077FD06C0653BCE
:101AD00071052CF064EB70E002C060E070E0898179
:101AE00028E830E05901A81AB10887FDB394AA0C80
:101AF000BB1CAA0CBB1C0B2C000CCC08DD08072E51
:101B0000000C880B990B2A8108E512E0021B1109D1
:101B100027FD1395000F111F000F111F012E000C40
:101B2000220B330B3F932F931F930F9314EBE12E54
:101B3000F12C00E010E020E030E0A9010E946A0BE7
:101B40000F900F900F900F90CE01DF91CF911F91CA
:101B50000F91FF90EF90DF90CF90BF90AF900C94DB
:101B6000200DFC0180818F3FB9F090E0FC01EE0F69
:101B7000FF1F8E0F9F1FFC01E45EFC4F818192814D
:101B800033E0880F991F3A95E1F744E096958795E1
:101B90004A95E1F70296089580E090E008954F920B
:101BA0005F926F927F92AF92BF92CF92DF92EF924D
:101BB000FF920F931F93CF93DF9300D000D0CDB748
:101BC000DEB7FC01228148E552E02A01421A5108A1
:101BD00027FD5394440C551C440C551C052C000C3B
:101BE00066087708418128E830E0241B310947FD69
:101BF0003395220F331F220F331F032E000C440B8B
:101C0000550B29833A834B835C830E94B10D019667
:101C1000BC01990F880B990B1F921F921F92E4EB46
:101C2000EF93A12CB12C65018301720129813A81C6
:101C30004B815C810E946A0B0F900F900F900F9068
:101C4000CB010F900F900F900F90DF91CF911F91CC
:101C50000F91FF90EF90DF90CF90BF90AF907F906B
:101C60006F905F904F900895FC01808190E0FC019F
:101C7000EE0FFF1F8E0F9F1FFC01E45EFC4F808163
:101C800086FB882780F90895CF92DF92EF92FF922A
:101C90000F931F93CF93DF936C017A018B01C0E008
:101CA000D0E0CE15DF0589F0D8016D918D01D60108
:101CB000ED91FC910190F081E02DC6010995892BF1
:101CC00011F47E0102C02196ECCFC701DF91CF91C4
:101CD0001F910F91FF90EF90DF90CF900895CF93D9
:101CE000DF938230910510F482E090E0E0914203AE
:101CF000F091430320E030E0C0E0D0E0309711F1F4
:101D00004081518148175907C0F04817590761F4BD
:101D100082819381209719F09B838A832BC09093B3
:101D200043038093420326C02115310519F0421761
:101D3000530718F49A01BE01DF01EF010280F3811D
:101D4000E02DDCCF2115310509F1281B390B24309A
:101D5000310590F412968D919C9113976115710540
:101D600021F0FB019383828304C09093430380930B
:101D70004203FD01329644C0FD01E20FF31F81933F
:101D80009193225031092D933C933AC02091400306
:101D900030914103232B41F4209102013091030142
:101DA00030934103209340032091000130910101C1
:101DB0002115310541F42DB73EB7409104015091F2
:101DC0000501241B350BE0914003F0914103E2171C
:101DD000F307A0F42E1B3F0B2817390778F0AC014E
:101DE0004E5F5F4F2417350748F04E0F5F1F50932B
:101DF0004103409340038193919302C0E0E0F0E0FF
:101E0000CF01DF91CF9108950F931F93CF93DF936D
:101E1000009709F48CC0FC01329713821282009162
:101E20004203109143030115110581F42081318192
:101E3000820F931F209140033091410328173907E7
:101E400079F5F0934103E093400371C0D80140E07D
:101E500050E0AE17BF0750F412962D913C911397A6
:101E6000AD012115310509F1D901F3CF9D01DA0149
:101E70003383228360817181860F971F82179307B6
:101E800069F4EC0128813981260F371F2E5F3F4FFF
:101E9000318320838A819B8193838283452B29F41C
:101EA000F0934303E093420342C01396FC93EE93F6
:101EB0001297ED01499159919E01240F351FE217A8
:101EC000F30771F480819181840F951F029611961A
:101ED0009C938E938281938113969C938E931297F9
:101EE000E0E0F0E0D80112968D919C911397009755
:101EF00019F0F8018C01F6CF8D919C9198012E5F1D
:101F00003F4F820F931F20914003309141032817C8
:101F1000390769F4309729F4109243031092420371
:101F200002C0138212821093410300934003DF9199
:101F3000CF911F910F91089581E090E0F8940C9457
:101F40007512F8940C9475125058BB27AA270E945A
:101F5000BC0F0C9436110E94281138F00E942F11EA
:101F600020F039F49F3F19F426F40C9425110EF457
:101F7000E095E7FB0C941F11E92F0E94471158F3DD
:101F8000BA17620773078407950720F079F4A6F55E
:101F90000C9469110EF4E0950B2EBA2FA02D0B01B5
:101FA000B90190010C01CA01A0011124FF27591B9E
:101FB00099F0593F50F4503E68F11A16F040A22FA4
:101FC000232F342F4427585FF3CF46953795279515
:101FD000A795F0405395C9F77EF41F16BA0B620B14
:101FE000730B840BBAF09150A1F0FF0FBB1F661F5B
:101FF000771F881FC2F70EC0BA0F621F731F841F9E
:1020000048F4879577956795B795F7959E3F08F0C3
:10201000B0CF9395880F08F09927EE0F9795879585
:1020200008950E94FB1008F481E008950E942A1090
:102030000C9436110E942F1158F00E94281140F084
:1020400029F45F3F29F00C941F1151110C946A116F
:102050000C9425110E94471168F39923B1F355237D
:1020600091F3951B550BBB27AA27621773078407AB
:1020700038F09F5F5F4F220F331F441FAA1FA9F341
:1020800035D00E2E3AF0E0E832D091505040E6952F
:10209000001CCAF72BD0FE2F29D0660F771F881F90
:1020A000BB1F261737074807AB07B0E809F0BB0B83
:1020B000802DBF01FF2793585F4F3AF09E3F510597
:1020C00078F00C941F110C946A115F3FE4F3983E72
:1020D000D4F3869577956795B795F7959F5FC9F780
:1020E000880F911D9695879597F90895E1E0660F01
:1020F000771F881FBB1F621773078407BA0720F07A
:10210000621B730B840BBA0BEE1F88F7E0950895E2
:102110000E948F106894B1110C946A1108950E9466
:102120004F1188F09F5798F0B92F9927B751B0F009
:10213000E1F0660F771F881F991F1AF0BA95C9F74B
:1021400014C0B13091F00E946911B1E008950C946F
:102150006911672F782F8827B85F39F0B93FCCF322
:10216000869577956795B395D9F73EF490958095C8
:10217000709561957F4F8F4F9F4F0895E89409C0E8
:1021800097FB3EF490958095709561957F4F8F4FAA
:102190009F4F9923A9F0F92F96E9BB279395F695C0
:1021A000879577956795B795F111F8CFFAF4BB0F3E
:1021B00011F460FF1BC06F5F7F4F8F4F9F4F16C0A2
:1021C000882311F096E911C0772321F09EE8872F2C
:1021D000762F05C0662371F096E8862F70E060E0E8
:1021E0002AF09A95660F771F881FDAF7880F969561
:1021F000879597F90895990F0008550FAA0BE0E805
:10220000FEEF16161706E807F907C0F012161306B8
:10221000E407F50798F0621B730B840B950B39F4F8
:102220000A2661F0232B242B252B21F408950A265E
:1022300009F4A140A6958FEF811D811D089597F99E
:102240009F6780E870E060E008959FEF80EC08955C
:1022500000240A9416161706180609060895002485
:102260000A9412161306140605060895092E0394FF
:10227000000C11F4882352F0BB0F40F4BF2B11F473
:1022800060FF04C06F5F7F4F8F4F9F4F089557FDD2
:102290009058440F551F59F05F3F71F04795880FD4
:1022A00097FB991F61F09F3F79F08795089512166B
:1022B00013061406551FF2CF4695F1DF08C0161617
:1022C00017061806991FF1CF8695710561050894C8
:1022D0000895E894BB2766277727CB0197F90895DF
:1022E0000E94FB1008F48FEF08950E9488110C944F
:1022F00036110E94281138F00E942F1120F09523EA
:1023000011F00C941F110C94251111240C946A11D6
:102310000E94471170F3959FC1F3950F50E0551F30
:10232000629FF001729FBB27F00DB11D639FAA272A
:10233000F00DB11DAA1F649F6627B00DA11D661F79
:10234000829F2227B00DA11D621F739FB00DA11D9A
:10235000621F839FA00D611D221F749F3327A00D54
:10236000611D231F849F600D211D822F762F6A2FF0
:1023700011249F5750409AF0F1F088234AF0EE0F55
:10238000FF1FBB1F661F771F881F91505040A9F782
:102390009E3F510580F00C941F110C946A115F3F11
:1023A000E4F3983ED4F3869577956795B795F795BE
:1023B000E7959F5FC1F7FE2B880F911D9695879536
:1023C00097F90895DB018F939F930E943F12BF916D
:1023D000AF91A29F800D911DA39F900DB29F900D74
:1023E00011240895991B79E004C0991F961708F0ED
:1023F000961B881F7A95C9F780950895A1E21A2E39
:10240000AA1BBB1BFD010DC0AA1FBB1FEE1FFF1F98
:10241000A217B307E407F50720F0A21BB30BE40BE8
:10242000F50B661F771F881F991F1A9469F760952F
:102430007095809590959B01AC01BD01CF010895E9
:10244000052E97FB1EF400940E94371257FD07D00B
:102450000E94FE1107FC03D04EF40C9437125095E5
:102460004095309521953F4F4F4F5F4F0895909580
:102470008095709561957F4F8F4F9F4F08950E9473
:102480005012A59F900DB49F900DA49F800D911D9B
:1024900011240895EE0FFF1F0590F491E02D09948B
:1024A000A29FB001B39FC001A39F700D811D112495
:1024B000911DB29F700D811D1124911D0895F999F0
:1024C000FECF92BD81BDF89A992780B50895262F39
:1024D000F999FECF1FBA92BD81BD20BD0FB6F89409
:1024E000FA9AF99A0FBE0196089510E0C4E6D0E07A
:1024F00004C0FE010E944A122196C536D107C9F7D1
:04250000F894FFCF7D
:10250400000044038000010000006D6F64756C6579
:1025140073636F6C6C6563746F720000000000C4B9
:1025240001440200000000450546054805430544F2
:102534000500000000F8052606F9054305440500DA
:1025440000000000000000AB0B4305440500000040
:1025540000590661065A0600000000BE0A440E3FF8
:082564000A590A4B0A9C0A0007
:00000001FF
