:100000000C9463000C948B000C948B000C948B006C
:100010000C948B000C948B000C948B000C948B0034
:100020000C948B000C948B000C948B000C941A098C
:100030000C948B000C948B000C948B000C948B0014
:100040000C94E4060C948B000C9423030C94FD0296
:100050000C948B000C948B000C948B000C948B00F4
:100060000C948B000C948B000000000023002600F1
:10007000290000000000240027002A0000000000E2
:10008000250028002B0004040404040404040202D4
:100090000202020203030303030301020408102007
:1000A0004080010204081020010204081020000012
:1000B0000008000201000003040700000000000027
:1000C00000006D0D6C0D11241FBECFEFD8E0DEBF18
:1000D000CDBF23E0A6E7B1E001C01D92A436B20770
:1000E000E1F711E0A0E0B1E0E2E1F5E202C0059045
:1000F0000D92A637B107D9F710E0C2E6D0E004C0F0
:100100002197FE010E948A0EC136D107C9F70E94CD
:10011000650A0C9400120C940000DB01ED91FC9137
:100120001197CF0104968D939C9380819181A28138
:10013000B3818093790290937A02A0937B02B0936B
:100140007C020895CF93DF938091890290918A0277
:10015000A0918B02B0918C02EA01E881F981819330
:100160009193A193B193F983E883DF91CF9108959F
:10017000DA01ED91FC91119781E08193ED93FC936D
:100180000895CF92DF92EF92FF920F931F93CF9338
:10019000DF936C017A018B01C0E0D0E0CE15DF0562
:1001A00089F0D8016D918D01D601ED91FC910190FE
:1001B000F081E02DC6010995892B11F47E0102C062
:1001C0002196ECCFC701DF91CF911F910F91FF9046
:1001D000EF90DF90CF900895833081F028F4813044
:1001E00099F08230A1F008958730A9F08830B9F0F5
:1001F0008430D1F4809180008F7D03C08091800095
:100200008F7780938000089584B58F7702C084B57E
:100210008F7D84BD08958091B0008F7703C0809159
:10022000B0008F7D8093B000089508950895CF9217
:10023000DF92EF92FF92CF93DF93EC012BED3FE043
:1002400049EC50E46F81788589859A850E94611018
:100250002B853C854D855E850E94020F6B017C01DC
:1002600020E030E0A9010E945C10181624F0F7FA93
:10027000F094F7F8F0942F85388949895A89C70195
:10028000B6010E946110DF91CF91FF90EF90DF9057
:10029000CF900895CF93DF93FC01208131813327E4
:1002A000F901E255FF4F8491F901E656FF4FD491D1
:1002B000F901EA57FF4FC491CC23A1F081110E94AC
:1002C000EC00EC2FF0E0EE0FFF1FE859FF4FA59177
:1002D000B491EC91ED2331E020E009F430E0832F7C
:1002E000922F02C080E090E0F1E08F278170DF91D3
:1002F000CF910895CF93DF93EA018BE891E00E94BC
:100300004A01E881F9818083809187018183329657
:10031000F983E883DF91CF910895CF93DF93EA01CA
:1003200088E891E00E944A01E881F9818083809108
:10033000870181833296F983E883DF91CF91089515
:10034000CF93DF93EA0181E891E00E944A01E881BE
:10035000F9818193F983E883DF91CF910895CF9359
:10036000DF93EA018FE791E00E944A01E881F98179
:100370008193F983E883DF91CF910895AF92BF9283
:10038000CF92DF92EF92FF920F931F93CF93DF9361
:1003900000D000D0CDB7DEB749835A836B837C830E
:1003A000FC01A489B589109719F04689411103C051
:1003B00080E090E03BC059016C01ED91FC911197F8
:1003C0000190F081E02D61E4CD0109957C01D60119
:1003D00054968D919C915597DC01ED91FC9164E0D0
:1003E000600F0190F081E02D0995E80EF91EF601ED
:1003F00084899589DC01ED91FC910280F381E02DE7
:1004000044E050E0BE016F5F7F4F0995E80EF91E92
:10041000F60184899589DC01ED91FC910280F381DC
:10042000E02DA801B50109958E0D9F1D0F900F902D
:100430000F900F90DF91CF911F910F91FF90EF9050
:10044000DF90CF90BF90AF9008950F931F939B01C3
:100450008A010F5F1F4FFC014681578160857185BE
:10046000848195810E94BE011F910F910895CF93C1
:10047000DF9300D0CDB7DEB71A8219826983DC0121
:10048000ED91FC910280F381E02D42E050E0BE014D
:100490006F5F7F4F09950F900F90DF91CF91089577
:1004A0008DE891E00E94650721E0892B09F420E0A6
:1004B000822F0895CF93DF93CDB7DEB7A0970FB605
:1004C000F894DEBF0FBECDBFFE013196CF01DB0138
:1004D0004D915C9111979A012F5F3F4F2D933C9363
:1004E000DA012C9121932111F2CF0E941508A096D8
:1004F0000FB6F894DEBF0FBECDBFDF91CF91089548
:100500000E94FB110C9463110C9463110C94631101
:10051000CF93DF93DB01ED91FC911197CF01029610
:100520008D939C93C081D181E0917402F0E0CF0162
:10053000880F991FE80FF91FE65DFD4F8081D7FDF9
:100540000DC086FF0E947B0781E080938102BE017F
:1005500084E792E0DF91CF910C9497088F7B8083A2
:10056000DF91CF910895AF92BF92CF92DF92EF9239
:10057000FF920F931F93CF93DF93CDB7DEB7A09772
:100580000FB6F894DEBF0FBECDBF6A01CE01019653
:100590007C0100E010E05C01C8010E946612D701F6
:1005A0008D937D01882341F08F3F31F00F5F1F4F06
:1005B0000115B4E01B0781F7F5012191D6018D915A
:1005C0009C91DC012C93D6018D919C911197019601
:1005D0008D939C932111F1CFA0960FB6F894DEBFB6
:1005E0000FBECDBFDF91CF911F910F91FF90EF9084
:1005F000DF90CF90BF90AF9008951F920F920FB6EB
:100600000F9211242F933F934F935F936F937F9398
:100610008F939F93AF93BF93EF93FF938DE891E0F8
:100620000E94DB09FF91EF91BF91AF919F918F9154
:100630007F916F915F914F913F912F910F900FBEDE
:100640000F901F9018951F920F920FB60F921124C2
:100650002F938F939F93EF93FF93E0919D01F091E0
:100660009E018081E091A301F091A40182FD12C05E
:1006700090818091A6018F5F8F732091A7018217CF
:1006800051F0E091A601F0E0E357FE4F958F809383
:10069000A60101C08081FF91EF919F918F912F91D1
:1006A0000F900FBE0F901F9018951F93CF93DF935D
:1006B000282F30E0F901E255FF4F8491F901E65609
:1006C000FF4FD491F901EA57FF4FC491CC23C9F0F1
:1006D000162F81110E94EC00EC2FF0E0EE0FFF1FAF
:1006E000E458FF4FA591B4918FB7F894111105C04C
:1006F0009C91ED2FE095E92302C0EC91ED2BEC935A
:100700008FBFDF91CF911F910895CF93DF9390E03A
:10071000FC01E656FF4F2491FC01EA57FF4F8491FC
:10072000882361F190E0880F991FFC01EE58FF4F7C
:10073000C591D491FC01E458FF4FA591B49161118A
:1007400009C09FB7F8948881209582238883EC9113
:100750002E230BC0623061F49FB7F8943881822F4A
:10076000809583238883EC912E2B2C939FBF06C00A
:100770008FB7F894E8812E2B28838FBFDF91CF911C
:100780000895CF92DF92EF92FF920F931F93CF9332
:10079000DF938C01FC01C380D480E580F68020E0EB
:1007A00030E0A901C701B6010E94FD0E882309F4BB
:1007B000C3C02BED3FE049EC50E4F8016781708540
:1007C000818592850E9461109B01AC01C701B60131
:1007D0000E94020FF80123853485458556850E94C5
:1007E000611020E030E04FE753E40E9461100E9466
:1007F000740FEB0177FF04C0CC27DD27C61BD70B96
:1008000020E030E04FE753E4F80167857089818983
:1008100092890E9461106B017C01BE010D2E000CBB
:10082000880B990B0E94AC0FA70196010E945C10E7
:1008300018162CF4C701B6010E94740FEB0161E099
:10084000F80183890E945503F801E588F68861E084
:100850008E2D0E948503209709F447C0CF3FD10514
:1008600009F445C0F701FF27E255FF4FE491E3305B
:10087000F9F048F4E130B9F0E230A1F584B58062D6
:1008800084BDC8BD38C0E730E9F0E83019F1E43084
:1008900049F580918000806280938000D0938B0026
:1008A000C0938A0028C084B5806884BDC7BD23C0BA
:1008B00080918000806880938000D0938900C093ED
:1008C000880019C08091B00080688093B000C09308
:1008D000B30011C08091B00080628093B000C093DB
:1008E000B40009C0C038D10514F460E001C061E073
:1008F0008E2D0E945503F801238534854585568544
:1009000063817481858196810E946110F80127813D
:100910003085418552850E946110C1E020E030E0C1
:10092000A9010E945C1018160CF0C0E081E06C2F49
:100930006827F801878903C060E0F8018389DF91A7
:10094000CF911F910F91FF90EF90DF90CF900C947B
:100950005503FC0143835483658376830C94C10360
:100960003FB7F8948091770190917801A091790137
:10097000B0917A0126B5A89B05C02F3F19F00196CA
:10098000A11DB11D3FBFBA2FA92F982F8827820F15
:10099000911DA11DB11DBC01CD0142E0660F771F65
:1009A000881F991F4A95D1F708950F931F93CF93EE
:1009B000DF93EC010E94B004088119812A813B81F8
:1009C000601B710B820B930B0E94AA0F20E034E294
:1009D00044E759E40E94020FDF91CF911F910F91DC
:1009E0000895CF93DF93FC0122892223C9F0EC0103
:1009F00043960E94D5042E853F85488959890E94D7
:100A00005C1087FD0DC0EB85F0E0CF01880F991FCA
:100A1000E80FF91FE65DFD4F80818F7B80831A8A86
:100A2000DF91CF910895CF92DF92EF92FF920F93D3
:100A30001F93CF93DF93FC01208D211157C0EC0150
:100A400049960E94D5048E01055F1F4F2889398978
:100A50004A895B890E9461106B017C018E899F89A4
:100A6000BC01990F880B990B0E94AC0F9B01AC0144
:100A7000C701B6010E9461106B017C018C899D89C0
:100A8000BC01990F880B990B0E94AC0F9B01AC0124
:100A9000C701B6010E94910E0E94740FC8010E9406
:100AA00097088E899F89019641F4C8010E942F08FA
:100AB0006E857F856817790764F48E899F89019711
:100AC000A9F4C8010E942F086E857F8586179707B5
:100AD0006CF081E0888FC801DF91CF911F910F9159
:100AE000FF90EF90DF90CF900C949708DF91CF911B
:100AF0001F910F91FF90EF90DF90CF900895CF92CC
:100B0000DF92EF92FF92CF93DF93EC010E94B0044B
:100B10006B017C0188819981AA81BB81A701960123
:100B2000281B390B4A0B5B0BCA01B9010E94AA0FA3
:100B300020E034E244E759E40E94020FC882D982DF
:100B4000EA82FB82DF91CF91FF90EF90DF90CF9010
:100B50000895CF92DF92EF92FF92CF93DF93EA0155
:100B6000DB01ED91FC911197CF0104968D939C933D
:100B7000C080D180E280F3808091740290E0FC011B
:100B8000EE0FFF1F8E0F9F1FFC01E65DFD4F808162
:100B900086FF07C084E792E00E942F0806970CF0BA
:100BA0004BC0C0928902D0928A02E0928B02F092EE
:100BB0008C0286E892E00E94C10320E030E0A901A7
:100BC000C701B6010E94FD0E882399F081E0809351
:100BD0008A018EE492E00E947F051092870120E056
:100BE00030E0A901C701B6010E945C10181654F04C
:100BF00021C020E030E0A901C701B6010E945C10CD
:100C00001816B4F4E0917402F0E0CF01880F991F38
:100C1000E80FF91FE65DFD4F80818F7B808320E028
:100C200030E0A901C701B6010E94FD0E811102C08A
:100C300010928A0181E001C080E0E881F98181930E
:100C4000F983E883DF91CF91FF90EF90DF90CF9011
:100C50000895EF92FF921F93CF93DF93FC011281CF
:100C6000112381F0EC017C01F7E0EF0EF11CC701CC
:100C70000E94D5042B813C814D815E810E945C10D5
:100C8000181614F010E00CC0C7010E947F05AB01DC
:100C9000BC01E881F9810480F581E02DCE01099540
:100CA000812FDF91CF911F91FF90EF900895CF9208
:100CB000DF92EF92FF92CF93DF93DB01ED91FC91F6
:100CC0001197C081D181CF0106968D939C93C280EC
:100CD000D380E480F580E0915D02F0E0CF01880FE1
:100CE000991FE80FF91FE65DFD4F8081D7FD22C0F7
:100CF00086FD06C063E170E08DE592E00E94C707C3
:100D0000BE018DE592E00E94970881E08093640225
:100D1000C0926002D0926102E0926202F09263029D
:100D200085E692E0DF91CF91FF90EF90DF90CF903A
:100D30000C947F058F7B8083DF91CF91FF90EF90A4
:100D4000DF90CF900895CF93DF93DB01ED91FC917D
:100D50001197CF0102968D939C93C081D181D7FDCD
:100D600030C08091740290E0FC01EE0FFF1F8E0FE7
:100D70009F1FFC01E65DFD4F808186FF0E947B077F
:100D8000D0937802C093770282E892E00E947F05B8
:100D900084E792E00E942F0890937E0280937D0268
:100DA000109281028C179D071CF481E090E005C031
:100DB000C817D90734F48FEF9FEF90938002809388
:100DC0007F02DF91CF9108951F920F920FB60F927D
:100DD00011242F933F938F939F93AF93BF93809151
:100DE000830190918401A0918501B0918601309199
:100DF000760123E0230F2D3720F40196A11DB11DAC
:100E000005C026E8230F0296A11DB11D209376018F
:100E10008093830190938401A0938501B093860110
:100E20008091770190917801A0917901B0917A0138
:100E30000196A11DB11D8093770190937801A09335
:100E40007901B0937A01BF91AF919F918F913F91BA
:100E50002F910F900FBE0F901F9018950895089531
:100E60000895892B79F41092800082E080938100AC
:100E70001092850010928400B19A80916F00826078
:100E800080936F000895FC01918D828D981761F019
:100E9000828DDF01A80FB11D5D968C91928D9F5FB1
:100EA0009F73928F90E008958FEF9FEF0895FC015C
:100EB000918D828D981731F0828DE80FF11D858D0F
:100EC00090E008958FEF9FEF0895FC01918D228DA2
:100ED000892F90E0805C9F4F821B91098F73992727
:100EE000089580E090E0892B29F00E945002811142
:100EF0000C9400000895809174028C3008F043C077
:100F000061E081E10E94850380917402E82FF0E0A6
:100F10009F01220F331FE20FF31FE65DFD4F90810B
:100F2000907C9161908310927502109276026CE031
:100F30000E947E0E9CE0899FB001112440E050E0A9
:100F40009A01260F371FF901EE0FFF1F2E0F3F1FCB
:100F5000F901E65DFD4F908196FD08C04F5F5F4F40
:100F60004C30510569F790E00E943107E09174021E
:100F7000F0E0CF01880F991FE80FF91FE65DFD4FE4
:100F800080818064808381E08093810208951F9333
:100F9000CF93DF93EC01162F88818C3008F040C08E
:100FA00061E0812F0E9485038881E82FF0E09F0196
:100FB000220F331FE20FF31FE65DFD4F1F73908179
:100FC000907C192B108319821A826CE00E947E0E8D
:100FD0009CE0899FB001112440E050E09A01260F67
:100FE000371FF901EE0FFF1F2E0F3F1FF901E65DBE
:100FF000FD4F908196FD08C04F5F5F4F4C3051050B
:1010000069F790E00E943107E881F0E0CF01880F96
:10101000991FE80FF91FE65DFD4F80818064808392
:101020008881DF91CF911F910895EF92FF920F93E6
:101030001F93CF93DF938C01EC017E01CE01801BC7
:10104000910B69910E946E12F70180818111F5CF99
:10105000DF91CF911F910F91FF90EF9008958F92A4
:101060009F92AF92BF92CF92DF92EF92FF92FC01DC
:10107000828128E532E06901C81AD10887FDD3943E
:10108000CC0CDD1CCC0CDD1C0D2C000CEE08FF087C
:10109000818128E830E04901881A910887FD9394FE
:1010A000880C991C880C991C092C000CAA08BB08F8
:1010B00080818F3FC1F090E0FC01EE0FFF1F8E0F8B
:1010C0009F1FFC01E65DFD4F2181328143E0220F2D
:1010D000331F4A95E1F754E0369527955A95E1F785
:1010E0002E5F3F4F02C020E030E02F5F3F4FC9012D
:1010F000330FAA0BBB0B9C01AD01281939094A0912
:101100005B09A4EBB0E00E942212A7019601281906
:1011100039094A095B090E940312C901FF90EF9047
:10112000DF90CF90BF90AF909F908F900895CF9217
:10113000DF92EF92FF92CF93DF93EC01603282E077
:1011400078070CF03DC077FD06C0653B71052CF0BB
:1011500064EB70E002C060E070E0898128E830E074
:101160006901C81AD10887FDD394CC0CDD1CCC0CC6
:10117000DD1C0D2C000CEE08FF088A8128E532E00A
:10118000281B310987FD3395220F331F220F331F90
:10119000C901330FAA0BBB0B9C01AD012C193D09F2
:1011A0004E095F09DB010E942D1224EB30E040E084
:1011B00050E00E940312C20ED31EE41EF51EB601BB
:1011C00088818C3080F5998148E850E0491B5109AD
:1011D00097FD5395440F551F440F551F641775070E
:1011E00084F09A8128E532E0291B310997FD339577
:1011F000220F331F220F331FAB01261737070CF4C2
:10120000A90142505109440F551F2FB7F89490E09F
:10121000FC01EE0FFF1F8E0F9F1FFC01E65DFD4FCF
:10122000528341832FBFDF91CF91FF90EF90DF90EA
:10123000CF9008951F920F920FB60F9211242F9303
:101240003F934F935F936F937F938F939F93AF934E
:10125000BF93EF93FF9380915E0387FF05C01092C9
:101260008500109284001BC020915E03022E000CAA
:10127000330B80915F0390E02817390784F4809145
:101280005E03082E000C990BFC01EE0FFF1F8E0F62
:101290009F1FFC01E65DFD4F808186FD15C080919A
:1012A0005E038F5F80935E0320915E03022E000C2D
:1012B000330B80915F0390E028173907C4F48091C5
:1012C0005E038C3064F113C080915E03082E000C25
:1012D000990BFC01EE0FFF1F8E0F9F1FFC01E65DB7
:1012E000FD4F808160E08F730E945503D8CF8091BD
:1012F000840090918500049680349C4918F480E421
:101300009CE905C08091840090918500049690939B
:101310008900809388008FEF80935E033BC020910B
:1013200084003091850080915E03082E000C990B9B
:10133000FC01EE0FFF1F8E0F9F1FFC01E65DFD4FAE
:1013400081819281820F931F9093890080938800FE
:1013500080915E03082E000C990BFC01EE0FFF1F1D
:101360008E0F9F1FFC01E65DFD4F808186FF12C03E
:1013700080915E03082E000C990BFC01EE0FFF1FFD
:101380008E0F9F1FFC01E65DFD4F808161E08F7332
:101390000E945503FF91EF91BF91AF919F918F9163
:1013A0007F916F915F914F913F912F910F900FBE61
:1013B0000F901F901895FC01848DDF01A80FB11DBF
:1013C000A35ABF4F2C91848D90E001968F7399277B
:1013D000848FA689B7892C93A089B1898C91806468
:1013E0008C93938D848D981306C00288F389E02D29
:1013F00080818F7D80830895EF92FF920F931F93DA
:10140000CF93DF93EC0181E0888F9B8D8C8D9813B7
:1014100005C0E889F989808185FD24C0F62E0B8DF1
:1014200010E00F5F1F4F0F731127E02E8C8DE81215
:101430000CC00FB607FCFACFE889F989808185FFD7
:10144000F5CFCE010E94DB09F1CF8B8DFE01E80FB5
:10145000F11DE35AFF4FF0820B8FEA89FB898081EF
:10146000806207C0EE89FF896083E889F9898081FD
:101470008064808381E090E0DF91CF911F910F9194
:10148000FF90EF900895CF93DF93EC01888D882330
:10149000C9F0EA89FB89808185FD05C0A889B989E1
:1014A0008C9186FD0FC00FB607FCF5CF808185FFBC
:1014B000F2CFA889B9898C9185FFEDCFCE010E942A
:1014C000DB09E7CFDF91CF910895CF93DF9300D071
:1014D00000D000D0CDB7DEB7789484B5826084BDEB
:1014E00084B5816084BD85B5826085BD85B5816028
:1014F00085BD80916E00816080936E0010928100A6
:101500008091810082608093810080918100816060
:101510008093810080918000816080938000809121
:10152000B10084608093B1008091B00081608093AD
:10153000B00080917A00846080937A0080917A0074
:10154000826080937A0080917A00816080937A0033
:1015500080917A00806880937A001092C100E091B7
:101560009D01F0919E0182E08083E0919901F091CC
:101570009A011082E0919B01F0919C0187E68083A3
:101580001092A501E091A101F091A20186E0808373
:10159000E0919F01F091A001808180618083E091C2
:1015A0009F01F091A001808188608083E0919F017C
:1015B000F091A001808180688083E0919F01F0918B
:1015C000A00180818F7D80838FE992E02DE831E05A
:1015D0003093B4022093B3021092B5029093A40208
:1015E0008093A3024FEF5FEFBA014093A50250939F
:1015F000A6026093A7027093A8029093AE02809314
:10160000AD028EEF9FEFAFEFBFEF8093AF029093ED
:10161000B002A093B102B093B20284E691E00E94BE
:10162000150888EB90E09093B7028093B60283EBA5
:1016300092E09093B9028093B8028AE592E0909389
:10164000BB028093BA0287E596E09093BF02809335
:10165000BE0288E892E09093C1028093C0028AE7BC
:1016600091E09093C7028093C6028DE891E0909339
:10167000C9028093C80289EA95E09093CF028093D3
:10168000CE0283EA96E09093C3028093C2028DE873
:1016900090E09093C5028093C40282EA90E0909318
:1016A000CD028093CC0280EA91E09093D1028093A6
:1016B000D0028FEA91E09093D3028093D20261E04E
:1016C00083E10E94850363E170E08DE592E00E9472
:1016D000C70780915402811107C081E080935402B2
:1016E00089E592E00E947F058DEC9CECACECBDE3BB
:1016F0008093550290935602A0935702B0935802DC
:1017000082E090E090938C0180938B0162E00E94D4
:10171000850384E090E0909389018093880162E0E2
:101720000E94850382E190E0909382018093810181
:1017300062E00E94850380E190E0909380018093B5
:101740007F0162E00E94850361E081E10E948503E0
:101750000E947B0780916B02811107C081E080931A
:101760006B0280E792E00E947F058AE097EDA3E29A
:10177000BCE380936C0290936D02A0936E02B093D1
:101780006F028CE090E090937C0180937B0185E177
:1017900090E090937E0180937D0161E08CE00E9457
:1017A000850360E080917D010E94850360E0809167
:1017B0007B010E94550383E290E00197F1F761E01D
:1017C00080917B010E94550386E090E090939A02FD
:1017D0008093990283E090E090939C0280939B0217
:1017E00085E090E090939E0280939D0261E086E008
:1017F0000E94850361E080919B020E94850361E065
:1018000080919D020E94850387E291E8A8EBBDE3E9
:101810008093910290939202A0939302B0939402CA
:1018200086E892E00E94C1038091B100887F8160C8
:101830008093B100E0917402F0E0CF01880F991F0E
:10184000E80FF91FE65DFD4F80818F7B8083E0917B
:101850005D02F0E0CF01880F991FE80FF91FE65DE8
:10186000FD4F80818F7B808346E1242E43E0342E20
:10187000CC24C394D12C8091B3029091B402DC01AA
:10188000ED91FC910480F581E02D09959E838D8377
:101890008FB7F89440908301509084016090850147
:1018A000709086018FBF8091560390915703892BCA
:1018B000B9F080915A0390915B03A0915C03B091C1
:1018C0005D03A3019201281B390B4A0B5B0B2536E4
:1018D00031054105510524F010925703109256032B
:1018E000E12CF12C8D819E81E816F9060CF085C063
:1018F0008091B3029091B402DC01ED91FC910680DD
:10190000F781E02D099540925A0350925B03609253
:101910005C0370925D032091560330915703213090
:10192000310571F022303105D9F0232B09F061C067
:10193000823509F05EC0D0925703C092560359C059
:101940008093580310925903813418F080E090E09E
:1019500002C082E090E0909357038093560349C001
:10196000E091590391E09E0F90935903F0E0E15606
:10197000FD4F87AB809158039817D8F1B1E0B09331
:10198000B5023A822982E091D6022BED32E03C8307
:101990002B838090D7029090D802A090D902B0906B
:1019A000DA02F0E0EE0FFF1FE156FD4F0788F08DE1
:1019B000E02D3097D1F0AE014F5F5F4FBE016D5FFC
:1019C0007F4F8FE992E0099509811A8133E0063152
:1019D000130759F050F00651134026E133E0B501EA
:1019E000A4018FE992E00E94BE0110925703109269
:1019F00056034FEFE41AF40A75CF89E692E00E948D
:101A0000290682E592E00E9429068BE891E00E9477
:101A10004A018823A9F020E030E040EC5FEB6091C0
:101A2000890270918A0280918B0290918C020E94AF
:101A3000FD0E87FF05C080E090E0A0ECBFEB2DC05D
:101A400088E891E00E944A01882381F020E030E09C
:101A500040EC5FE36091890270918A0280918B0271
:101A600090918C020E945C1018169CF080918A0163
:101A7000882361F08EE492E00E94D50420E030E0FB
:101A800040EA50E40E945C1087FF16C00E94710774
:101A9000F2CE80E090E0A0ECBFE3809389029093C7
:101AA0008A02A0938B02B0938C0286E892E00E9497
:101AB000C10310928A01DACF1092890210928A0231
:101AC00010928B0210928C0286E892E00E94C10371
:101AD00081E080938701DACF0895109290011092EF
:101AE0008F0188EE93E0A0E0B0E0809391019093A5
:101AF0009201A0939301B09394018EE091E09093B2
:101B00008E0180938D0185EC90E090939A018093F3
:101B1000990184EC90E090939C0180939B0180EC70
:101B200090E090939E0180939D0181EC90E09093D2
:101B3000A00180939F0182EC90E09093A20180939A
:101B4000A10186EC90E09093A4018093A3011092F0
:101B5000A6011092A7011092A8011092A90188E491
:101B600091E09093870280938602109288021092EF
:101B7000890210928A0210928B0210928C0283E8E2
:101B800099EFA2E2BEE380938D0290938E02A09320
:101B90008F02B093900280E090E0A0E8BFE38093D2
:101BA000910290939202A0939302B0939402809337
:101BB000950290939602A0939702B09398028CE2BC
:101BC00091E090936A02809369020E94B00460934E
:101BD00070027093710280937202909373028AE391
:101BE00091E090936A028093690280915F038C3048
:101BF000A0F491E0980F90935F038093740290E0BB
:101C0000FC01EE0FFF1F8E0F9F1FFC01E65DFD4FD5
:101C100088EB9BE09283818303C08FEF80937402F3
:101C20000E94B004609382027093830280938402C6
:101C30009093850280E090E0A4EBB3E48093790276
:101C400090937A02A0937B02B0937C028CE291E0A5
:101C500090935302809352020E94B0046093590201
:101C600070935A0280935B0290935C028EE191E044
:101C7000909353028093520280915F038C30A0F4C2
:101C800091E0980F90935F0380935D0290E0FC01D8
:101C9000EE0FFF1F8E0F9F1FFC01E65DFD4F88EBCF
:101CA0009BE09283818303C08FEF80935D020E944B
:101CB000B00460936502709366028093670290930C
:101CC00068020E94B00460934E0270934F028093AA
:101CD0005002909351021092A2021092A10280E64B
:101CE00091E09093A00280939F021092AC02109218
:101CF000AB029093AA028093A9020895991B79E000
:101D000004C0991F961708F0961B881F7A95C9F78B
:101D100080950895EE0FFF1F0590F491E02D099432
:101D20005058BB27AA270E94A80E0C9422100E948C
:101D3000141038F00E941B1020F039F49F3F19F462
:101D400026F40C9411100EF4E095E7FB0C940B10A4
:101D5000E92F0E94331058F3BA17620773078407FC
:101D6000950720F079F4A6F50C9455100EF4E09543
:101D70000B2EBA2FA02D0B01B90190010C01CA0145
:101D8000A0011124FF27591B99F0593F50F4503EF0
:101D900068F11A16F040A22F232F342F4427585FE2
:101DA000F3CF469537952795A795F0405395C9F7FA
:101DB0007EF41F16BA0B620B730B840BBAF09150B2
:101DC000A1F0FF0FBB1F661F771F881FC2F70EC051
:101DD000BA0F621F731F841F48F487957795679524
:101DE000B795F7959E3F08F0B0CF9395880F08F010
:101DF0009927EE0F9795879508950E94E70F08F4AD
:101E000081E008950E94160F0C9422100E941B106E
:101E100058F00E94141040F029F45F3F29F00C9410
:101E20000B1051110C9456100C9411100E94331089
:101E300068F39923B1F3552391F3951B550BBB27F9
:101E4000AA2762177307840738F09F5F5F4F220F3E
:101E5000331F441FAA1FA9F335D00E2E3AF0E0E835
:101E600032D091505040E695001CCAF72BD0FE2F7F
:101E700029D0660F771F881FBB1F26173707480713
:101E8000AB07B0E809F0BB0B802DBF01FF279358CB
:101E90005F4F3AF09E3F510578F00C940B100C9474
:101EA00056105F3FE4F3983ED4F386957795679597
:101EB000B795F7959F5FC9F7880F911D9695879500
:101EC00097F90895E1E0660F771F881FBB1F62171F
:101ED00073078407BA0720F0621B730B840BBA0BDD
:101EE000EE1F88F7E09508950E947B0F6894B1116A
:101EF0000C94561008950E943B1088F09F5798F05C
:101F0000B92F9927B751B0F0E1F0660F771F881FFE
:101F1000991F1AF0BA95C9F714C0B13091F00E9418
:101F20005510B1E008950C945510672F782F88272D
:101F3000B85F39F0B93FCCF3869577956795B3953F
:101F4000D9F73EF490958095709561957F4F8F4FAE
:101F50009F4F0895E89409C097FB3EF490958095B3
:101F6000709561957F4F8F4F9F4F9923A9F0F92F5F
:101F700096E9BB279395F695879577956795B795DD
:101F8000F111F8CFFAF4BB0F11F460FF1BC06F5FC3
:101F90007F4F8F4F9F4F16C0882311F096E911C0D5
:101FA000772321F09EE8872F762F05C0662371F0F6
:101FB00096E8862F70E060E02AF09A95660F771F0A
:101FC000881FDAF7880F9695879597F90895990FE6
:101FD0000008550FAA0BE0E8FEEF16161706E807F3
:101FE000F907C0F012161306E407F50798F0621B14
:101FF000730B840B950B39F40A2661F0232B242BE9
:10200000252B21F408950A2609F4A140A6958FEF07
:10201000811D811D089597F99F6780E870E060E059
:1020200008959FEF80EC089500240A941616170671
:1020300018060906089500240A94121613061406B9
:1020400005060895092E0394000C11F4882352F01C
:10205000BB0F40F4BF2B11F460FF04C06F5F7F4FD4
:102060008F4F9F4F089557FD9058440F551F59F0BB
:102070005F3F71F04795880F97FB991F61F09F3F75
:1020800079F087950895121613061406551FF2CF9E
:102090004695F1DF08C0161617061806991FF1CFEE
:1020A00086957105610508940895E894BB27662715
:1020B0007727CB0197F908950E94E70F08F48FEF77
:1020C00008950E9474100C9422100E94141038F08D
:1020D0000E941B1020F0952311F00C940B100C940F
:1020E000111011240C9456100E94331070F3959F18
:1020F000C1F3950F50E0551F629FF001729FBB27FF
:10210000F00DB11D639FAA27F00DB11DAA1F649F9A
:102110006627B00DA11D661F829F2227B00DA11D4D
:10212000621F739FB00DA11D621F839FA00D611DD3
:10213000221F749F3327A00D611D231F849F600DF4
:10214000211D822F762F6A2F11249F5750409AF01D
:10215000F1F088234AF0EE0FFF1FBB1F661F771FA9
:10216000881F91505040A9F79E3F510580F00C9474
:102170000B100C9456105F3FE4F3983ED4F3869511
:1021800077956795B795F795E7959F5FC1F7FE2B14
:10219000880F911D9695879597F90895CF93DF93B2
:1021A0008230910510F482E090E0E0916203F091BA
:1021B000630320E030E0C0E0D0E0309711F14081CF
:1021C000518148175907C0F04817590761F48281B7
:1021D0009381209719F09B838A832BC0909363038C
:1021E0008093620326C02115310519F04217530769
:1021F00018F49A01BE01DF01EF010280F381E02DA6
:10220000DCCF2115310509F1281B390B24303105AC
:1022100090F412968D919C9113976115710521F0A0
:10222000FB019383828304C09093630380936203D2
:10223000FD01329644C0FD01E20FF31F819391939B
:10224000225031092D933C933AC020916003309184
:102250006103232B41F4209102013091030130935B
:102260006103209360032091000130910101211549
:10227000310541F42DB73EB740910401509105015D
:10228000241B350BE0916003F0916103E217F30723
:10229000A0F42E1B3F0B2817390778F0AC014E5FD6
:1022A0005F4F2417350748F04E0F5F1F50936103AF
:1022B000409360038193919302C0E0E0F0E0CF018E
:1022C000DF91CF9108950F931F93CF93DF930097E2
:1022D00009F48CC0FC0132971382128200916203D0
:1022E000109163030115110581F420813181820F62
:1022F000931F20916003309161032817390779F506
:10230000F0936103E093600371C0D80140E050E0B6
:10231000AE17BF0750F412962D913C911397AD0163
:102320002115310509F1D901F3CF9D01DA0133837C
:10233000228360817181860F971F8217930769F44A
:10234000EC0128813981260F371F2E5F3F4F3183E3
:1023500020838A819B8193838283452B29F4F09388
:102360006303E093620342C01396FC93EE931297CB
:10237000ED01499159919E01240F351FE217F30792
:1023800071F480819181840F951F029611969C9320
:102390008E938281938113969C938E931297E0E0A3
:1023A000F0E0D80112968D919C911397009719F047
:1023B000F8018C01F6CF8D919C9198012E5F3F4FD3
:1023C000820F931F20916003309161032817390712
:1023D00069F4309729F4109263031092620302C0EB
:1023E000138212821093610300936003DF91CF91F7
:1023F0001F910F91089581E090E0F8940C947C1265
:10240000F8940C947C12052E97FB1EF400940E9405
:102410001A1257FD07D00E94351207FC03D04EF464
:102420000C941A1250954095309521953F4F4F4F7F
:102430005F4F089590958095709561957F4F8F4F70
:102440009F4F08950E945712A59F900DB49F900D25
:10245000A49F800D911D11240895B7FF0C942212A2
:102460000E942212821B930B0895A1E21A2EAA1B2E
:10247000BB1BFD010DC0AA1FBB1FEE1FFF1FA21734
:10248000B307E407F50720F0A21BB30BE40BF50B31
:10249000661F771F881F991F1A9469F760957095BA
:1024A000809590959B01AC01BD01CF010895A29F3D
:1024B000B001B39FC001A39F700D811D1124911D18
:1024C000B29F700D811D1124911D0895F999FECFC1
:1024D00092BD81BDF89A992780B50895262FF99964
:1024E000FECF1FBA92BD81BD20BD0FB6F894FA9AF7
:1024F000F99A0FBE0196089510E0C2E6D0E004C03C
:10250000FE010E948A0E2196C336D107C9F7F894BE
:02251000FFCFFB
:102512000000640380000100000000000000FC09CC
:10252200C100650743075707430A000000002E0752
:102532008202F104160115010000000000000000F3
:10254200800216011501000000002F078402130506
:10255200160115010000000030078602A9041701C8
:102562000000000000000000800280020000000065
:10257200370225026D6F64756C6573636F6C6C65F1
:0625820063746F7200009B
:00000001FF
