:100000000C945E000C9486000C9486000C94860080
:100010000C9486000C9486000C9486000C94860048
:100020000C9486000C9486000C9486000C94860038
:100030000C9486000C9486000C9486000C94860028
:100040000C947E060C9486000C9422050C94FC04FF
:100050000C9486000C9486000C9486000C94860008
:100060000C9486000C948600000000080002010039
:100070000003040700000000000000000000000072
:10008000250028002B0000000000240027002A0083
:10009000040404040404040402020202020203032E
:1000A0000303030301020408102040800102040836
:1000B00010200102040810201D0F1C0F11241FBE68
:1000C000CFEFD8E0DEBFCDBF25E0A8EBB1E001C0A7
:1000D0001D92AE3EB207E1F711E0A0E0B1E0EAE424
:1000E000F4E202C005900D92A83BB107D9F710E0E9
:1000F000CDE5D0E004C02197FE010E949E0FCC35D3
:10010000D107C9F70E94BB0C0C94FF110C9400009E
:10011000DA01ED91FC91119781E08193ED93FC93CD
:100120000895CF92DF92EF92FF920F931F93CF9398
:10013000DF936C017A018B01C0E0D0E0CE15DF05C2
:1001400089F0D8016D918D01D601ED91FC9101905E
:10015000F081E02DC6010995892B11F47E0102C0C2
:100160002196ECCFC701DF91CF911F910F91FF90A6
:10017000EF90DF90CF90089508950895EF92FF9249
:100180000F931F93CF93DF93EC01CD54DF4F488142
:1001900050E0FC01E40FF51FE954FF4F608128E0B7
:1001A00030E0261B310937FF02C02F5F3F4F3595E6
:1001B0002795FC013B967C0133E1E30EF11C8A019B
:1001C00073E0000F111F7A95E1F7BF01600F711FF7
:1001D000DB0118966C9170E0022E02C07595679550
:1001E0000A94E2F76193EE15FF0579F74F5F5F4FD1
:1001F000FC01EB54FF4F608170E0CA010E94760F52
:100200008883DF91CF911F910F91FF90EF90089518
:10021000CF93DF939C01FC01EA54FF4F8081823031
:1002200009F459C030F4882359F0813009F460C0D2
:1002300088C0833009F461C0843009F46CC081C087
:10024000E901CD54DF4F888190E0F901EC54FF4F74
:100250006081D901A80FB91FA954BF4F4C9150E03C
:1002600048505109460F511D57FF0BC00196D90147
:10027000AB54BF4F6C9170E00E94760F888387E08B
:100280008083808181508083A88190E0019687706F
:10029000992761E070E002C0660F771F8A95E2F748
:1002A000F9013B962D5E3F4F48E0A49FD0011124F9
:1002B0008081880F8083EF01CA0FDB1F488550E0E3
:1002C00046235723452B11F0816080833196E21736
:1002D000F30771F736C0F901E553FF4F8081918133
:1002E000865A9F4F8F3041E0940794F0118210821C
:1002F000C901DF91CF910C94BE00F901E553FF4F86
:10030000808191818A55910997FF02C08EE091E02A
:1003100091838083EDCFF901E553FF4F8081918177
:100320008C549F4F918380838F3091400CF3D9017F
:10033000A353BF4F8D919C9164EB70E00E94760FA8
:10034000E7CFDF91CF910895CF93DF93DB01ED915C
:10035000FC911197CF01019611969C938E93808109
:100360009F012D5F3F4F2D933C93C181D2818130FE
:1003700009F451C018F1823009F46AC0833009F0E1
:1003800083C0BE01DD0F880B990B0E94181020E07E
:1003900030E04AE754E40E94A40F60934003709356
:1003A00041038093420390934303609374027093DC
:1003B0007502809376029093770266C0BE010D2E7F
:1003C000000C880B990B0E94181020E030E04AE7DF
:1003D00054E40E94A40F6093260470932704809332
:1003E00028049093290460935A0370935B038093CD
:1003F0005C0390935D03609340037093410380938B
:100400004203909343036093740270937502809348
:10041000760290937702BE01DD0F880B990B0E9444
:10042000181020E030E04AE754E40E94A40F6093E3
:100430000C0570930D0580930E0590930F05609346
:1004400040047093410480934204909343041CC081
:10045000BE01DD0F880B990B0E94181020E030E0E0
:100460004AE754E40E94A40F609326047093270483
:10047000809328049093290460935A0370935B033C
:1004800080935C0390935D03DF91CF91089508956D
:100490000895AF92BF92CF92DF92EF92FF920F93A7
:1004A0001F93CF93DF9300D000D0CDB7DEB7498341
:1004B0005A836B837C83FC01A489B589109719F05A
:1004C0004689411103C080E090E03BC059016C01B6
:1004D000ED91FC9111970190F081E02D61E4CD0147
:1004E00009957C01D60154968D919C915597DC011C
:1004F000ED91FC9164E0600F0190F081E02D099591
:10050000E80EF91EF60184899589DC01ED91FC91D4
:100510000280F381E02D44E050E0BE016F5F7F4F29
:100520000995E80EF91EF60184899589DC01ED91A3
:10053000FC910280F381E02DA801B50109958E0D93
:100540009F1D0F900F900F900F90DF91CF911F91F3
:100550000F91FF90EF90DF90CF90BF90AF900895F4
:100560000F931F939B018A010F5F1F4FFC01468170
:10057000578160857185848195810E9449021F9110
:100580000F910895CF93DF9300D0CDB7DEB71A82D5
:1005900019826983DC01ED91FC910280F381E02DE9
:1005A00042E050E0BE016F5F7F4F09950F900F90C2
:1005B000DF91CF91089581EC91E00E94770A21E0CC
:1005C000892B09F420E0822F0895CF93DF93CDB7D4
:1005D000DEB7A0970FB6F894DEBF0FBECDBFFE0109
:1005E0003196CF01DB014D915C9111979A012F5FFC
:1005F0003F4F2D933C93DA012C9121932111F2CF9F
:100600000E948D0AA0960FB6F894DEBF0FBECDBF34
:10061000DF91CF9108950E94FA112F923F924F924D
:100620005F926F927F928F929F92AF92BF92CF9282
:10063000DF92EF92FF920F931F93CF93DF93CDB78B
:10064000DEB7A1970FB6F894DEBF0FBECDBF1982FB
:100650001A821B821C82FE01359685E1DF011D9204
:100660008A95E9F73497CE014A964F01DB014D9107
:100670005C9111979A012F5F3F4F2D933C93DA01C4
:100680002C912193E817F90789F780E090E020E0AA
:1006900030E0F401E80FF91F40814423F9F050EEF7
:1006A000540F5F35B8F4B9016F5F7F4FFC0131968D
:1006B000D401AE0FBF1F5C915E3219F44E3209F0C7
:1006C000CF016D3071052CF0F401E80FF91F108295
:1006D00001C09B01019689319105DCF233278CE042
:1006E00090E0821B930B97FD0196AC0155954795C1
:1006F0005B8F4A8F80E090E0FC01E05FFA4F138649
:100700001486158603968C309105B1F74AE0242EA5
:1007100041E0342E53E0A52EB12C00E010E04A8DCC
:100720005B8D240F351FD501A85EBA4F6D01750191
:10073000B3E0EB1AF1083801D6011C924A8D5B8DAB
:10074000E416F5060CF466C0F401E00FF11F808199
:1007500090EE980F9F3550F00F5F1F4FF401E00FA0
:10076000F11F80818E3209F055C042C0E216F306B7
:100770009CF797E0492E512C482F880F550B5F8F1F
:100780004E8F47E050E0441955095D8F4C8F8E8D98
:100790009F8D28A339A30E940212D6016C9141E0DB
:1007A00050E00C8C02C0440F551F0A94E2F790E011
:1007B000842395230C8C02C0959587950A94E2F7C3
:1007C000F101E40DF51D7081789FA001799F500D16
:1007D0001124460F511D67FD5A954C93B1E04B1AF9
:1007E000510828A139A1EFEF4E165E0651F6B4CF9D
:1007F000FE01E00FF11F80818E3261F0E216F306F8
:100800004CF4D6019C91F1018781890F8C9383016F
:100810000E5F1F4FFFEFCF1ADF0A4FEFE41AF40A03
:10082000EA14FB0409F087CF570153E0A50EB11C71
:1008300088E0280E311C9FE0A916B10409F073CF9F
:10084000A1960FB6F894DEBF0FBECDBFDF91CF915A
:100850001F910F91FF90EF90DF90CF90BF90AF90DE
:100860009F908F907F906F905F904F903F902F90D0
:100870000895AF92BF92CF92DF92EF92FF920F93C3
:100880001F93CF93DF93CDB7DEB7A0970FB6F89441
:10089000DEBF0FBECDBF6A01CE0101967C0100E034
:1008A00010E05C01C8010E940212D7018D937D0106
:1008B000882341F08F3F31F00F5F1F4F0115B4E0E7
:1008C0001B0781F7F5012191D6018D919C91DC01E7
:1008D0002C93D6018D919C91119701968D939C93A9
:1008E0002111F1CFA0960FB6F894DEBF0FBECDBF99
:1008F000DF91CF911F910F91FF90EF90DF90CF90FC
:10090000BF90AF9008950F931F93CF93DF931F92E3
:10091000CDB7DEB78C0179830E940A127981672FE7
:10092000C80101960F90DF91CF911F910F910C9408
:100930000A120C940A12DB01ED91FC911197CF0180
:10094000019611969C938E9380819F012E5F3F4F5D
:100950002D933C936181082E000C990B0C94990403
:10096000CF92DF92EF92FF920F931F93CF93DF937B
:10097000EB01E881F981CF01019699838883E080BA
:100980000E2C000CFF0897012052310983E0220F42
:10099000331F8A95E1F769018FE7C80ED11C8901E1
:1009A00009571F4FE881F981CF0101969983888308
:1009B0006081C6010E9499048FEFC81AD80AC01638
:1009C000D10681F7E881F981CF0101969983888367
:1009D0006081C701895A9C4FDF91CF911F910F9180
:1009E000FF90EF90DF90CF900C9499040C946211DB
:1009F0000C9462110C9462111F920F920FB60F9219
:100A000011242F933F934F935F936F937F938F9313
:100A10009F93AF93BF93EF93FF9381EC91E00E947C
:100A2000310CFF91EF91BF91AF919F918F917F9189
:100A30006F915F914F913F912F910F900FBE0F904B
:100A40001F9018951F920F920FB60F9211242F939B
:100A50008F939F93EF93FF93E091D101F091D20197
:100A60008081E091D701F091D80182FD12C0908180
:100A70008091DA018F5F8F732091DB01821751F033
:100A8000E091DA01F0E0EF53FE4F958F8093DA01A9
:100A900001C08081FF91EF919F918F912F910F90D5
:100AA0000FBE0F901F90189590E0FC01E859FF4F82
:100AB0003491FC01EC55FF4F2491FC01E057FF4FAE
:100AC000E491EE2309F43BC0332339F1333091F044
:100AD00038F43130A9F0323001F584B58F7D12C081
:100AE000373091F03830A1F03430B9F48091800083
:100AF0008F7D03C0809180008F77809380000DC030
:100B000084B58F7784BD09C08091B0008F7703C012
:100B10008091B0008F7D8093B000F0E0EE0FFF1F5A
:100B2000E458FF4FA591B4918FB7F894EC916111FF
:100B300003C020952E2301C02E2B2C938FBF089528
:100B4000CF93DF93EC01EA8DF0E0EA5AFE4F60E0CC
:100B500080810E9454058A8D8F5F833010F48A8FC4
:100B600001C01A8E60E087E00E9454058A8DFE0164
:100B7000E80FF11D418966E085E00E94A70A8A8D91
:100B8000FE01E80FF11D448966E085E00E94A70A96
:100B90008A8DFE01E80FF11D438566E085E00E9425
:100BA000A70A8A8DFE01E80FF11D468566E085E003
:100BB0000E94A70A61E087E00E945405EA8DF0E0F8
:100BC000EA5AFE4F61E08081DF91CF910C94540589
:100BD0003FB7F8948091B9019091BA01A091BB01FF
:100BE000B091BC0126B5A89B05C02F3F19F0019616
:100BF000A11DB11D3FBFBA2FA92F982F8827820FA3
:100C0000911DA11DB11DBC01CD0142E0660F771FF2
:100C1000881F991F4A95D1F70895CF93DF93FC0160
:100C20002281211112C0EC0181E082830E94E8053B
:100C30006F83788789879A87E881F9810680F781B1
:100C4000E02DCE01DF91CF910994DF91CF910895EE
:100C5000CF92DF92EF92FF921F93CF93DF93FC012D
:100C600012811123D9F0EC010E94E805CF80D884CD
:100C7000E984FA846C197D098E099F090E94161077
:100C800020E034E244E759E40E94A40F2B813C8128
:100C90004D815E810E94A410181614F010E025C04A
:100CA0000E94E8056B017C018F819885A985BA8532
:100CB000A7019601281B390B4A0B5B0BCA01B9012E
:100CC0000E94161020E034E244E759E40E94A40F89
:100CD000AB01BC01CF82D886E986FA86E881F9812A
:100CE0000480F581E02DCE010995812FDF91CF9110
:100CF0001F91FF90EF90DF90CF9008951F920F9279
:100D00000FB60F9211242F933F938F939F93AF931E
:100D1000BF938091BD019091BE01A091BF01B091A0
:100D2000C0013091B80123E0230F2D3720F4019644
:100D3000A11DB11D05C026E8230F0296A11DB11DFE
:100D40002093B8018093BD019093BE01A093BF0191
:100D5000B093C0018091B9019091BA01A091BB01FB
:100D6000B091BC010196A11DB11D8093B901909372
:100D7000BA01A093BB01B093BC01BF91AF919F9109
:100D80008F913F912F910F900FBE0F901F9018954C
:100D90000F931F93CF93DF93EC010DE711E01983BD
:100DA00008830E94E8056F83788789879A878CE497
:100DB00091E0998388831C8B0B8B0E94E8056A8FD6
:100DC0007B8F8C8F9D8F8EE391E09C8B8B8BDF9143
:100DD000CF911F910F9108951F93CF93DF93EC0153
:100DE0000E940212182FCE0101960E940212282F93
:100DF00030E0922F8827810F911DDF91CF911F91B5
:100E000008950C9402128F929F92AF92BF92CF924C
:100E1000DF92EF92FF920F931F93CF93DF93EC013A
:100E2000F62EE72E85EA91E00E94F00A8F2D9E2D86
:100E30000E94F00A5E01CE0180569F4FAE0120E075
:100E400030E0FA01E20FF31F16A22F5F3F4F283068
:100E50003105B9F7485F5F4F4817590781F70F2DE4
:100E60001E2DE12CF12CF80180818823D1F1F4E1D1
:100E7000EF16F104B1F18FE7C82ED12C47012AEC0F
:100E8000820E911C8C0E9D1EF8018081960148E017
:100E90008402200D311D1124C9019A950E94010779
:100EA000F601E955F109EA0DFB1D8083F801808107
:100EB000082E000C990B895A9C4F0E940107F401DF
:100EC0008083FFEFCF1ADF0A27E8C216D104E1F6CC
:100ED0003FEFE31AF30A0F5F1F4F48E0A40EB11C67
:100EE000C2CF87E0FE01E953FF4F80833197108224
:100EF000E85AF109CE0186961192E817F907E1F751
:100F0000C853DF4FE882DF91CF911F910F91FF907F
:100F1000EF90DF90CF90BF90AF909F908F9008950B
:100F2000EF92FF920F931F93CF93DF93CDB7DEB76E
:100F300064970FB6F894DEBF0FBECDBFDB01ED9115
:100F4000FC911197CF01019611969C938E939081FD
:100F50009F012E5F3F4F11963C932E938181198202
:100F60001A821B821C82AE014B5F5F4F20E1FA01A7
:100F700011922A95E9F79E012F5F3F4F7901405F5B
:100F80005F4FB9012D913C91119789010F5F1F4F60
:100F900011961C930E93F9012081F70121937F0193
:100FA000E417F50779F7923089F09330E1F091304A
:100FB00041F58093F30480910A0590910B0590937D
:100FC0000905809308058AE294E019C080930D0416
:100FD000809124049091250490932304809322040B
:100FE00084E493E00CC08093270380913E039091AA
:100FF0003F0390933D0380933C038EE592E00E9473
:10100000030764960FB6F894DEBF0FBECDBFDF9125
:10101000CF911F910F91FF90EF9008957F928F9243
:101020009F92AF92BF92CF92DF92EF92FF920F9377
:101030001F93CF93DF93CDB7DEB765970FB6F894C4
:10104000DEBF0FBECDBF7B01DB01ED91FC9111979F
:10105000CF01019611969C938E938081018112811C
:101060009F012C5F3F4F2D933C93D380823009F436
:1010700059C0833009F4AAC0813009F0FCC06D2D3D
:1010800085EF93E00E949904B8018EEE93E00E94F0
:101090008304B801110F880B990B0E94181020E0EF
:1010A00030E04AE754E40E94A40F60930C0570936B
:1010B0000D0580930E0590930F0560934004709387
:1010C00041048093420490934304FE0131965F01F2
:1010D00000E010E0CE2E7B2DD701ED91FC91119711
:1010E000CF0101968D939C936081F50161935F011F
:1010F000C8018A529C4F7D8B0E9499040F5F1F4F3D
:101100007D890830110541F7D092F30480910A05DA
:1011100090910B0590930905809308056C2D8AE248
:1011200094E0A7C0B80180EF93E00E9483046D2D86
:1011300086EF93E00E949904CE0101964C01A12C08
:10114000B12C782EC92CD701ED91FC911197CF01CC
:1011500001968D939C936081F40161934F01C501C9
:1011600082529C4F0E949904FFEFAF1ABF0A88E099
:10117000A816B10441F7B801110F880B990B0E9412
:10118000181020E030E04AE754E40E94A40F609376
:101190002604709327048093280490932904609375
:1011A0005A0370935B0380935C0390935D03D0922A
:1011B0000D0480912404909125049093230480933E
:1011C0002204672D7C2D84E493E053C0B80182EFA4
:1011D00093E00E9483046D2D87EF93E00E949904B1
:1011E000DE0111964D01A12CB12C7A2EC92CD7010C
:1011F000ED91FC911197CF0101968D939C936081A5
:10120000F40161934F01C5018A519C4F0E949904DA
:10121000FFEFAF1ABF0A88E0A816B10441F7B80182
:10122000110F880B990B0E94181020E030E04AE75C
:1012300054E40E94A40F6093400370934103809391
:1012400042039093430360937402709375028093FA
:10125000760290937702D092270380913E0390917B
:101260003F0390933D0380933C03672D7C2D8EE5D7
:1012700092E00E94030765960FB6F894DEBF0FBE9A
:10128000CDBFDF91CF911F910F91FF90EF90DF9035
:10129000CF90BF90AF909F908F907F900895EF92E6
:1012A000FF921F93CF93DF931F92CDB7DEB77C01E0
:1012B000FC014685178560E0858549830E945405B9
:1012C0004981F701648583850E94A70A412FF701B0
:1012D000648583850E94A70A61E0F70185850F90E8
:1012E000DF91CF911F91FF90EF900C945405CF9315
:1012F000DF93EC010E94E8052E853F858889998956
:10130000822B932B9F878E878A898F5F883010F47A
:101310008A8B01C01A8AFE01E252FF4F208131817F
:101320008A89243B310509F445C02E3091E0390704
:1013300009F467C02A35310509F08CC0FE01E80FB9
:10134000F11DA68DB0E0EAE2F1E060E070E02E85EC
:101350003F85AD01062E02C0559547950A94E2F7E8
:1013600040FF05C040815181242B352B06C04081B0
:10137000518140955095242335233F872E876F5FF9
:101380007F4F32966830710511F7E82FF0E0EE0FCD
:10139000FF1FE75AFE4F80819181809590952E85A1
:1013A0003F85822393239F878E87CE01DF91CF9144
:1013B0000C944F0961E070E0082E02C0660F771FA1
:1013C0000A94E2F7DE019696EAE2F1E04E9150E0EF
:1013D000462357232E853F85452B29F04081518197
:1013E000242B352B06C040815181409550952423F4
:1013F00035233F872E87329691E0EA33F90731F79C
:10140000C4CFFE01E81BF109A5A1B0E0EAE2F1E0DA
:1014100067E070E02E853F85AD01062E02C0559530
:1014200047950A94E2F740FF05C040815181242B83
:10143000352B06C04081518140955095242335239A
:101440003F872E876150710932966F3F9FEF790772
:1014500009F79BCF27E030E0281B310961E070E0FD
:1014600002C0660F771F2A95E2F7DE015E96EAE278
:10147000F1E04D9150E0462357232E853F85452BC3
:1014800029F040815181242B352B06C040815181A8
:1014900040955095242335233F872E87329691E03F
:1014A000EA33F90731F771CF0895FC01918D828DF0
:1014B000981761F0828DDF01A80FB11D5D968C91A8
:1014C000928D9F5F9F73928F90E008958FEF9FEFB3
:1014D0000895FC01918D828D981731F0828DE80F6F
:1014E000F11D858D90E008958FEF9FEF0895FC0129
:1014F000918D228D892F90E0805C9F4F821B9109F6
:101500008F739927089580E090E0892B29F00E943D
:10151000DB0281110C9400000895EF92FF920F936B
:101520001F93CF93DF938C01EC017E01CE01801BD2
:10153000910B69910E940A12F70180818111F5CF08
:10154000DF91CF911F910F91FF90EF900895EF924F
:10155000FF920F931F93CF93DF93E82EF62EC7E0F1
:10156000D0E0042F10E098010C2E02C0359527958D
:101570000A94E2F7B901617077278E2D0E94540515
:1015800061E08F2D0E94540560E08F2D0E9454056C
:10159000219748F7DF91CF911F910F91FF90EF9026
:1015A000089590E0FC01EC55FF4F2491FC01E057B9
:1015B000FF4F8491882399F090E0880F991FFC01D8
:1015C000EA57FF4FA591B491FC01E458FF4F859174
:1015D00094918FB7F894EC91E22BEC938FBF089520
:1015E000BC01009791F0FC0101900020E9F73197D0
:1015F000AF01481B590BE0912B05F0912C0502809F
:10160000F381E02D8BE295E0099480E090E008956D
:101610008F929F92AF92BF92CF92DF92EF92FF9202
:101620000F931F93CF93DF93CDB7DEB72A970FB6F3
:10163000F894DEBF0FBECDBF7C01862FF701638714
:10164000448725875701FEEDAF0EB11C2AE530E037
:10165000F501318320834701F0EE8F0E911CF401D8
:10166000318320830E94D10AF70184850E94D10A28
:10167000F70185850E94D10AF701128A82E69DE36F
:1016800097878687918B808BC7010E944F09F7014E
:10169000E953FF4F87E0808331971082329689E0CB
:1016A0008083EA5AF109C70186961192E817F90773
:1016B000E1F7C7018E519F4F6C010230E1F1033019
:1016C00009F46FC0013009F0B0C08EEE93E00E94C3
:1016D000EC06BC0180E090E00E94161020E030E0B3
:1016E0004AE754E40E94A40FF60160837183828369
:1016F0009383F701668B778B808F918FCE01019654
:101700006C0100E010E0BC01C8018A529C4F69875F
:101710007A870E940107F60181936F010F5F1F4FC7
:1017200069857A850830110579F7C7010E9403079A
:1017300085EF93E06DC080EF93E00E94EC06BC0162
:1017400080E090E00E94161020E030E04AE754E488
:101750000E94A40FF6016083718382839383F70153
:10176000668B778B808F918FCE0101966C0100E0A4
:1017700010E0BC01C80182529C4F69877A870E94A1
:101780000107F60181936F010F5F1F4F69857A850D
:101790000830110579F7C7010E94030786EF93E02F
:1017A00037C082EF93E00E94EC06BC0180E090E03D
:1017B0000E94161020E030E04AE754E40E94A40F93
:1017C000F6016083718382839383F701668B778B45
:1017D000808F918F8E010F5F1F4FC12CD12CB801CC
:1017E000C6018A519C4F69877A870E940107F801D8
:1017F00081938F01FFEFCF1ADF0A69857A8588E030
:10180000C816D10469F7C7010E94030787EF93E068
:101810000E940107F701E753FF4F8083F4018081A5
:101820009181F5019183808309C08DEC9CECACEC37
:10183000BDE3F60180839183A283B3832A960FB61A
:10184000F894DEBF0FBECDBFDF91CF911F910F91F6
:10185000FF90EF90DF90CF90BF90AF909F908F90D0
:101860000895FC01848DDF01A80FB11DA35ABF4F5D
:101870002C91848D90E001968F739927848FA6898F
:10188000B7892C93A089B1898C9180648C93938DB6
:10189000848D981306C00288F389E02D80818F7DA6
:1018A00080830895EF92FF920F931F93CF93DF935E
:1018B000EC0181E0888F9B8D8C8D981305C0E889A1
:1018C000F989808185FD24C0F62E0B8D10E00F5F15
:1018D0001F4F0F731127E02E8C8DE8120CC00FB62E
:1018E00007FCFACFE889F989808185FFF5CFCE0121
:1018F0000E94310CF1CF8B8DFE01E80FF11DE35AF0
:10190000FF4FF0820B8FEA89FB898081806207C0DC
:10191000EE89FF896083E889F9898081806480830A
:1019200081E090E0DF91CF911F910F91FF90EF90B8
:101930000895CF93DF93EC01888D8823C9F0EA895D
:10194000FB89808185FD05C0A889B9898C9186FDB8
:101950000FC00FB607FCF5CF808185FFF2CFA889B5
:10196000B9898C9185FFEDCFCE010E94310CE7CF74
:10197000DF91CF910895CF93DF9300D000D000D0B6
:10198000CDB7DEB7789484B5826084BD84B58160BC
:1019900084BD85B5826085BD85B5816085BD80913A
:1019A0006E00816080936E001092810080918100B2
:1019B00082608093810080918100816080938100AA
:1019C000809180008160809380008091B10084606C
:1019D0008093B1008091B00081608093B0008091CD
:1019E0007A00846080937A0080917A00826080938C
:1019F0007A0080917A00816080937A0080917A00E9
:101A0000806880937A001092C100E091D101F0913A
:101A1000D20182E08083E091CD01F091CE0110826D
:101A2000E091CF01F091D00187E680831092D90137
:101A3000E091D501F091D60186E08083E091D30159
:101A4000F091D401808180618083E091D301F09195
:101A5000D401808188608083E091D301F091D4012A
:101A6000808180688083E091D301F091D4018081EE
:101A70008F7D80838BE295E021EC31E0309340054F
:101A800020933F05109241059093300580932F05D8
:101A90004FEF5FEFBA0140933105509332056093E9
:101AA00033057093340590933A05809339058EEF92
:101AB0009FEFAFEFBFEF80933B0590933C05A09362
:101AC0003D05B0933E058DE991E00E948D0A88E8BE
:101AD00090E0909343058093420589E394E09093CE
:101AE00045058093440585EE92E0909347058093E9
:101AF000460580E997E090935D0580935C058DE055
:101B000093E090935F0580935E058BE994E090935A
:101B10005B0580935A0584EA91E090935705809382
:101B2000560580EB94E090935905809358058EE01C
:101B300098E0909355058093540580E090E0FC0177
:101B4000E05FFA4F13861486158603968C30910554
:101B5000B1F785E08093270586E08093280587E02C
:101B60008093290510922A0585E00E94D10A809170
:101B700028050E94D10A809129050E94D10A84E09B
:101B80000E94D10A60E084E00E94540583E00E9434
:101B9000D10A60E083E00E94540582E00E94D10AED
:101BA00060E082E00E94540586EA9BE9A4E4BBE37E
:101BB0008093130590931405A0931505B093160513
:101BC00080E195E00E940D0601E02AE049E068E02E
:101BD0008AE294E00E94080B97E1C92E97EBD92E78
:101BE00091E5E92E99E3F92EC0922D04D0922E04AE
:101BF000E0922F04F09230048AE294E00E940D06F5
:101C00008DE394E00E940D0602E02DE04CE06BE0D5
:101C100084E493E00E94080BC0924703D0924803EB
:101C2000E0924903F0924A0384E493E00E940D0697
:101C300087E593E00E940D0603E020E14FE06EE0AF
:101C40008EE592E00E94080BC0926102D09262027F
:101C5000E0926302F09264028EE592E00E940D062B
:101C600081E792E00E940D0622EA222E25E0322E24
:101C7000CC24C394D12C80913F0590914005DC0188
:101C8000ED91FC910480F581E02D09959E838D8373
:101C90008FB7F8944090BD015090BE016090BF0195
:101CA0007090C0018FBF8091E2059091E305892B70
:101CB000B9F08091E6059091E705A091E805B09113
:101CC000E905A3019201281B390B4A0B5B0B253652
:101CD00031054105510524F01092E3051092E2050B
:101CE000E12CF12C8D819E81E816F9060CF085C05F
:101CF00080913F0590914005DC01ED91FC910680BB
:101D0000F781E02D09954092E6055092E705609233
:101D1000E8057092E9052091E2053091E305213054
:101D2000310571F022303105D9F0232B09F061C063
:101D3000823509F05EC0D092E305C092E20559C039
:101D40008093E4051092E505813418F080E090E07E
:101D500002C082E090E09093E3058093E20549C0E1
:101D6000E091E50591E09E0F9093E505F0E0E55DDB
:101D7000FA4F87AB8091E4059817D8F1B1E0B093A2
:101D800041053A822982E091620527E635E03C83ED
:101D90002B838090630590906405A0906505B090BA
:101DA0006605F0E0EE0FFF1FE55DFA4F0788F08D46
:101DB000E02D3097D1F0AE014F5F5F4FBE016D5FF8
:101DC0007F4F8BE295E0099509811A8135E0023A4F
:101DD000130759F050F0025A154022EA35E0B501D8
:101DE000A4018BE295E00E9449021092E305109253
:101DF000E2054FEFE41AF40A75CF80E195E00E9406
:101E000028068AE294E00E9428068DE394E00E946E
:101E1000280684E493E00E94280687E593E00E9468
:101E200028068EE592E00E94280681E792E00E9453
:101E300028060E94830A1FCF0895CF93DF93E1EC19
:101E4000F1E01382128288EE93E0A0E0B0E0848398
:101E50009583A683B7838DE691E09183808385EC9B
:101E600090E09587848784EC90E09787868780EC64
:101E700090E0918B808B81EC90E0938B828B82EC55
:101E800090E0958B848B86EC90E0978B868B118EFF
:101E9000128E138E148EC0E1D5E08DE791E0998308
:101EA00088830E94E8056F83788789879A878BE803
:101EB00091E0998388838AE294E00E94C80684E4D2
:101EC00093E00E94C8068EE592E00E94C806EBE20D
:101ED000F5E01382128289E991E09183808315866F
:101EE000148693878287DF91CF91089597FB072E01
:101EF00016F4009407D077FD09D00E948A0F07FCE2
:101F000005D03EF4909581959F4F08957095619509
:101F10007F4F0895AA1BBB1B51E107C0AA1FBB1F1F
:101F2000A617B70710F0A61BB70B881F991F5A9565
:101F3000A9F780959095BC01CD010895EE0FFF1F84
:101F40000590F491E02D09940E94B80F0C946A104A
:101F50000E94631058F00E945C1040F029F45F3F2B
:101F600029F00C94531051110C949E100C9459109C
:101F70000E947B1068F39923B1F3552391F3951BCD
:101F8000550BBB27AA2762177307840738F09F5F9A
:101F90005F4F220F331F441FAA1FA9F335D00E2E07
:101FA0003AF0E0E832D091505040E695001CCAF774
:101FB0002BD0FE2F29D0660F771F881FBB1F261737
:101FC00037074807AB07B0E809F0BB0B802DBF010E
:101FD000FF2793585F4F3AF09E3F510578F00C94DD
:101FE00053100C949E105F3FE4F3983ED4F3869513
:101FF00077956795B795F7959F5FC9F7880F911DFE
:102000009695879597F90895E1E0660F771F881FE9
:10201000BB1F621773078407BA0720F0621B730B9C
:10202000840BBA0BEE1F88F7E0950895E89409C079
:1020300097FB3EF490958095709561957F4F8F4FFB
:102040009F4F9923A9F0F92F96E9BB279395F69511
:10205000879577956795B795F111F8CFFAF4BB0F8F
:1020600011F460FF1BC06F5F7F4F8F4F9F4F16C0F3
:10207000882311F096E911C0772321F09EE8872F7D
:10208000762F05C0662371F096E8862F70E060E039
:102090002AF09A95660F771F881FDAF7880F9695B2
:1020A000879597F9089597F99F6780E870E060E059
:1020B00008959FEF80EC089500240A9416161706E1
:1020C00018060906089500240A9412161306140629
:1020D00005060895092E0394000C11F4882352F08C
:1020E000BB0F40F4BF2B11F460FF04C06F5F7F4F44
:1020F0008F4F9F4F089557FD9058440F551F59F02B
:102100005F3F71F04795880F97FB991F61F09F3FE4
:1021100079F087950895121613061406551FF2CF0D
:102120004695F1DF08C0161617061806991FF1CF5D
:1021300086957105610508940895E894BB27662784
:102140007727CB0197F908950E94A91008F48FEF23
:102150000895990F0008550FAA0BE0E8FEEF161638
:102160001706E807F907C0F012161306E407F5078B
:1021700098F0621B730B840B950B39F40A2661F0FF
:10218000232B242B252B21F408950A2609F4A140A2
:10219000A6958FEF811D811D0895CF93DF93823027
:1021A000910510F482E090E0E091EC05F091ED05EE
:1021B00020E030E0C0E0D0E0309711F14081518163
:1021C00048175907C0F04817590761F48281938175
:1021D000209719F09B838A832BC09093ED05809301
:1021E000EC0526C02115310519F04217530718F4E4
:1021F0009A01BE01DF01EF010280F381E02DDCCF07
:102200002115310509F1281B390B2430310590F4D3
:1022100012968D919C9113976115710521F0FB0128
:102220009383828304C09093ED058093EC05FD01B8
:10223000329644C0FD01E20FF31F81939193225027
:1022400031092D933C933AC02091EA053091EB057A
:10225000232B41F420910201309103013093EB05CF
:102260002093EA05209100013091010121153105EB
:1022700041F42DB73EB74091040150910501241B54
:10228000350BE091EA05F091EB05E217F307A0F4B6
:102290002E1B3F0B2817390778F0AC014E5F5F4FBC
:1022A0002417350748F04E0F5F1F5093EB054093FE
:1022B000EA058193919302C0E0E0F0E0CF01DF9165
:1022C000CF9108950F931F93CF93DF93009709F455
:1022D0008CC0FC013297138212820091EC051091A0
:1022E000ED050115110581F420813181820F931FC5
:1022F0002091EA053091EB052817390779F5F0931D
:10230000EB05E093EA0571C0D80140E050E0AE175C
:10231000BF0750F412962D913C911397AD012115F2
:10232000310509F1D901F3CF9D01DA01338322830D
:1023300060817181860F971F8217930769F4EC0102
:1023400028813981260F371F2E5F3F4F318320832D
:102350008A819B8193838283452B29F4F093ED0539
:10236000E093EC0542C01396FC93EE931297ED01B7
:10237000499159919E01240F351FE217F30771F41B
:1023800080819181840F951F029611969C938E9364
:102390008281938113969C938E931297E0E0F0E0F4
:1023A000D80112968D919C911397009719F0F8011E
:1023B0008C01F6CF8D919C9198012E5F3F4F820F3B
:1023C000931F2091EA053091EB052817390769F42E
:1023D000309729F41092ED051092EC0502C013829B
:1023E00012821093EB050093EA05DF91CF911F91C4
:1023F0000F91089581E090E0F8940C941812F894ED
:102400000C941812F999FECF92BD81BDF89A9927C4
:1024100080B50895262FF999FECF1FBA92BD81BDD0
:1024200020BD0FB6F894FA9AF99A0FBE0196089556
:1024300010E0CDE5D0E004C0FE010E949E0F219681
:0A244000CE35D107C9F7F894FFCF9D
:10244A000000EE0580000100000001801004024037
:10245A002008018020080402401001801004024074
:10246A0020080180200804024010040000400800EF
:10247A000080800001000002100000000000BD0082
:10248A00FA0408014802470200000000BC00F804F0
:10249A0077094802470204030200010008400002CB
:1024AA0000200000100020000400000000520C91DF
:1024BA0000770A550A690A990C000000000000001A
:1024CA00000B034802470200000000540AF604A069
:1024DA00054802470200000000C202B002646973A4
:1024EA00706C6179006E6F7576656175206D6573C4
:0824FA0073616765203A2000C0
:00000001FF
