:100000000C948A000C94B2000C94B2000C94B200D0
:100010000C94B2000C94B2000C94B2000C94B20098
:100020000C94B2000C94B2000C94B2000C94B20088
:100030000C94B2000C94B2000C94B2000C94B20078
:100040000C9489250C94B2000C94CF270C940128B1
:100050000C94B2000C94B2000C94B2000C94B20058
:100060000C94B2000C94B200084AD73B3BCE016E10
:1000700084BCBFFDC12F3D6C74319ABD56833DDAFF
:100080003D00C77F11BED9E4BB4C3E916BAAAABE0E
:10009000000000803F05A84CCDB2D44EB93836A937
:1000A000020C50B9918688083CA6AAAA2ABE000074
:1000B00000803F0000000008000201000003040768
:1000C0000000000000000000010204081020408031
:1000D0000102040810200102040810200404040492
:1000E00004040404020202020202030303030303E2
:1000F0000000000023002600290000000000250069
:1001000028002B0000000000240027002A00922174
:100110003128CD2311241FBECFEFD8E0DEBFCDBFE5
:1001200011E0A0E0B1E0E4EAFAE502C005900D922A
:10013000A43BB107D9F725E0A4EBB1E001C01D92C3
:10014000AA3CB207E1F710E0C9E8D0E004C021976B
:10015000FE010E94292DC738D107C9F70E945F28E8
:100160000C94CD2A0C9400002F923F924F925F92F4
:100170006F927F928F929F92AF92BF92CF92DF92B7
:10018000EF92FF920F931F93CF93DF9300D000D095
:10019000CDB7DEB749835A836B837C83322E232EFF
:1001A0009601A701B801832D922D0E94D02A2B0120
:1001B0003C019601A70169817A818B819C810E9413
:1001C000D02A9B01AC01C301B2010E949A2C20E00D
:1001D00030E0A9010E94952C18161CF46801E32C4C
:1001E000F22C9801432D522D69817A818B819C815B
:1001F0000E94D02A2B013C019B01AC01B801832D48
:10020000922D0E949A2C20E030E0A9010E94952CAA
:1002100020E030E0A90187FD1FC0C301B2010E94A8
:100220003D2B87FD0DC020E030E0A901C301B201E4
:100230000E94952C18164CF060E070E0CB0109C0CC
:1002400060E070E080E89FEB04C060E070E080E870
:100250009FE3A501940120C0C301B2010E943D2B80
:1002600087FD0DC020E030E0A901C301B2010E946A
:10027000952C18164CF060E070E0CB0109C060E0EE
:1002800070E080E89FEB04C060E070E080E89FE3EE
:10029000298D3A8D4B8D5C8D0E949A2C2D8D3E8D33
:1002A0004F8D58A10E949A2C9B01AC01B601C70149
:1002B0000E94D12A7B018C019B01AC0169817A816A
:1002C0008B819C810E94D02A9B01AC01C301B201A9
:1002D0000E949A2C20E030E0A9010E943D2B87FF6C
:1002E00004C0E980FA800B811C81B701C8010F901E
:1002F0000F900F900F90DF91CF911F910F91FF9072
:10030000EF90DF90CF90BF90AF909F908F907F90B5
:100310006F905F904F903F902F900895DC019B96D7
:10032000ED91FC919C9710821182128213821482AB
:100330001582168217829D96ED91FC919E971082F0
:1003400011821282138214821582168217820895F6
:100350002F923F924F925F926F927F928F929F92D5
:10036000AF92BF92CF92DF92EF92FF920F931F93C3
:10037000CF93DF93CDB7DEB72E970FB6F894DEBFDD
:100380000FBECDBF9E878D87CB01BA01A901980111
:100390000E94D02A4B015C01A70196010E949A2C71
:1003A000ED85FE8520813181428153810E94D12AD1
:1003B00069877A878B879C87ED85FE85F08DF98329
:1003C000ED85FE85F18DFA83ED85FE85F28DFB834B
:1003D000ED85FE85F38DFC83ED85FE854484558493
:1003E00066847784F489FD83ED85FE85F589FE8337
:1003F000ED85FE85F689FF83ED85FE85F789F88713
:10040000A30192016D817E818F819F2F0E94422BDB
:100410008B011C019B01AC0169857A858B859C85CC
:100420000E943D2B87FD18C0A301920169817A814A
:100430008B819C810E94422B8B011C019B01AC0192
:1004400069857A858B859C850E94952C181624F0E9
:1004500009851A852B843C84C801D101ED85FE8570
:1004600080839183A283B383248135814681578120
:10047000C501B4010E94D02AA70196010E94422B17
:100480006B017C01ED85FE8584829582A682B78210
:100490002085318542855385C501B4010E949A2C7F
:1004A0004B015C019801A101C301B2010E949A2C89
:1004B0009B01AC01C501B4010E94D12A4B015C0132
:1004C000ED85FE852089318942895389C701B601AE
:1004D0000E949A2C9B01AC01C501B4010E94D02A54
:1004E0008B017C012D813E814F8158850E943D2BDF
:1004F00087FD0FC029813A814B815C81B801C7011A
:100500000E94952C18166CF009831A83EB82FC82EA
:1005100008C0FD81F9838E818A83EF81EB83F885A2
:10052000FC8369817A818B819C812E960FB6F89429
:10053000DEBF0FBECDBFDF91CF911F910F91FF9016
:10054000EF90DF90CF90BF90AF909F908F907F9073
:100550006F905F904F903F902F9008958F929F9251
:10056000AF92BF92CF92DF92EF92FF920F931F93C1
:10057000CF93DF93EC014A015B010B851C852D8530
:100580003E854B895C896D897E89750164018BA5E7
:100590009CA50E94A8016F8F78A389A39AA30F85B9
:1005A000188929893A894F89588D698D7A8D8DA549
:1005B0009EA50E94A8016BA37CA38DA39EA30FA15F
:1005C00018A5D801AD90BC902B8D3C8D4D8D5E8DC6
:1005D0000E949A2C20E030E040E05FE30E949A2CD9
:1005E0009B01AC016F8D78A189A19AA10E94D02AAC
:1005F000AB01BC01D5011496ED91FC911597C80192
:10060000099509A51AA5F801A080B1802B8D3C8D14
:100610004D8D5E8D6BA17CA18DA19EA10E949A2C17
:1006200020E030E040E05FE30E949A2C2F8D38A15B
:1006300049A15AA10E94D12AAB01BC01D50114964F
:10064000ED91FC911597C801DF91CF911F910F910A
:10065000FF90EF90DF90CF90BF90AF909F908F90E2
:100660000994089508950F931F93CF93DF93EC019E
:10067000E881F9810480F581E02D09950A811B81CB
:100680002C813D810E831F8328873987DF91CF918D
:100690001F910F910895CF92DF92EF92FF92CF9327
:1006A000DF93EC012BED3FE049EC50E46F8178855E
:1006B00089859A850E949A2C2B853C854D855E857F
:1006C0000E94422B6B017C0120E030E0A9010E94D6
:1006D000952C181624F0F7FAF094F7F8F0942F857B
:1006E000388949895A89C701B6010E949A2CDF913D
:1006F000CF91FF90EF90DF90CF900895CF93DF934D
:1007000000D0CDB7DEB71A8219826983DC01ED9182
:10071000FC910280F381E02D42E050E0BE016F5F6A
:100720007F4F09950F900F90DF91CF910895DA01D7
:10073000ED91FC91119781E08193ED93FC930895E5
:10074000CF93DF93FA01EB01A881B981CD01019626
:10075000998388838C91853809F445C108F058C085
:10076000803509F4FAC050F5803209F4D2C090F413
:10077000813109F4BCC0823109F4C2C0803109F072
:10078000B0C140912F0450913004609131047091B8
:1007900032049FC1823209F4CEC008F4C3C0803451
:1007A00009F4D2C0813409F09CC14091F903509101
:1007B000FA036091FB037091FC03D8C0803809F400
:1007C000EEC090F4803609F4D8C0813609F4DEC05A
:1007D000813509F086C14091D5035091D6036091CF
:1007E000D7037091D803C2C0823809F4EAC008F474
:1007F000DFC0833809F4EEC0843809F072C140913B
:100800009703509198036091990370919A0361C185
:10081000833B09F420C1A0F5833A09F401C188F4AF
:10082000813A09F4EBC008F0F2C0803A09F059C1EE
:100830004091400350914103609142037091430302
:1008400048C1803B09F4F5C060F4843A09F049C11D
:1008500040915003509151036091520370915303A2
:1008600038C1813B09F4EEC0823B09F03AC14091A6
:100870002C0350912D0360912E0370912F0329C1F9
:10088000833D09F403C1F8F4803D09F4EDC060F440
:10089000843B09F026C140913403509135036091A7
:1008A00036037091370315C1813D09F4E6C0823DDE
:1008B00009F017C140910A0350910B0360910C039A
:1008C00070910D0306C1853D09F4F2C008F4E7C03C
:1008D000803E09F4F6C0823E09F003C14091D30284
:1008E0005091D4026091D5027091D602F2C040912D
:1008F0003304509134046091350470913604E9C09A
:1009000040913704509138046091390470913A0451
:10091000E0C0409116045091170460911804709142
:100920001904D7C040911A0450911B0460911C0413
:1009300070911D04CEC040911E0450911F0460911F
:10094000200470912104C5C04091F5035091F60335
:100950006091F7037091F803BCC04091D1035091AE
:10096000D2036091D3037091D403B3C0A081B1814D
:100970004D935D936D937D93B2C04091BB035091B5
:10098000BC036091BD037091BE03A3C04091BF033F
:100990005091C0036091C1037091C2039AC040910D
:1009A0006F0350917003609171037091720391C055
:1009B00040918B0350918C0360918D0370918E0355
:1009C00088C040918F035091900360919103709182
:1009D00092037FC0409193035091940360919503DB
:1009E0007091960376C0A081B18180919B038C9316
:1009F0008081918101969183808373C040914403EB
:100A000050914503609146037091470362C0409145
:100A100048035091490360914A0370914B0359C0B8
:100A200040914C0350914D0360914E0370914F03E0
:100A300050C040912403509125036091260370918A
:100A4000270347C0409128035091290360912A034E
:100A500070912B033EC0409130035091310360915F
:100A600032037091330335C0409102035091030368
:100A700060910403709105032CC0409106035091CE
:100A80000703609108037091090323C040910E038E
:100A900050910F0360911003709111031AC040919F
:100AA000120350911303609114037091150311C048
:100AB0004091160350911703609118037091190328
:100AC00008C04091CF025091D0026091D102709144
:100AD000D202A081B1814D935D936D937D93B183DB
:100AE000A083DF91CF9108950F931F93CF93DF934E
:100AF000ECE9F3E00789108D218D328D838D948D83
:100B0000A58DB68DEA01E881F981008311832283E6
:100B1000338384839583A683B7833896F983E883E8
:100B2000DF91CF911F910F9108950F931F93CF9352
:100B3000DF93ACE9B3E01B960D911D912D913C9193
:100B40001E97EA01E881F9810083118322833383B0
:100B50001F960D911D912D913C9152970483158301
:100B60002683378353968D919D910D90BC91A02D36
:100B700080879187A287B3873C96F983E883DF91CA
:100B8000CF911F910F910895CF92DF92EF92FF9234
:100B90000F931F93DB01ED91FC911197C080D180E1
:100BA000E280F3800481158126813781CF010C9684
:100BB0008D939C9380859185A285B385ECE9F3E0C4
:100BC000C386D486E586F6860787108B218B328B09
:100BD000838B948BA58BB68B1F910F91FF90EF9019
:100BE000DF90CF900895CF93DF93EA0180911A03AD
:100BF00090911B03009761F0DC01ED91FC91028064
:100C0000F381E02D0995882319F09091D90201C054
:100C100090E02091560381E08227E881F98190835A
:100C2000E881F9819F012F5F3F4F398328838183BA
:100C300088819981019699838883DF91CF91089566
:100C40000F931F93DB01ED91FC91119700811181AE
:100C500022813381CF0108968D939C9344815581E5
:100C6000668177818091C0029091C10280329105A6
:100C7000B4F4FC013196F093C102E093C002E3E0CA
:100C8000880F991FEA95E1F7FC01E054FE4F0083BD
:100C900011832283338344835583668377831F9133
:100CA0000F9108950C94CD270C94CD270C94CD274B
:100CB0000C94CD274F925F926F927F928F929F926A
:100CC000AF92BF92CF92DF92EF92FF920F931F935A
:100CD000CF93DF93CDB7DEB764970FB6F894DEBF3E
:100CE0000FBECDBF8C0149875A876B877C87DC019B
:100CF00097968D919C919897DC01ED91FC910680DF
:100D0000F781E02D09952B013C01F80181A592A501
:100D1000DC01ED91FC910680F781E02D09954B01F6
:100D20005C019B01AC01C301B2010E94D12A20E009
:100D300030E040E05FE30E949A2C6B017C0120E0F0
:100D400030E0A9010E94952C181624F0C701B601C5
:100D5000905802C0C701B601F80123A134A145A1F2
:100D600056A10E949A2C6D877E878F87988BA3014E
:100D70009201C501B4010E94D02AD8015F962D913D
:100D80003D914D915C9192970E94422B4B015C01E9
:100D9000D80153968D919D910D90BC91A02D898382
:100DA0009A83AB83BC8320E030E040E05FE3C50181
:100DB000B4010E949A2C9B01AC0169817A818B81DC
:100DC0009C810E94D12A2B013C010E9440246D830A
:100DD0007E838F839887C301B2010E941C252B015B
:100DE0003C012D813E814F815885C701B6010E948B
:100DF0009A2C698B7A8B8B8B9C8BA30192016D85CE
:100E00007E858F8598890E949A2C9B01AC01698907
:100E10007A898B899C890E94D02A9B01AC01F801B8
:100E200063857485858596850E94D12AD8011B9695
:100E30006D937D938D939C931E97A3019201C7019F
:100E4000B6010E949A2C2B013C012D813E814F81DD
:100E500058856D857E858F8598890E949A2C9B0187
:100E6000AC01C301B2010E94D12A9B01AC01F8017F
:100E700067857089818992890E94D12AD8011F963D
:100E80006D937D938D939C935297A50194016981F5
:100E90007A818B819C810E94D12AF801638B748BAB
:100EA000858B968B29853A854B855C85C701B60174
:100EB0000E94422BD80157966D937D938D939C93FE
:100EC0005A9729853A854B855C85C501B4010E94F6
:100ED000422BF801638F748F858F968F64960FB6BF
:100EE000F894DEBF0FBECDBFDF91CF911F910F9160
:100EF000FF90EF90DF90CF90BF90AF909F908F903A
:100F00007F906F905F904F9008950F931F93CF93B2
:100F1000DF93EC016C898A890E940E2760E08A8D3C
:100F20000E940E271A821B821C821D820FEF1FEF68
:100F3000602F609561708E890E940E27B8017595AB
:100F400067956170888D0E940E278A819B81AC8194
:100F5000BD81BA2FA92F982F88278A839B83AC83C2
:100F6000BD8361E08AA10E940E2761E088A10E94F2
:100F70000E2741E06AA18E8D0E9467274A815B811E
:100F80006C817D81480F511D611D711D4A835B83FA
:100F90006C837D8360E088A10E940E2701501109B7
:100FA0000B3F8FEF180721F661E08A8DDF91CF911B
:100FB0001F910F910C940E27CF92DF92EF92FF9228
:100FC000CF93DF93EC010E9485078A819B81AC81DE
:100FD000BD81CE80DF80E884F984BC01CD016C192D
:100FE0007D098E099F090E94E52B6B017C016E85AE
:100FF0007F85888999890E94E52B9B01AC01C701F7
:10100000B6010E94422B6B017C012BED3FE049ECC5
:1010100050E46A857B858C859D850E949A2C9B0176
:10102000AC01C701B6010E949A2CDF91CF91FF90CD
:10103000EF90DF90CF900895CF92DF92EF92FF92E2
:10104000CF93DF93EA018BEE93E00E948507C09077
:10105000ED03D090EE03E090EF03F090F00387EC07
:1010600093E00E9485078091C9039091CA03A091E3
:10107000CB03B091CC03E881F981C082D182E282B6
:10108000F38284839583A683B7833896F983E883B4
:10109000DF91CF91FF90EF90DF90CF900895CF92A6
:1010A000DF92EF92FF920F931F93CF93DF93EC01A8
:1010B000CB80DC80ED80FE8020E030E0A901C7011C
:1010C000B6010E943D2B882309F46AC02BED3FE056
:1010D00049EC50E46F81788589859A850E949A2C25
:1010E0009B01AC01C701B6010E94422B2B853C85B8
:1010F0004D855E850E949A2C20E030E04FE753E456
:101100000E949A2C0E9445249B0177FF04C022274D
:101110003327261B370B890120E030E04FE753E4EB
:101120006F85788989899A890E949A2C6B017C0144
:10113000B801012E000C880B990B0E94E52BA7012A
:1011400096010E94952C18162CF4C701B6010E9436
:1011500045248B0161E08B890E940E27B8018D899F
:101160000E944A262B853C854D855E856B817C815E
:101170008D819E810E949A2C2F81388549855A85C0
:101180000E949A2C11E020E030E0A9010E94952CE9
:1011900018160CF010E081E0612F68278F8902C0DB
:1011A00060E08B89DF91CF911F910F91FF90EF90BD
:1011B000DF90CF900C940E27FC014383548365830A
:1011C00076830C944F08CF93DF93CDB7DEB7A0970B
:1011D0000FB6F894DEBF0FBECDBFFE013196CF0132
:1011E000DB014D915C9111979A012F5F3F4F2D9339
:1011F0003C93DA012C9121932111F2CF0E943420EB
:10120000A0960FB6F894DEBF0FBECDBFDF91CF9191
:10121000089508950895DC0112962C9112972223C7
:1012200049F012961C921297ED91FC910084F18581
:10123000E02D099408952F923F924F925F926F9202
:101240007F928F929F92AF92BF92CF92DF92EF9256
:10125000FF920F931F93CF93DF93CDB7DEB72C97F9
:101260000FB6F894DEBF0FBECDBF9C878B871A01E7
:1012700069837A83DC0153968D919D910D90BC9189
:10128000A02D8B839C83AD83BE83AB85BC85579695
:101290008D919D910D90BC91A02D8F839887A987EA
:1012A000BA87EB85FC8587A890ACA1ACB2ACC7A48B
:1012B000D0A8E1A8F2A803851485258536857F93FB
:1012C000F981FF933F924F93AB85BC85DE968C915D
:1012D000DE978F93DD968C91DD978F93DC968C91C2
:1012E000DC978F93DB968C918F934B815C816D8122
:1012F0007E818B859C850E94B4000FB6F894DEBF7A
:101300000FBECDBF2B013C01AB85BC859F966D9375
:101310007D938D939C93D297FD01FF968080918061
:10132000A280B380D396CD90DD90ED90FC90D697BF
:101330001F960D911D912D913C915297BA81BF93AB
:10134000E981EF933F922F92EB85FC85ED5BFF4F98
:1013500083818F9382818F9381818F9380818F93FB
:101360004F81588569857A858B859C850E94B4005C
:101370000FB6F894DEBF0FBECDBFAB85BC85D3964C
:101380006D937D938D939C93D697FD01438A548AE8
:10139000658A768A57966D937D938D939C935A9721
:1013A00099818A81422D532D692F782FCD010E947A
:1013B000AE02EB85FC85478C50A061A072A0E3A42F
:1013C000F4A4D70154962D913D914D915C9157977E
:1013D000C301B2010E943D2B11E018165CF4F70125
:1013E000208D318D428D538DC301B2010E94952C09
:1013F00087FD10E0AB85BC859396CD90DD90ED9098
:10140000FC9096979D966D907C909E97F301248911
:10141000358946895789C701B6010E943D2B1816A8
:101420006CF4D30158962D913D914D915C915B9751
:10143000C701B6010E94952C87FD9DC0EB85FC85F8
:10144000438454846584768420E030E0A901C3019C
:10145000B2010E94952C18165CF420E030E040E8C0
:101460005FE3C301B2010E943D2B87FF59C00BC04F
:1014700020E030E040E85FEBC301B2010E94952C10
:1014800018160CF04DC0AB85BC851F964D905D9035
:101490006D907C90529720E030E0A901C301B20129
:1014A0000E94952C18165CF42DEC3CEC4CE45DE3AA
:1014B000C301B2010E943D2B87FD0BC031C02DEC52
:1014C0003CEC4CE45DEBC301B2010E94952C181674
:1014D0003CF5EB85FC85E95BFF4F8081882301F1BA
:1014E000EB85FC8587A190A5DC01ED91FC91048042
:1014F000F581E02D40E050E0BA010995EB85FC85CF
:1015000081A592A5DC01ED91FC910480F581E02D8F
:1015100040E050E0BA0109958B859C850E940B093B
:101520008B819C81AD81BE81EB85FC85838B948B07
:10153000A58BB68B8F819885A985BA85878B908F6F
:10154000A18FB28F2C960FB6F894DEBF0FBECDBF21
:10155000DF91CF911F910F91FF90EF90DF90CF908F
:10156000BF90AF909F908F907F906F905F904F90C3
:101570003F902F900895111161CFD2CF1092C102E8
:101580001092C00281E090E09093C3028093C20267
:101590001092C9021092C8021092CA021092CB0295
:1015A0001092CC021092CD021092CE0287ED92E002
:1015B0000C940B098F929F92AF92BF92CF92DF92C1
:1015C000EF92FF92DB01ED91FC9111978080918069
:1015D000A280B380CF0108968D939C93C480D58060
:1015E000E680F78084E593E00E940B0987ED92E0A6
:1015F0000E940B0980922B0490922C04A0922D043F
:10160000B0922E0488E294E00E944F08C092120427
:10161000D0921304E0921404F09215048FE094E049
:10162000FF90EF90DF90CF90BF90AF909F908F9002
:101630000C944F08CF93DF93FC012281211112C03B
:10164000EC0181E082830E94DF256F8378878987A0
:101650009A87E881F9810680F781E02DCE01DF913C
:10166000CF910994DF91CF910895CF92DF92EF92BD
:10167000FF92CF93DF93CDB7DEB72C970FB6F894D8
:10168000DEBF0FBECDBF8CE0E7EAF3E0DE011196CE
:1016900001900D928A95E1F7DB01ED91FC91119794
:1016A000CF0104968D939C93C080D180E280F3801B
:1016B00084E593E00E941A0BC986DA86EB86FC86E5
:1016C0008CE0FE013196AEEEB2E001900D928A956B
:1016D000E1F7E8EBF1E0F0931B03E0931A0387EDE9
:1016E00092E0938382832C960FB6F894DEBF0FBEF0
:1016F000CDBFDF91CF91FF90EF90DF90CF900C9412
:101700001A0B4F925F926F927F928F929F92AF923D
:10171000BF92CF92DF92EF92FF920F931F93CF93DE
:10172000DB01ED91FC911197CF01019611969C93ED
:101730008E93C081CC2329F0C13049F48FEF9FEF05
:1017400002C081E090E09093C3028093C202CF0177
:1017500005968D939C9381819281A381B48180931E
:10176000C4029093C502A093C602B093C702E09151
:10177000C002F091C1028F0183E0000F111F8A9512
:10178000E1F700551E4F93E0EE0FFF1F9A95E1F72A
:10179000E854FE4FC080D180E280F38044805580C1
:1017A00066807780F8012081318142815381C701B1
:1017B000B6010E94D02A4B015C01F80124813581D9
:1017C00046815781C301B2010E94D02AA50194012C
:1017D0000E94E1234B015C01C092EE02D092EF0225
:1017E000E092F002F092F1024092F2025092F30283
:1017F0006092F4027092F5026C2F70E080E090E04D
:101800000E94E52B2BED3FE049E450E40E949A2C26
:101810009B01AC01C501B4010E94D12A6093F6027C
:101820007093F7028093F8029093F90284E593E0B5
:101830000E941A0B8CEB91E090931B0380931A0388
:1018400087ED92E09093BF018093BE01CF911F91ED
:101850000F91FF90EF90DF90CF90BF90AF909F904F
:101860008F907F906F905F904F900C941A0B8F9297
:101870009F92AF92BF92CF92DF92EF92FF92DB01E5
:10188000ED91FC91119780809180A280B380CF016F
:1018900008968D939C93C480D580E680F78087ED71
:1018A00092E00E940B0984E593E00E941A0BE4E5A4
:1018B000F3E0838A948AA58AB68AC78AD08EE18E9D
:1018C000F28EFF90EF90DF90CF90BF90AF909F90FF
:1018D0008F900895CF92DF92EF92FF921F93CF9354
:1018E000DF93FC0112811123D9F0EC010E94DF2566
:1018F000CF80D884E984FA846C197D098E099F0908
:101900000E94E32B20E034E244E759E40E94422B9A
:101910002B813C814D815E810E94952C181614F01C
:1019200010E025C00E94DF256B017C018F81988526
:10193000A985BA85A7019601281B390B4A0B5B0BB9
:10194000CA01B9010E94E32B20E034E244E759E4E4
:101950000E94422BAB01BC01CF82D886E986FA8671
:10196000E881F9810480F581E02DCE010995812F70
:10197000DF91CF911F91FF90EF90DF90CF9008956E
:1019800008950895AF92BF92CF92DF92EF92FF92A7
:101990000F931F93CF93DF9300D000D0CDB7DEB766
:1019A00049835A836B837C83FC01A489B589109792
:1019B00019F04689411103C080E090E03BC0590115
:1019C0006C01ED91FC9111970190F081E02D61E4A3
:1019D000CD0109957C01D60154968D919C91559726
:1019E000DC01ED91FC9164E0600F0190F081E02D4D
:1019F0000995E80EF91EF60184899589DC01ED91BF
:101A0000FC910280F381E02D44E050E0BE016F5F65
:101A10007F4F0995E80EF91EF60184899589DC014E
:101A2000ED91FC910280F381E02DA801B5010995AB
:101A30008E0D9F1D0F900F900F900F90DF91CF9103
:101A40001F910F91FF90EF90DF90CF90BF90AF90DC
:101A500008950F931F939B018A010F5F1F4FFC0195
:101A60004681578160857185848195810E94C20C71
:101A70001F910F910895FC01808191810C942F2D6D
:101A8000AF92BF92CF92DF92EF92FF920F931F938C
:101A9000CF93DF9300D0CDB7DEB78B016B0124E08D
:101AA000C20ED11C7B015C01A61AB70A95012E0D4E
:101AB0003F1D3A832983CE0101960E943B0DF70119
:101AC00081937F01EC15FD0589F7C8010F900F90F8
:101AD000DF91CF911F910F91FF90EF90DF90CF900A
:101AE000BF90AF9008950F931F93CF93DF93EC01B6
:101AF0008B01BC01685F7F4FC8010E94400DBE0191
:101B0000645F7F4FC80104960E94400DBE01605F74
:101B10007F4FC80108960E94400DBE016C5E7F4F4A
:101B2000C8010C960E94400DBE01685E7F4FC8013F
:101B30004096DF91CF911F910F910C94400DAF9281
:101B4000BF92CF92DF92EF92FF920F931F93CF93AA
:101B5000DF9300D0CDB7DEB78B016B0124E0C20E5E
:101B6000D11C7B015C01A61AB70A95012E0D3F1D01
:101B70003A832983CE0101960E943B0DF7018193A0
:101B80007F01EC15FD0589F7C8010F900F90DF91DB
:101B9000CF911F910F91FF90EF90DF90CF90BF906A
:101BA000AF9008958F929F92AF92BF92CF92DF92A3
:101BB000EF92FF920F931F93CF93DF9300D0CDB797
:101BC000DEB76C017B015C018EE0A80EB11C8601C2
:101BD000065F1F4F4B01801A910AC401800F911FAD
:101BE0009A838983CE0101960E943B0DF80181936F
:101BF0008F01EA15FB0589F7F4E0EF0EF11C82E195
:101C0000C80ED11CFA82E982CE0101960E943B0DDA
:101C1000F80181938F01FFEFEF1AFF0A0C151D05E4
:101C200089F70F900F90DF91CF911F910F91FF9047
:101C3000EF90DF90CF90BF90AF909F908F900895DE
:101C4000AF92BF92CF92DF92EF92FF920F931F93CA
:101C5000CF93DF9300D0CDB7DEB78B016B0124E0CB
:101C6000C20ED11C7B015C01A61AB70A95012E0D8C
:101C70003F1D3A832983CE0101960E943B0DF70157
:101C800081937F01EC15FD0589F7C8010F900F9036
:101C9000DF91CF911F910F91FF90EF90DF90CF9048
:101CA000BF90AF9008950F931F93CF93DF931F9230
:101CB000CDB7DEB78C0169830E943B0D698168173F
:101CC00029F0F801808191810E94372DC8010F9081
:101CD000DF91CF911F910F910895AF92BF92CF9254
:101CE000DF92EF92FF920F931F93CF93DF9300D079
:101CF000CDB7DEB78B016B0124E0C20ED11C7B0196
:101D00005C01A61AB70A95012E0D3F1DF7016191DE
:101D10007F013A832983CE0101960E94530EEC1471
:101D2000FD0489F7C8010F900F90DF91CF911F91AB
:101D30000F91FF90EF90DF90CF90BF90AF900895FC
:101D40000F931F93CF93DF93EC018B01BC01685F6E
:101D50007F4FC8010E946D0EBE01645F7F4FC801B6
:101D600004960E946D0EBE01605F7F4FC801089609
:101D70000E946D0EBE016C5E7F4FC8010C960E94E2
:101D80006D0EBE01685E7F4FC8014096DF91CF9116
:101D90001F910F910C946D0EAF92BF92CF92DF9274
:101DA000EF92FF920F931F93CF93DF9300D0CDB7A5
:101DB000DEB78B016B0124E0C20ED11C7B015C01FC
:101DC000A61AB70A95012E0D3F1DF70161917F01FB
:101DD0003A832983CE0101960E94530EEC14FD0430
:101DE00089F7C8010F900F90DF91CF911F910F914C
:101DF000FF90EF90DF90CF90BF90AF9008958F92BB
:101E00009F92AF92BF92CF92DF92EF92FF920F9389
:101E10001F93CF93DF9300D0CDB7DEB76C017B016A
:101E20005C018EE0A80EB11C8601065F1F4F4B01BE
:101E3000801A910AC401800F911FF80161918F01EE
:101E40009A838983CE0101960E94530E0A151B05C1
:101E500089F7F4E0EF0EF11C82E1C80ED11CF80105
:101E600061918F01FA82E982CE0101960E94530EA0
:101E7000FFEFEF1AFF0A0C151D0589F70F900F9061
:101E8000DF91CF911F910F91FF90EF90DF90CF9056
:101E9000BF90AF909F908F900895AF92BF92CF92D6
:101EA000DF92EF92FF920F931F93CF93DF9300D0B7
:101EB000CDB7DEB78B016B0124E0C20ED11C7B01D4
:101EC0005C01A61AB70A95012E0D3F1DF70161911D
:101ED0007F013A832983CE0101960E94530EEC14B0
:101EE000FD0489F7C8010F900F90DF91CF911F91EA
:101EF0000F91FF90EF90DF90CF90BF90AF9008953B
:101F00000F931F93CF93DF93EC018B01BC01695FAB
:101F10007F4FC8010E944D0FBE01655F7F4FC80112
:101F200004960E944D0FBE01615F7F4FC801089665
:101F3000DF91CF911F910F910C944D0FDB01ED912B
:101F4000FC911197CF01019611969C938E938081FD
:101F5000853809F4BEC108F058C0803509F421C1A4
:101F600050F5803209F4BBC0D0F4813109F48CC043
:101F7000823109F4A3C0803109F0FEC2CF01059679
:101F80008D939C9381819281A381B48180932F044E
:101F900090933004A0933104B093320485C0823210
:101FA00009F4C7C008F4ACC0803409F4D3C081344C
:101FB00009F4E1C00895803809F435C1D0F48036C1
:101FC00009F404C1813609F412C1813509F0D4C283
:101FD000CF0105968D939C9381819281A381B481D9
:101FE0008093D5039093D603A093D703B093D803DF
:101FF000E8C0823809F43AC108F426C1833809F4EC
:1020000046C1843809F454C10895833B09F4F9C1E9
:10201000E0F4833A09F49CC148F4813A09F476C1AA
:1020200008F085C1803A09F460C10895803B09F445
:10203000B5C120F4843A09F49CC10895813B09F4A8
:10204000BEC1823B09F4CCC10895833D09F433C27B
:1020500078F4803D09F4FCC120F4843B09F4E2C12A
:102060000895813D09F405C2823D09F413C2089523
:10207000853D09F442C208F42FC2803E09F44FC2E4
:10208000823E09F45DC20895CF0105968D939C931D
:1020900081819281A381B48180933304909334042D
:1020A000A0933504B093360488E294E00E944F0870
:1020B00060E470E088E294E00C94800FCF01059614
:1020C0008D939C9381819281A381B4818093370405
:1020D00090933804A0933904B0933A04E5CFCF012C
:1020E00005968D939C9381819281A381B481809385
:1020F000160490931704A0931804B093190410C009
:10210000CF0105968D939C9381819281A381B481A7
:1021100080931A0490931B04A0931C04B0931D0495
:102120008FE094E00E944F0860E670E08FE094E05A
:10213000C3CFCF0105968D939C9381819281A3811A
:10214000B48180931E0490931F04A0932004B09345
:102150002104E6CFCF0105968D939C9381819281D6
:10216000A381B4818093F5039093F603A093F703C2
:10217000B093F80310C0CF0105968D939C93818195
:102180009281A381B4818093F9039093FA03A09381
:10219000FB03B093FC0360E870E08BEE93E00C94DB
:1021A000FF0ECF0105968D939C9381819281A3812F
:1021B000B4818093D1039093D203A093D303B093BF
:1021C000D40360EA70E087EC93E0E9CFCF01059695
:1021D0008D939C9381819281A381B4818093BB0371
:1021E0009093BC03A093BD03B093BE0310C0CF0176
:1021F00005968D939C9381819281A381B481809374
:10220000BF039093C003A093C103B093C2036BEBD1
:1022100073E080EC90E00E94CC0E6FEB73E084ECF6
:1022200090E00C94CC0ECF0105968D939C93818108
:102230009281A381B48180936F0390937003A093E4
:102240007103B093720310C0CF0105968D939C93D8
:1022500081819281A381B48180938B0390938C03BD
:10226000A0938D03B0938E030C940220CF010596AA
:102270008D939C9381819281A381B48180938F03FC
:1022800090939003A0939103B0939203EDCFCF016D
:1022900005968D939C9381819281A381B4818093D3
:1022A000930390939403A0939503B0939603DCCF8C
:1022B000CF0105968D939C9381819281A381B481F6
:1022C0008093970390939803A0939903B0939A03F4
:1022D000CBCFCF0102968D939C9381E09181911198
:1022E00001C080E080939B03BFCFCF0105968D9303
:1022F0009C9381819281A381B481809340039093C8
:102300004103A0934203B093430343C0CF0105961A
:102310008D939C9381819281A381B48180934403A6
:1023200090934503A0934603B093470332C0CF0177
:1023300005968D939C9381819281A381B481809332
:10234000480390934903A0934A03B0934B0321C0E1
:10235000CF0105968D939C9381819281A381B48155
:1023600080934C0390934D03A0934E03B0934F037F
:1023700010C0CF0105968D939C9381819281A3819A
:10238000B4818093500390935103A0935203B09370
:10239000530360E471E088E393E058C0CF010596F1
:1023A0008D939C9381819281A381B4818093240336
:1023B00090932503A0932603B093270343C0CF0136
:1023C00005968D939C9381819281A381B4818093A2
:1023D000280390932903A0932A03B0932B0332C0C0
:1023E000CF0105968D939C9381819281A381B481C5
:1023F00080932C0390932D03A0932E03B0932F036F
:1024000021C0CF0105968D939C9381819281A381F8
:10241000B4818093300390933103A0933203B0933F
:10242000330310C0CF0105968D939C9381819281D7
:10243000A381B4818093340390933503A093360332
:10244000B093370360E871E08CE193E00C94A00E48
:10245000CF0105968D939C9381819281A381B48154
:102460008093020390930303A0930403B0930503A6
:1024700054C0CF0105968D939C9381819281A38155
:10248000B4818093060390930703A0930803B0934D
:10249000090343C0CF0105968D939C93818192815E
:1024A000A381B48180930A0390930B03A0930C0340
:1024B000B0930D0332C0CF0105968D939C9381811B
:1024C0009281A381B48180930E0390930F03A09314
:1024D0001003B093110321C0CF0105968D939C93F7
:1024E00081819281A381B48180931203909313031D
:1024F000A0931403B093150310C0CF0105968D93DC
:102500009C9381819281A381B481809316039093DF
:102510001703A0931803B09319030C94DE1FCF0187
:1025200005968D939C9381819281A381B481809340
:10253000CF029093D002A093D102B093D20210C0E8
:10254000CF0105968D939C9381819281A381B48163
:102550008093D3029093D402A093D502B093D60275
:102560006FEC72E080E492E00E94431F63ED72E042
:1025700084E492E00C94431F0895AF92BF92CF92EF
:10258000DF92EF92FF920F931F93CF93DF93CDB71C
:10259000DEB7A2970FB6F894DEBF0FBECDBF6A01BB
:1025A000CE0101967C0100E010E05C011AA309A3B2
:1025B000CE0181960E943B0DD7018D937D0188232A
:1025C00041F08F3F31F00F5F1F4F0115B4E01B0743
:1025D00069F7F5012191D6018D919C91DC012C9335
:1025E000D6018D919C91119701968D939C93211109
:1025F000F1CFA2960FB6F894DEBF0FBECDBFDF912C
:10260000CF911F910F91FF90EF90DF90CF90BF90EF
:10261000AF900895FC01EE5EFE4F8081089508950D
:10262000FC01ED5BFF4F80819181009739F0DC0167
:10263000ED91FC910190F081E02D09940895CF93E4
:10264000DF93EC010E948E011FA618AA19AA1AAAEC
:102650001BAA1CAA1DAA1EAADF91CF910895AF92B2
:10266000BF92CF92DF92EF92FF920F931F93CF937F
:10267000DF9300D0CDB7DEB78B016B0124E0C20E33
:10268000D11C7B015C01A61AB70A95012E0D3F1DD6
:102690003A832983CE0101960E943B0DF701819375
:1026A0007F01EC15FD0589F7C8010F900F90DF91B0
:1026B000CF911F910F91FF90EF90DF90CF90BF903F
:1026C000AF900895AF92BF92CF92DF92EF92FF92B8
:1026D0000F931F93CF93DF9300D0CDB7DEB78B015D
:1026E0006B0124E0C20ED11C7B015C01A61AB70A63
:1026F00095012E0D3F1D3A832983CE0101960E943C
:102700003B0DF70181937F01EC15FD0589F7C801A9
:102710000F900F90DF91CF911F910F91FF90EF904D
:10272000DF90CF90BF90AF900895AF92BF92CF92BD
:10273000DF92EF92FF920F931F93CF93DF9300D01E
:10274000CDB7DEB78B016B0124E0C20ED11C7B013B
:102750005C01A61AB70A95012E0D3F1D3A83298305
:10276000CE0101960E943B0DF70181937F01EC158C
:10277000FD0589F7C8010F900F90DF91CF911F9150
:102780000F91FF90EF90DF90CF90BF90AF900895A2
:10279000CF92DF92EF92FF9269017A010E94572453
:1027A000A70196010E94D12AA7019601FF90EF9000
:1027B000DF90CF900C945724CF92DF92EF92FF924C
:1027C000CF93DF93FC01C281D3812B893C894D8952
:1027D0005E896F8D78A189A19AA10E94D02A2BEDE4
:1027E0003FE049E450E40E94D12A2BED3FE049EC60
:1027F00050E40E94C8132BED3FE049E450E40E94EE
:10280000D02A6B017C0120E030E0A9010E94952CC8
:10281000181624F0F7FAF094F7F8F094EF96288160
:1028200039814A815B81C701B6010E943D2B881F17
:102830008827881FDF91CF91FF90EF90DF90CF9096
:1028400008954F925F926F927F928F929F92AF9274
:10285000BF92CF92DF92EF92FF920F931F93CF938D
:10286000DF93CDB7DEB72C970FB6F894DEBF0FBE5F
:10287000CDBFDC0112960D911C911397F801C3880E
:10288000D488E588F68883A994A9A5A9B6A98983DF
:102890009A83AB83BC8387A590A9A1A9B2A9898794
:1028A0009A87AB87BC8787A990ADA1ADB2AD8D8368
:1028B0009E83AF83B887C701B6010E9440244B01B5
:1028C0005C01C701B6010E941C252B013C01F801E7
:1028D00023853485458556856789708D818D928DD8
:1028E0000E94D02A9B01AC01C501B4010E949A2C20
:1028F0004B015C01D8011F962D913D914D915C914A
:1029000052975B966D917D918D919C915E970E94FF
:10291000D02A9B01AC01C301B2010E949A2C9B01F9
:10292000AC01C501B4010E94D12A4B015C01A70191
:102930009601F801678D70A181A192A10E94D02A11
:102940002BED3FE049E450E40E94D12A2BED3FE01B
:1029500049EC50E40E94C8132BED3FE049E450E4F9
:102960000E94D02A6B017C0149805A806B807C8058
:1029700077FA709477F87094D8019B962D913D91D9
:102980004D915C919E97C501B4010E949A2C4B0118
:102990005C01A30192010E943D2B87FD11C029819A
:1029A0003A814B815C81B401C5010E94952C1816B7
:1029B0001CF02401350104C049805A806B807C8062
:1029C0008D809E80AF80B884B7FAB094B7F8B09489
:1029D000A701960169857A858B859C850E949A2C32
:1029E0006B017C01A50194010E943D2B87FD11C064
:1029F0002D813E814F815885B601C7010E94952CDB
:102A000018161CF04601570104C08D809E80AF80CF
:102A1000B884F80143A254A265A276A287A290A628
:102A2000A1A6B2A62C960FB6F894DEBF0FBECDBFFE
:102A3000DF91CF911F910F91FF90EF90DF90CF909A
:102A4000BF90AF909F908F907F906F905F904F90CE
:102A500008952F923F924F925F926F927F928F9242
:102A60009F92AF92BF92CF92DF92EF92FF920F931D
:102A70001F93CF93DF93CDB7DEB72A970FB6F894A5
:102A8000DEBF0FBECDBFFC01E45FFE4F2080318072
:102A90003897208131813A832983215031093C8341
:102AA0002B83910143E0220F331F4A95E1F7A901DF
:102AB000480F591F5A8749878101C12CD12C7601B3
:102AC000DC01A85FBE4FBE83AD833A96F887EF83E3
:102AD00049815A81041715070CF075C02B813C8180
:102AE00002171307FCF4A985BA8514962D913D9120
:102AF0004D915C9117971C966D917D918D919C9154
:102B00001F970E94D02A2B013C01E985FA85208578
:102B100031854285538560897189828993890E94B4
:102B2000D02A10C0AD81BE818D909D90AD90BC909B
:102B3000C501B4010E9440242B013C01C501B40130
:102B40000E941C254B015C01A3019201C301B2014B
:102B50000E949A2C2B013C01A5019401C501B401EE
:102B60000E949A2C9B01AC01C301B2010E94D12AA0
:102B70000E942A254B015C010215130599F4EF818F
:102B8000F885208131814281538160E070E080E8E6
:102B90009FE30E94D02AA50194010E949A2C9B01D8
:102BA000AC0102C09B01AC01C701B6010E94D12A51
:102BB0006B017C010F5F1F4F29853A85285F3F4FCE
:102BC0003A87298785CFC701B6012A960FB6F894B0
:102BD000DEBF0FBECDBFDF91CF911F910F91FF9050
:102BE000EF90DF90CF90BF90AF909F908F907F90AD
:102BF0006F905F904F903F902F9008952F923F924B
:102C00004F925F926F927F928F929F92AF92BF92FC
:102C1000CF92DF92EF92FF920F931F93CF93DF93A8
:102C2000CDB7DEB7CC54D1090FB6F894DEBF0FBED6
:102C3000CDBF1C01DC0112960D90BC91A02DBE876A
:102C4000AD871B962D913D914D915C911E972BA7C1
:102C50003CA74DA75EA71F962D913D914D915C918C
:102C600052972FA738AB49AB5AAB53962D913D9154
:102C70004D915C9156972D962CAF3DAF4EAF5FAF07
:102C80002D979B962D913D914D915C919E972FABE9
:102C900038AF49AF5AAFD3962D913D914D915C918C
:102CA000D697298F3A8F4B8F5C8FD7962D913D9178
:102CB0004D915C91DA972DA33EA34FA358A7FC0139
:102CC000E45FFE4F208131813A8329833897408128
:102CD00051815CAB4BAB415051095A8B498BC901B7
:102CE00063E0880F991F6A95E1F7D101A80FB91F1A
:102CF000B88BAF87BE83AD833CAF2BAF3496FAA7BA
:102D0000E9A791012D5E3E4F3EAB2DABABADBCAD07
:102D1000EBA9FCA9AE17BF070CF088C1AD81BE813D
:102D200014968D909D90AD90BC901797A50194013D
:102D30006BA57CA58DA59EA50E94D02A6D8F7E8F48
:102D40008F8F98A3ED81FE81C084D184E284F384C7
:102D5000A70196016FA578A989A99AA90E94D02AEE
:102D600069A37AA38BA39CA32BAD3CAD49895A8957
:102D700024173507CCF4A5019401AD81BE811C96C2
:102D80006D917D918D919C911F970E94D02A4B014E
:102D90005C01A7019601ED81FE81608971898289BC
:102DA00093890E94D02A10C0A9A5BAA5CD90DD9024
:102DB000ED90FC90C701B6010E9440244B015C01DC
:102DC000C701B6010E941C256B017C01A50194017D
:102DD000C501B4010E949A2C2B013C01A701960168
:102DE000C701B6010E949A2C9B01AC01C301B2013C
:102DF0000E94D12A0E942A2569877A878B879C871F
:102E000029A13AA14BA15CA1C501B4010E949A2C51
:102E10002B013C012D8D3E8D4F8D58A1C701B60170
:102E20000E949A2C9B01AC01C301B2010E94D02ADE
:102E30002B013C0120E030E0A9010E94952C1816DE
:102E400024F077FA709477F8709429853A854B8549
:102E50005C85C301B2010E94422B2B013C01ADA94C
:102E6000BEA92D913D914D915C912D8B3E8B4F8B49
:102E7000588F9B01AC016D897E898F89988D0E9446
:102E80003D2B87FDC7C02D8D3E8D4F8D58A1C501AF
:102E9000B4010E949A2C4B015C0129A13AA14BA1DB
:102EA0005CA1C701B6010E949A2C9B01AC01C5012F
:102EB000B4010E94D12A6B017C0129853A854B859A
:102EC0005C85CA01B9010E949A2C9B01AC01C70123
:102ED000B6010E94422B6B017C012D893E894F89EE
:102EE000588DCA01B9010E949A2C4B015C01A301C3
:102EF0009201C301B2010E949A2C9B01AC01C50151
:102F0000B4010E94D02A0E942A2529853A854B8542
:102F10005C850E94422B4B015C019B01AC01C70107
:102F2000B6010E94D12A8B013C0120E030E0A901CA
:102F30000E943D2B87FD6EC020E030E040E85FE35B
:102F4000B801C3010E94952C181644F4EBADFCADFA
:102F500029893A89E217F3070CF45CC0A5019401B2
:102F6000C701B6010E94D02A20E030E040E85FE3CC
:102F70000E94952C181614F16801730129853A8571
:102F80004B855C85F101E95EFE4F60817181828134
:102F900093810E94422B20E030E040E85FE30E94F2
:102FA000D12A4B015C019B01AC01B801C3010E9415
:102FB000952C18165CF46401750108C04BAD5CAD2E
:102FC00089899A894817590729F1D6CFABADBCAD8D
:102FD000E981FA81EA17FB0774F0F101E25FFE4F25
:102FE0002081318142815381B601C7010E94952C15
:102FF00018160CF0C6C1F101E45FFE4F2BAD3CADDD
:1030000031832083C601D701329680839183A283C6
:10301000B383B7C14BAD5CAD4F5F5F4F5CAF4BAFA0
:103020008D819E8108969E838D8370CE1D8A1D8E14
:10303000F0E8F9A32FE729A74BA95CA94150510952
:1030400025965FAF4EAF2597C101845F9E4F2796AF
:103050009FAF8EAF2797D101A25FBE4F2996BFAF1A
:10306000AEAF299749815A8125968EAD9FAD2597A0
:10307000481759070CF085C1EF85F8898480958041
:10308000A680B780A50194016BA57CA58DA59EA502
:103090000E94D02A6D837E838F839887AF85B889FD
:1030A0001896CD90DD90ED90FC901B97A7019601AE
:1030B0006FA578A989A99AA90E94D02A69877A87D9
:1030C0008B879C87E981FA813196FEABEDABAF85AA
:1030D000B8891C962D913D914D915C911F972BAF16
:1030E0003CAF4DAF5EAFA50194016BAD7CAD8DAD36
:1030F0009EAD0E94D02A2B013C01AF85B889509625
:103100002D913D914D915C91539723962CAF3DAFFE
:103110004EAF5FAF2397A701960123966CAD7DADAF
:103120008EAD9FAD23970E94D02A4B015C01A30175
:103130009201C301B2010E949A2C6B017C01A5018E
:103140009401C501B4010E949A2C9B01AC01C701F6
:10315000B6010E94D12A0E942A25698B7A8B8B8B1B
:103160009C8B2D813E814F815885C301B2010E9405
:103170009A2C6B017C0129853A854B855C85C501BC
:10318000B4010E949A2C9B01AC01C701B6010E94B8
:10319000D12A6B017C0129893A894B895C89CA0152
:1031A000B9010E949A2C9B01AC01C701B6010E9493
:1031B000422B6B017C0120E030E040E85FE30E949D
:1031C000952C18160CF043C0EDA9FEA925962EAD3E
:1031D0003FAD2597E217F3070CF4C9C02BAD3CAD0A
:1031E0004DAD5EAD6BA57CA58DA59EA50E94D02A98
:1031F0006B017C0123962CAD3DAD4EAD5FAD2397A9
:103200006FA578A989A99AA90E94D02A4B015C01CF
:10321000A7019601C701B6010E949A2C6B017C019F
:10322000A5019401C501B4010E949A2C9B01AC0137
:10323000C701B6010E94D12A0E942A258B015C0198
:10324000C12CD12C50E8E52E5FE3F52E58C020E0CC
:1032500030E0A901C701B6010E943D2B181604F108
:103260002D813E814F815885CA01B9010E949A2C57
:103270006B017C0129853A854B855C85CA01B901C2
:103280000E949A2C9B01AC01C701B6010E94D12A71
:103290000E942A258B015C01C12CD12C76012FC004
:1032A00029853A854B855C85C301B2010E949A2C21
:1032B0002B013C012D813E814F815885C501B40110
:1032C0000E949A2C9B01AC01C301B2010E94D02A3A
:1032D0004B015C0120E030E0A9010E94952C1816FA
:1032E00024F0B7FAB094B7F8B09429893A894B8999
:1032F0005C89C501B4010E94422B8B015C012D89C0
:103300003D8D49A159A5B801C5010E943D2B87FFFC
:103310002EC02796AEADBFAD27978D919C91E981C8
:10332000FA818E179F0774F02996AEADBFAD29972D
:103330002D913D914D915C91C701B6010E94952C54
:1033400018168CF429813A812796EEADFFAD2797A8
:10335000318320832996AEADBFAD2997CD92DD9202
:10336000ED92FC9213970D8B1D8FA9A2B9A6EF8544
:10337000F8893896F88BEF872DA93EA93A832983DF
:1033800071CEF101E45FFE4F208131813296C08021
:10339000D180E280F3808BA99CA90197390143E099
:1033A000660C771C4A95E1F789010F5F1F4F2817BC
:1033B00039070CF04EC0A701960160E070E080E88C
:1033C0009FE30E94D02A4B015C01D301A20DB31DE3
:1033D000BA83A98314962D913D914D915C911797D5
:1033E0000E949A2C2B013C0193E0000F111F9A952B
:1033F000E1F7F101E00FF11F24813581468157810A
:10340000C701B6010E949A2C9B01AC01C301B20115
:103410000E94D12A2B013C01E981FA812085318566
:1034200042855385C501B4010E949A2C4B015C0171
:10343000A981BA8150962D913D914D915C91539700
:10344000C701B6010E949A2C9B01AC01C501B401D1
:1034500032C0F101E85FFE4F80809180A280B3808E
:10346000C501B4010E9440249B01AC01620C731C95
:10347000C701B6010E949A2CF3012481358146814F
:1034800057810E94D12A2B013C01C501B4010E9441
:103490001C259B01AC0183E0000F111F8A95E1F709
:1034A000020D131DC701B6010E949A2CD8012D915F
:1034B0003D914D915C910E94D12A6B017C012BA51D
:1034C0003CA54DA55EA5C301B2010E94D02A2B01E7
:1034D0003C012FA538A949A95AA9C701B6010E94E4
:1034E000D02A6B017C01A3019201C301B2010E94A9
:1034F0009A2C4B015C01A7019601C701B6010E94FD
:103500009A2C9B01AC01C501B4010E94D12A0E94F2
:103510002A254B015C01A3019201C701B6010E945B
:10352000E123F101EA5FFE4F008111812D962CAD60
:103530003DAD4EAD5FAD2D970E94D02A6B017C0151
:1035400061E070E0601B710B072E000C880B990B7B
:103550000E94E52B2BED3FE049EC5FE30E949A2CA3
:103560009B01AC01C701B6010E94D12A2B013C018D
:10357000A50194016DA17EA18FA198A50E949A2C0E
:1035800069837A838B839C83C301B2010E941C25CB
:103590009B01AC010E94D12A6B017C0120E030E04C
:1035A000A9010E94952CA701960118160CF05058FD
:1035B000698D7A8D8B8D9C8D0E949A2C9B01AC011C
:1035C00069817A818B819C810E94952C20E030E07A
:1035D000A90187FD1BC0C701B6010E94952C1816D2
:1035E00024F0F7FAF094F7F8F094A7019601698DAA
:1035F0007A8D8B8D9C8D0E949A2CA50194010E943E
:10360000422B6DA37EA38FA398A716C0C701B60156
:103610000E94952C181624F0F7FAF094F7F8F0941D
:10362000A701960169817A818B819C810E94422B3E
:10363000698F7A8F8B8F9C8FC1010E9429159B0106
:10364000AC01C501B4010E94D12A4B015C01C98CB7
:10365000DA8CEB8CFC8CF7FAF094F7F8F094B80164
:10366000110F880B990B0E94E52B9B01AC01C50142
:10367000B4010E949A2C9B01AC016FA978AD89AD71
:103680009AAD0E949A2C8B018D839983A701960194
:103690000E943D2B87FD13C0298D3A8D4B8D5C8D8B
:1036A000B8018D8199810E94952C181624F068012B
:1036B000ED80F98004C0C98CDA8CEB8CFC8C2BED8E
:1036C0003FE049E450E4C301B2010E94D12A2BED4E
:1036D0003FE049EC50E40E94C8132DA13EA14FA148
:1036E00058A5505829833A834B835C832BED3FE0E8
:1036F00049E450E40E94D02A9B01AC016FA978AD47
:1037000089AD9AAD0E949A2C8B0189879D8329816E
:103710003A814B815C810E943D2B87FD17C02DA112
:103720003EA14FA158A5B80189859D810E94952C85
:10373000181624F0C801A985BD8104C08DA19EA1E1
:10374000AFA1B8A589839A83AB83BC83C301B201BF
:103750000E94402420E030E0A9010E94952C181618
:10376000BCF4A3019201C301B2010E94D12A0E94BC
:10377000402420E030E040E85FE30E94D12A20E0CE
:1037800030E040E05FE30E949A2C9B01AC0103C053
:1037900020E030E0A901C701B6010E949A2C6B011C
:1037A0007C0120E030E0A901C501B4010E94952C04
:1037B000181624F0B7FAB094B7F8B0949EEE291A10
:1037C0009EEF390AAD85BE85DB962D913D914D91D9
:1037D0005C91DE97C501B4010E943D2B881F8827AC
:1037E000881FF1018083AD85BE859396CD92DD92D1
:1037F000ED92FC92969729813A814B815C81979654
:103800002D933D934D935C939A97C45BDF4F0FB616
:10381000F894DEBF0FBECDBFDF91CF911F910F9106
:10382000FF90EF90DF90CF90BF90AF909F908F90E0
:103830007F906F905F904F903F902F9008950C94E1
:10384000CD270C94CD278F929F92AF92BF92CF92AB
:10385000DF92EF92FF920F931F93CF93DF9300D0ED
:10386000CDB7DEB726E040E05BE460E070E089E2DF
:1038700095E00E94342981E494E029E235E0309318
:103880005604209355041092570490934604809355
:1038900045044FEF5FEFBA0140934704509348044B
:1038A0006093490470934A049093500480934F04AA
:1038B0008EEF9FEFAFEFBFEF8093510490935204D0
:1038C000A0935304B093540488E991E00E943420FB
:1038D00087E993E090935904809358048DEB92E12B
:1038E00090935B0480935A0483EE98E090935D0478
:1038F00080935C048AED9AE0909361048093600465
:103900008CE198E0909373048093720487E39CE0C9
:1039100090936504809364048EEB9AE0909379040D
:103920008093780480E296E090937B0480937A04FD
:1039300081E89BE0909367048093660485E39BE0B5
:1039400090936B0480936A0483EF95E090936904ED
:103950008093680484EC95E090936D0480936C04EC
:1039600085E995E090936F0480936E0484E795E079
:1039700090937104809370048EE99FE09093750496
:103980008093740480EA93E09093770480937604A4
:103990008CE090E09093B5018093B40185E190E0D4
:1039A0009093B7018093B60161E08CE00E94D2262B
:1039B00060E08091B6010E94D22660E08091B4015F
:1039C0000E940E278AE090E00E94042661E0809128
:1039D000B4010E940E2786E090E090933C0480930F
:1039E0003B0483E090E090933E0480933D0485E0A7
:1039F00090E09093400480933F0461E086E00E9451
:103A0000D22661E080913D040E94D22661E080913F
:103A10003F040E94D22689E090E090932304809393
:103A200022048BE090E090932504809324048AE0A4
:103A300090E0909327048093260461E089E00E943F
:103A4000D22661E0809124040E94D22661E0809118
:103A500026040E94D2266FE274E080E490E00E9487
:103A6000200E63E374E084E490E00E94200E67E39C
:103A700074E088E490E00E94200E66E174E080E645
:103A800090E00E94200E6AE174E084E690E00E94DB
:103A9000200E6EE174E088E690E00E94200E81E046
:103AA00090E0909300048093FF038EE0A82EB12C49
:103AB000B092FE03A092FD0397E0C92ED12CD092C4
:103AC0000204C092010428E0E22EF12CF0920404DA
:103AD000E092030403E110E0109306040093050450
:103AE00081E190E0909308048093070461E08EE008
:103AF0000E94D22661E0809101040E94D22661E0FA
:103B0000809103040E94D22661E0809105040E9406
:103B1000D22661E0809107040E94D2261092DC0335
:103B20001092DB03B092DA03A092D903D092DE03A5
:103B3000C092DD03F092E003E092DF031093E20312
:103B40000093E10380E190E09093E4038093E3032A
:103B500061E08EE00E94D22661E08091DD030E9448
:103B6000D22661E08091DF030E94D22661E080913D
:103B7000E1030E94D22661E08091E3030E94D226F5
:103B80003DE0C32ED12CD0920A04C092090444E037
:103B9000E42EF12CF0920C04E0920B0402E010E011
:103BA00010930E0400930D0460E08DE00E94D22675
:103BB00061E080910B040E94D22661E080910D04A7
:103BC0000E94D226D092E603C092E503F092E80369
:103BD000E092E7031093EA030093E90360E08DE0CD
:103BE0000E94D22661E08091E7030E94D22661E024
:103BF0008091E9030E94D22660E870E08BEE93E0AA
:103C00000E94D20D60EA70E087EC93E00E94D20D32
:103C10001092F1031092F2031092F3031092F40346
:103C200060E0809107040E940E2761E08091070404
:103C30000E940E271092CD031092CE031092CF0354
:103C40001092D00360E08091E3030E940E2761E0B0
:103C50008091E3030E940E276BEB73E080EC90E011
:103C60000E949F0D6FEB73E084EC90E00E949F0D2B
:103C70008BEE93E09093C4038093C30387EC93E0AF
:103C80009093C6038093C5038AE097EDA3EABBE354
:103C900080939F039093A003A093A103B093A203EA
:103CA0008CE993E00E941A0B6FE673E080E091E0EC
:103CB0000E9495136BE873E084E091E00E949513F5
:103CC0006FE873E088E091E00E94951363E973E088
:103CD0008CE091E00E94951367E973E080E191E048
:103CE0000E94951384E191E09A838983CE01019625
:103CF0000E943B0D80939B0388E294E090937C03A9
:103D000080937B038FE094E090937E0380937D0308
:103D100088E393E09093800380937F038CE193E0AA
:103D2000909382038093810384E593E00E940B09C2
:103D300088E294E00E944B034B015C018FE094E029
:103D40000E944B036B017C019B01AC01B401C501D6
:103D50000E943D2B87FF02C064017501A7019601F7
:103D6000C701B6010E94D12A20E030E04AEF52E4B8
:103D70000E94422B4B015C0160E471E088E393E018
:103D80000E94730D60E871E08CE193E00E94730D76
:103D9000D701C601B05880934C0390934D03A09374
:103DA0004E03B0934F03C0925003D0925103E09260
:103DB0005203F0925303D501C401B05880933003ED
:103DC00090933103A0933203B09333038092340372
:103DD00090923503A0923603B092370362E073E00D
:103DE00080E092E00E94621366E073E084E092E07B
:103DF0000E9462136AE073E088E092E00E9462131E
:103E00006EE073E08CE092E00E94621362E173E086
:103E100080E192E00E94621366E173E084E192E047
:103E20000E9462138DEC9CECACE4BDE38093DA025B
:103E30009093DB02A093DC02B093DD0287ED92E069
:103E40000E940B096FEC72E080E492E00E942F1355
:103E500063ED72E084E492E00E942F138091B10040
:103E6000887F81608093B1000F900F90DF91CF9198
:103E70001F910F91FF90EF90DF90CF90BF90AF9088
:103E80009F908F900895AF92BF92CF92DF92EF9262
:103E9000FF920F931F93CF93DF9300D0CDB7DEB780
:103EA0008B016B0124E0C20ED11C7B015C01A61AC0
:103EB000B70A95012E0D3F1DF70161917F013A83ED
:103EC0002983CE0101960E94530EEC14FD0489F75C
:103ED000C8010F900F90DF91CF911F910F91FF902C
:103EE000EF90DF90CF90BF90AF900895AF92BF92C8
:103EF000CF92DF92EF92FF920F931F93CF93DF93B6
:103F000000D0CDB7DEB78B016B0124E0C20ED11C0F
:103F10007B015C01A61AB70A95012E0D3F1DF70122
:103F200061917F013A832983CE0101960E94530E4D
:103F3000EC14FD0489F7C8010F900F90DF91CF9129
:103F40001F910F91FF90EF90DF90CF90BF90AF90B7
:103F500008950895AF92BF92CF92DF92EF92FF92B1
:103F60000F931F93CF93DF9300D0CDB7DEB78B01B4
:103F70006B0124E0C20ED11C7B015C01A61AB70ABA
:103F800095012E0D3F1DF70161917F013A83298331
:103F9000CE0101960E94530EEC14FD0489F7C8016E
:103FA0000F900F90DF91CF911F910F91FF90EF90A5
:103FB000DF90CF90BF90AF900895089562E073E0D6
:103FC00080E092E00E94761F66E073E084E092E079
:103FD0000E94761F6AE073E088E092E00E94761FFC
:103FE0006EE073E08CE092E00E94761F62E173E085
:103FF00080E192E00E94761F66E173E084E192E046
:104000000C94761FCF93DF9300D0CDB7DEB76FE669
:1040100073E080E091E00E94AA1F6BE873E084E007
:1040200091E00E94AA1F6FE873E088E091E00E948F
:10403000AA1F63E973E08CE091E00E94AA1F67E980
:1040400073E080E191E00E94AA1F60919B0384E1EC
:1040500091E09A838983CE0101960E94530E0F90BE
:104060000F90DF91CF910895EF92FF920F931F93DE
:10407000CF93DF938C01EC017E01CE01801B910B6D
:1040800069910E94372DF70180818111F5CFDF9171
:10409000CF911F910F91FF90EF9008952F923F9233
:1040A0004F925F926F927F928F929F92AF92BF9248
:1040B000CF92DF92EF92FF920F931F93CF93DF93F4
:1040C00000D000D0CDB7DEB7809155049091560452
:1040D000DC01ED91FC910480F581E02D09956C01E6
:1040E0000E94D3252B013C01809118059091190560
:1040F000892BB9F080911C0590911D05A0911E059A
:10410000B0911F05A3019201281B390B4A0B5B0BD1
:10411000253631054105510524F0109219051092FC
:104120001805E12CF12C98ED292E94E0392EEC1491
:10413000FD040CF087C08091550490915604DC0179
:10414000ED91FC910680F781E02D099540921C05C8
:1041500050921D0560921E0570921F052091180552
:10416000309119052130310581F022303105E9F017
:10417000232B09F063C0823509F060C021E030E0F4
:10418000309319052093180559C080931A05109291
:104190001B05813418F080E090E002C082E090E0DE
:1041A000909319058093180549C0E0911B0591E093
:1041B0009E0F90931B05F0E0E856FB4F80838091A3
:1041C0001A059817D8F131E0309357043A822982C2
:1041D000E09198044DE954E05C834B83809099040E
:1041E00090909A04A0909B04B0909C04F0E0EE0F95
:1041F000FF1FEF5BFB4F0788F08DE02D3097D1F06C
:10420000AE014F5F5F4FBE016D5F7F4F81E494E071
:10421000099509811A8154E0083D150759F050F0BD
:10422000085D144028ED34E0B501A40181E494E078
:104230000E94C20C10921905109218058FEFE81A0F
:10424000F80A75CF8CE993E00E946A0C882349F143
:104250008CE0E7EAF3E0A2EEB2E001900D928A95DD
:10426000E1F78091B7039091B803A091B903B091A1
:10427000BA034091B3035091B4036091B5037091B8
:10428000B60340935F0350936003609361037093A0
:1042900062038093630390936403A0936503B093D8
:1042A000660387ED92E00E946A0C882301F18091F9
:1042B000FE029091FF02A0910003B0910103409192
:1042C000FA025091FB026091FC027091FD02409352
:1042D0006703509368036093690370936A03809344
:1042E0006B0390936C03A0936D03B0936E0384E50E
:1042F00093E00E946A0C0F900F900F900F90DF9147
:10430000CF911F910F91FF90EF90DF90CF90BF90D2
:10431000AF909F908F907F906F905F904F903F9065
:104320002F900895CF92DF92EF92FF92CF93DF9379
:1043300024E731E0309329042093280410922A04C2
:1043400010922B0410922C0410922D0410922E0423
:1043500083E899EFA2E2BEE380932F0490933004A8
:10436000A0933104B0933204C12CD12C40E8E42E48
:104370004FE3F42EC0923304D0923404E09235041B
:10438000F0923604C0923704D0923804E092390497
:10439000F0923A043093100420930F041092110409
:1043A0001092120410921304109214041092150427
:1043B0008093160490931704A0931804B0931904E3
:1043C000C0921A04D0921B04E0921C04F0921D04C7
:1043D000C0921E04D0921F04E0922004F0922104A7
:1043E0002CE531E03093EC032093EB031092ED03C6
:1043F0001092EE031092EF031092F0031092F1036B
:104400001092F2031092F3031092F4038093F503D9
:104410009093F603A093F703B093F80348EE53E0AC
:1044200060E070E04093F9035093FA036093FB035C
:104430007093FC033093C8032093C7031092C90301
:104440001092CA031092CB031092CC031092CD03AA
:104450001092CE031092CF031092D0038093D10319
:104460009093D203A093D303B093D4034093D50386
:104470005093D6036093D7037093D803C0E4D1E080
:10448000D0939D03C0939C030E94DF256093A303F8
:104490007093A4038093A5039093A6038EE491E008
:1044A00090939D0380939C031092A7031092A803FE
:1044B0001092A9031092AA031092AB031092AC03BE
:1044C0001092AD031092AE031092AF031092B0039E
:1044D0001092B1031092B203D0935503C0935403CA
:1044E0000E94DF2560935B0370935C0380935D0300
:1044F00090935E0310926703109268031092690311
:1045000010926A0310926B0310926C0310926D0369
:1045100010926E03C0926F03D0927003E092710309
:10452000F092720382E391E09093550380935403D9
:1045300010928303109284031092850310928603D5
:1045400010928703109288031092890310928A03B5
:1045500080E090E0A0E8BFE780938B0390938C030A
:10456000A0938D03B0938E0380938F039093900359
:10457000A0939103B0939203809393039093940339
:10458000A0939503B0939603809397039093980319
:10459000A0939903B0939A0321E020939B03C092C8
:1045A0004003D0924103E0924203F0924303109201
:1045B0004403109245031092460310924703109251
:1045C00048031092490310924A0310924B0340E0B3
:1045D00050E060E87FEF40934C0350934D036093AD
:1045E0004E0370934F038093500390935103A09315
:1045F0005203B0935303C0922403D0922503E09258
:104600002603F09227031092280310922903109298
:104610002A0310922B0310922C0310922D03109258
:104620002E0310922F034093300350933103609375
:104630003203709333038093340390933503A09334
:104640003603B0933703D093D802C093D7020E94A9
:10465000DF256093DE027093DF028093E002909387
:10466000E10286E191E09093D8028093D702109204
:10467000E2021092E3021092E4021092E50210921C
:10468000E6021092E7021092E8021092E9021092FC
:10469000EA021092EB021092EC021092ED021092DC
:1046A000EE021092EF021092F0021092F1021092BC
:1046B000F2021092F3021092F4021092F50210929C
:1046C000F6021092F7021092F8021092F902C092CC
:1046D0000203D0920303E0920403F0920503C09218
:1046E0000603D0920703E0920803F092090380E0EA
:1046F00090E0AAE7B4E480930A0390930B03A0939D
:104700000C03B0930D038BED9FE0A9ECB0E4809314
:104710000E0390930F03A0931003B09311038EE048
:1047200091E09093BD018093BC01ECEBF1E0148229
:104730001582168217821086118612861386389685
:1047400082E0EC3BF80799F71092C1021092C00288
:1047500081E090E09093C3028093C2028CE891E0E4
:104760009093B9018093B8011092440410924304CD
:1047700084E991E0909342048093410410924E04A6
:1047800010924D0490934C0480934B04DF91CF9191
:10479000FF90EF90DF90CF90089508950E944D2CE8
:1047A00060F080E891E009F49EEF0E94542C28F01C
:1047B00040E851E071F45EEF0CC00C944A2C0C946C
:1047C0008E2CE92FE0780E946C2C40F3092E052AEC
:1047D000B1F3261737074807590738F00E2E07F8A8
:1047E000E02569F0E025E0640AC0EF6307F8009473
:1047F00007FADB01B9019D01DC01CA01AD01EF93AC
:104800000E94592B0E945B2C0E9411245F9155231A
:1048100039F02BED3FE049E450FD49EC0C94D12AEE
:104820000895DF93DD27B92FBF7740E85FE31616C1
:10483000170648075B0718F4D92F0E9414259F9389
:104840008F937F936F930E946A25E8E6F0E00E94C1
:10485000AE240E945B2C2F913F914F915F910E945B
:10486000AD2CDD2351F09058A2EA2AED3FE049EC4F
:104870005FE3D0785D270E94E82ADF910C945B2CDF
:104880000E94D724E3950C9400250E94B42B6894D1
:10489000B1110C948F2C08950E944D2C20F019F02A
:1048A0000E94542C50F40C944A2C0C948F2CE92F19
:1048B0000E946C2C88F35523B1F3E7FB6217730752
:1048C00084079507A8F189F3E92FFF2788232AF0A9
:1048D0003197660F771F881FDAF7952F55274423E6
:1048E00032F091505040220F331F441FD2F7BB27A4
:1048F000E91BF50B621B730B840BB109B1F222F4B7
:10490000620F731F841FB11D31972AF0660F771F46
:10491000881FBB1FEFCF9150504062F041F08823B9
:1049200032F0660F771F881F91505040C1F7939562
:104930000C94A0248695779567959F5FD9F7F7CF5C
:104940009F3F31F0915020F4879577956795B79503
:10495000880F911D9695879597F90895DF93CF93CA
:104960001F930F93FF92EF92DF927B018C0168946B
:1049700006C0DA2EEF010E94AD2CFE01E894A5914D
:104980002591359145915591A6F3EF010E94E82AB2
:10499000FE019701A801DA9469F7DF90EF90FF908C
:1049A0000F911F91CF91DF9108950C944A2C0E9492
:1049B000742CD8F3E894E0E0BB279F57F0F02AED81
:1049C0003FE049EC06C0EE0FBB0F661F771F881F44
:1049D00028F0B23A62077307840728F0B25A620BD4
:1049E000730B840BE3959A9572F7803830F49A959F
:1049F000BB0F661F771F881FD2F790480C94A22424
:104A0000EF93E0FF07C0A2EA2AED3FE049EC5FEB3D
:104A10000E94E82A0E945B2C0F90039401FC90589E
:104A2000E5E9F0E00C9475259B01AC0160E070E0D5
:104A300080E89FE30C94422B9F930E94D7240F9011
:104A400007FCEE5F0C94002519F416F40C944A2C24
:104A50000C94A0240E94742CB8F39923C9F3B6F3E4
:104A60009F57550B87FF0E946E250024A0E640EA61
:104A7000900180585695979528F4805C660F771FB3
:104A8000881F20F026173707480730F4621B730B86
:104A9000840B202931294A2BA695179407942025A9
:104AA00031254A2758F7660F771F881F20F02617F1
:104AB0003707480730F4620B730B840B200D311D50
:104AC000411DA09581F7B901842F9158880F9695C3
:104AD000879508959B01AC010C949A2C91505040FD
:104AE000660F771F881FD2F708959F938F937F9348
:104AF0006F93FF93EF939B01AC010E949A2CEF916F
:104B0000FF910E94AE242F913F914F915F910C94A1
:104B10009A2C1F920F920FB60F9211242F933F934E
:104B20008F939F93AF93BF9380912105909122051E
:104B3000A0912305B09124053091200523E0230F97
:104B40002D3720F40196A11DB11D05C026E8230FC5
:104B50000296A11DB11D20932005809321059093FD
:104B60002205A0932305B0932405809125059091FB
:104B70002605A0912705B09128050196A11DB11D1C
:104B80008093250590932605A0932705B0932805CB
:104B9000BF91AF919F918F913F912F910F900FBE39
:104BA0000F901F9018952FB7F89460912105709180
:104BB000220580912305909124052FBF08953FB7CA
:104BC000F8948091250590912605A0912705B09134
:104BD000280526B5A89B05C02F3F19F00196A11DF9
:104BE000B11D3FBFBA2FA92F982F8827820F911D83
:104BF000A11DB11DBC01CD0142E0660F771F881FCA
:104C0000991F4A95D1F708958230910538F0880FA1
:104C1000991F880F991F05970197F1F708957894C8
:104C200084B5826084BD84B5816084BD85B58260B1
:104C300085BD85B5816085BDEEE6F0E0808181604F
:104C40008083E1E8F0E0108280818260808380814F
:104C500081608083E0E8F0E0808181608083E1EB27
:104C6000F0E0808184608083E0EBF0E0808181600F
:104C70008083EAE7F0E080818460808380818260C5
:104C800080838081816080838081806880831092AE
:104C9000C10008951F93CF93DF93182FEB0161E0BC
:104CA0000E94D226209711F460E004C0CF3FD105C6
:104CB00039F461E0812FDF91CF911F910C940E2781
:104CC000E12FF0E0EC54FF4FE491E330F9F048F4C9
:104CD000E130B9F0E230A1F584B5806284BDC8BD91
:104CE00034C0E730E9F0E83019F1E43049F580915B
:104CF0008000806280938000D0938B00C0938A00F4
:104D000024C084B5806884BDC7BD1FC08091800069
:104D1000806880938000D0938900C093880015C07C
:104D20008091B00080688093B000C093B3000DC044
:104D30008091B00080628093B000C093B40005C041
:104D4000C038D1050CF0B5CFAFCFDF91CF911F9117
:104D50000895833081F028F4813099F08230A1F0F9
:104D600008958730A9F08830B9F08430D1F480916B
:104D700080008F7D03C0809180008F7780938000BA
:104D8000089584B58F7702C084B58F7D84BD089562
:104D90008091B0008F7703C08091B0008F7D8093A9
:104DA000B0000895CF93DF9390E0FC01E853FF4FEC
:104DB0002491FC01E452FF4F8491882361F190E03B
:104DC000880F991FFC01EC5FFE4FC591D491FC0147
:104DD000E650FF4FA591B491611109C09FB7F894B7
:104DE0008881209582238883EC912E230BC062302A
:104DF00061F49FB7F8943881822F8095832388834C
:104E0000EC912E2B2C939FBF06C08FB7F894E881AE
:104E10002E2B28838FBFDF91CF9108951F93CF93BF
:104E2000DF93282F30E0F901EC54FF4F8491F90112
:104E3000E853FF4FD491F901E452FF4FC491CC23C2
:104E4000C9F0162F81110E94A926EC2FF0E0EE0F79
:104E5000FF1FE650FF4FA591B4918FB7F894111141
:104E600005C09C91ED2FE095E92302C0EC91ED2B5C
:104E7000EC938FBFDF91CF911F910895CF93DF9374
:104E8000282F30E0F901EC54FF4F8491F901E853E9
:104E9000FF4FD491F901E452FF4FC491CC2391F01C
:104EA00081110E94A926EC2FF0E0EE0FFF1FE051C8
:104EB000FF4FA591B491EC91ED2381E090E021F4B6
:104EC00080E002C080E090E0DF91CF910895CF9222
:104ED000DF92EF92FF920F931F93CF93DF93F82E01
:104EE000D62FE42E07E010E0C0E087E0C82ED12CDA
:104EF00061E08D2F0E940E278F2DE1100AC00E94C5
:104F00003E279601201B310B01C0880F2A95EAF736
:104F100007C00E943E27002E01C0880F0A94EAF7BE
:104F2000C82B60E08D2F0E940E270150110900F759
:104F30008C2FDF91CF911F910F91FF90EF90DF9019
:104F4000CF900895CF92DF92EF92FF920F931F932D
:104F5000CF93DF936C017A018B01C0E0D0E0CE15D6
:104F6000DF0589F0D8016D918D01D601ED91FC919D
:104F70000190F081E02DC6010995892B11F47E0185
:104F800002C02196ECCFC701DF91CF911F910F9105
:104F9000FF90EF90DF90CF9008950C94302A1F92ED
:104FA0000F920FB60F9211242F938F939F93EF932D
:104FB000FF93E0913905F0913A058081E0913F053A
:104FC000F091400582FD12C09081809142058F5F73
:104FD0008F7320914305821751F0E0914205F0E074
:104FE000E75DFA4F958F8093420501C08081FF9164
:104FF000EF919F918F912F910F900FBE0F901F9067
:1050000018951F920F920FB60F9211242F933F9372
:105010004F935F936F937F938F939F93AF93BF93C0
:10502000EF93FF9389E295E00E94AA28FF91EF9108
:10503000BF91AF919F918F917F916F915F914F91B0
:105040003F912F910F900FBE0F901F90189589E2FE
:1050500095E00E946E2821E0892B09F420E0822F40
:105060000895E9E2F5E01382128288EE93E0A0E071
:10507000B0E084839583A683B78388EA91E0918327
:10508000808385EC90E09587848784EC90E0978717
:10509000868780EC90E0918B808B81EC90E0938B05
:1050A000828B82EC90E0958B848B86EC90E0978BE2
:1050B000868B118E128E138E148E089508950E9481
:1050C0000F260E945E280E94231CCCE9D8E20E9491
:1050D0004E202097E1F30E949C28F9CFFC01918D8E
:1050E000228D892F90E0805C9F4F821B91098F73E6
:1050F00099270895FC01918D828D981731F0828D4A
:10510000E80FF11D858D90E008958FEF9FEF0895D2
:10511000FC01918D828D981761F0828DDF01A80FBF
:10512000B11D5D968C91928D9F5F9F73928F90E0E1
:1051300008958FEF9FEF089587E298E2892B49F059
:1051400080E090E0892B29F00E94272881110C949F
:1051500000000895FC01848DDF01A80FB11DA35A42
:10516000BF4F2C91848D90E001968F739927848F87
:10517000A689B7892C93A089B1898C9180648C937E
:10518000938D848D981306C00288F389E02D808169
:105190008F7D80830895CF93DF93EC01888D8823E2
:1051A000C9F0EA89FB89808185FD05C0A889B98994
:1051B0008C9186FD0FC00FB607FCF5CF808185FF6F
:1051C000F2CFA889B9898C9185FFEDCFCE010E94DD
:1051D000AA28E7CFDF91CF910895EF92FF920F9326
:1051E0001F93CF93DF93EC0181E0888F9B8D8C8D93
:1051F000981305C0E889F989808185FD24C0F62EC1
:105200000B8D10E00F5F1F4F0F731127E02E8C8D59
:10521000E8120CC00FB607FCFACFE889F989808143
:1052200085FFF5CFCE010E94AA28F1CF8B8DFE011C
:10523000E80FF11DE35AFF4FF0820B8FEA89FB89DB
:105240008081806207C0EE89FF896083E889F989DF
:1052500080818064808381E090E0DF91CF911F9115
:105260000F91FF90EF900895CF92DF92EF92FF920F
:105270001F93CF93DF93EC016A017B01122FE88922
:10528000F98982E080834115514E61057105B1F0C5
:1052900060E079E08DE390E0A70196010E94072D80
:1052A000DA01C9010197A109B109B695A7959795AA
:1052B0008795AC01411580E15807A8F0E889F98984
:1052C000108260E874E88EE190E0A70196010E94E8
:1052D000072DBA01A901415051096109710976955B
:1052E000679557954795EC85FD855083EE85FF853D
:1052F0004083188EEC89FD891083EA89FB898081BF
:1053000080618083EA89FB89808188608083EA8963
:10531000FB89808180688083EA89FB8980818F7D19
:105320008083DF91CF911F91FF90EF90DF90CF901E
:1053300008950E94C82ACF93DF938230910510F41C
:1053400082E090E0E091C805F091C90520E030E0EE
:10535000C0E0D0E0309711F14081518148175907E2
:10536000C0F04817590761F482819381209719F0A2
:105370009B838A832BC09093C9058093C80526C060
:105380002115310519F04217530718F49A01BE018F
:10539000DF01EF010280F381E02DDCCF2115310523
:1053A00009F1281B390B2430310590F412968D91A8
:1053B0009C9113976115710521F0FB019383828302
:1053C00004C09093C9058093C805FD01329644C07E
:1053D000FD01E20FF31F81939193225031092D9328
:1053E0003C933AC02091C6053091C705232B41F468
:1053F00020910201309103013093C7052093C60527
:1054000020910001309101012115310541F42DB7A2
:105410003EB74091040150910501241B350BE091EA
:10542000C605F091C705E217F307A0F42E1B3F0B4A
:105430002817390778F0AC014E5F5F4F2417350706
:1054400048F04E0F5F1F5093C7054093C6058193E8
:10545000919302C0E0E0F0E0CF01DF91CF91089599
:105460000F931F93CF93DF93009709F48CC0FC0137
:105470003297138212820091C8051091C905011557
:10548000110581F420813181820F931F2091C6057F
:105490003091C7052817390779F5F093C705E093D0
:1054A000C60571C0D80140E050E0AE17BF0750F408
:1054B00012962D913C911397AD012115310509F1FB
:1054C000D901F3CF9D01DA01338322836081718199
:1054D000860F971F8217930769F4EC0128813981A1
:1054E000260F371F2E5F3F4F318320838A819B8198
:1054F00093838283452B29F4F093C905E093C80573
:1055000042C01396FC93EE931297ED014991599185
:105510009E01240F351FE217F30771F480819181FA
:10552000840F951F029611969C938E93828193818E
:1055300013969C938E931297E0E0F0E0D8011296B8
:105540008D919C911397009719F0F8018C01F6CF7B
:105550008D919C9198012E5F3F4F820F931F209158
:10556000C6053091C7052817390769F4309729F423
:105570001092C9051092C80502C0138212821093BE
:10558000C7050093C605DF91CF911F910F91089534
:1055900081E090E0F8940C94452DF8940C94452DFE
:1055A0005058BB27AA270E94E82A0C945B2C0E9423
:1055B0004D2C38F00E94542C20F039F49F3F19F400
:1055C00026F40C944A2C0EF4E095E7FB0C94442C42
:1055D000E92F0E946C2C58F3BA17620773078407EF
:1055E000950720F079F4A6F50C948E2C0EF4E09536
:1055F0000B2EBA2FA02D0B01B90190010C01CA018D
:10560000A0011124FF27591B99F0593F50F4503E37
:1056100068F11A16F040A22F232F342F4427585F29
:10562000F3CF469537952795A795F0405395C9F741
:105630007EF41F16BA0B620B730B840BBAF09150F9
:10564000A1F0FF0FBB1F661F771F881FC2F70EC098
:10565000BA0F621F731F841F48F48795779567956B
:10566000B795F7959E3F08F0B0CF9395880F08F057
:105670009927EE0F9795879508950E94202C08F49E
:1056800081E008950E94562B0C945B2C0E94542CB0
:1056900058F00E944D2C40F029F45F3F29F00C9403
:1056A000442C51110C948F2C0C944A2C0E946C2C7D
:1056B00068F39923B1F3552391F3951B550BBB2741
:1056C000AA2762177307840738F09F5F5F4F220F86
:1056D000331F441FAA1FA9F335D00E2E3AF0E0E87D
:1056E00032D091505040E695001CCAF72BD0FE2FC7
:1056F00029D0660F771F881FBB1F2617370748075B
:10570000AB07B0E809F0BB0B802DBF01FF27935812
:105710005F4F3AF09E3F510578F00C94442C0C9466
:105720008F2C5F3FE4F3983ED4F386957795679589
:10573000B795F7959F5FC9F7880F911D9695879547
:1057400097F90895E1E0660F771F881FBB1F621766
:1057500073078407BA0720F0621B730B840BBA0B24
:10576000EE1F88F7E09508950E94742C88F09F57EB
:1057700098F0B92F9927B751B0F0E1F0660F771F75
:10578000881F991F1AF0BA95C9F714C0B13091F06B
:105790000E948E2CB1E008950C948E2C672F782FE8
:1057A0008827B85F39F0B93FCCF386957795679530
:1057B000B395D9F73EF490958095709561957F4F9C
:1057C0008F4F9F4F0895E89409C097FB3EF4909542
:1057D0008095709561957F4F8F4F9F4F9923A9F0CA
:1057E000F92F96E9BB279395F69587957795679559
:1057F000B795F111F8CFFAF4BB0F11F460FF1BC09D
:105800006F5F7F4F8F4F9F4F16C0882311F096E92F
:1058100011C0772321F09EE8872F762F05C06623DD
:1058200071F096E8862F70E060E02AF09A95660F96
:10583000771F881FDAF7880F9695879597F908954F
:10584000990F0008550FAA0BE0E8FEEF1616170691
:10585000E807F907C0F012161306E407F50798F0F9
:10586000621B730B840B950B39F40A2661F0232B12
:10587000242B252B21F408950A2609F4A140A6958E
:105880008FEF811D811D089597F99F6780E870E073
:1058900060E008959FEF80EC089500240A941616A6
:1058A000170618060906089500240A94121613060E
:1058B000140605060895092E0394000C11F488239C
:1058C00052F0BB0F40F4BF2B11F460FF04C06F5FB8
:1058D0007F4F8F4F9F4F089557FD9058440F551F8E
:1058E00059F05F3F71F04795880F97FB991F61F062
:1058F0009F3F79F087950895121613061406551FD9
:10590000F2CF4695F1DF08C0161617061806991F44
:10591000F1CF86957105610508940895E894BB2739
:1059200066277727CB0197F908950E94202C08F469
:105930008FEF08950E94AD2C0C945B2C0E944D2C8F
:1059400038F00E94542C20F0952311F00C94442C34
:105950000C944A2C11240C948F2C0E946C2C70F304
:10596000959FC1F3950F50E0551F629FF001729F04
:10597000BB27F00DB11D639FAA27F00DB11DAA1F13
:10598000649F6627B00DA11D661F829F2227B00D60
:10599000A11D621F739FB00DA11D621F839FA00DEB
:1059A000611D221F749F3327A00D611D231F849F3B
:1059B000600D211D822F762F6A2F11249F57504092
:1059C0009AF0F1F088234AF0EE0FFF1FBB1F661F0D
:1059D000771F881F91505040A9F79E3F510580F0D6
:1059E0000C94442C0C948F2C5F3FE4F3983ED4F33A
:1059F000869577956795B795F795E7959F5FC1F77A
:105A0000FE2B880F911D9695879597F90895A1E231
:105A10001A2EAA1BBB1BFD010DC0AA1FBB1FEE1F28
:105A2000FF1FA217B307E407F50720F0A21BB30B73
:105A3000E40BF50B661F771F881F991F1A9469F7EF
:105A400060957095809590959B01AC01BD01CF014B
:105A50000895EE0FFF1F0590F491E02D0994F99938
:105A6000FECF92BD81BDF89A992780B50895262F63
:105A7000F999FECF1FBA92BD81BD20BD0FB6F89433
:105A8000FA9AF99A0FBE0196089510E0C9E8D0E09D
:105A900004C0FE010E94292D2196CA38D107C9F7FA
:045AA000F894FFCFA8
:105AA4000000CA0580000100000000000000FE158F
:105AB4000A1300000000A91F1F1C10130F13310349
:105AC4000000000009095206AE028E0131030000F5
:105AD4000000DD1F211C1B091F13310300000000FF
